:020000040800F2
:10000000D00C0020ED260008213D0008233D00080B
:10001000273D00082B3D00082F3D00080000000090
:10002000000000000000000000000000333D000858
:10003000353D000800000000373D00083B3D00084A
:1000400007270008072700080727000807270008D8
:1000500007270008072700080727000807270008C8
:1000600007270008072700080727000807270008B8
:1000700007270008072700080727000807270008A8
:100080000727000807270008072700080727000898
:100090000727000807270008072700080727000888
:1000A00007270008393D00080727000865350008C4
:1000B0000D3900080727000819390008072700082C
:1000C0000727000807270008072700080727000858
:1000D000072700080727000807270008C93D000870
:1000E000072700080727000807270008DFF80CD0BB
:1000F00005F0D0FD00480047773C0008D00C0020F8
:1001000031490143314A1160704770B50021002325
:100110000F22C47804B32D4C246804F4E064C4F5C1
:10012000E064210AC1F10403CA40447804FA03F1EF
:100130008478144021430901254C0678A1550478A0
:1001400004F01F050124AC4005786D11AD0005F1E8
:10015000E025C5F8004109E0047804F01F050124FA
:10016000AC401C4D0678761145F8264070BD1A4A01
:100170000A400243154B1B1F1A60704739B1134ADE
:10018000121D12680243114B1B1D1A6006E00F4A34
:10019000121D126882430D4B1B1D1A607047042804
:1001A00008D14FF0E021096941F004014FF0E0224D
:1001B000116107E04FF0E021096921F004014FF0DF
:1001C000E0221161704700000000FA050CED00E02C
:1001D00000E400E080E100E080FFFF1F10B504466E
:1001E000CC48844208D10121042000F02DFB0021DD
:1001F000042000F029FB46E0C748844208D10121D1
:10020000082000F021FB0021082000F01DFB3AE04F
:10021000C248844208D10121102000F015FB0021C2
:10022000102000F011FB2EE0BD48844208D10121CE
:10023000202000F009FB0021202000F005FB22E037
:10024000B848844208D10121402000F0FDFA002185
:10025000402000F0F9FA16E0B348844208D10121A9
:10026000802000F0F1FA0021802000F0EDFA0AE091
:10027000AE48844207D10121801500F0E5FA002143
:10028000A01500F0E1FA10BD10B50121084600F0FC
:10029000DBFA0021012000F0D7FA10BD2DE9F04172
:1002A000024600250026002000230024002791F8A4
:1002B00003C00CF00F0591F803C00CF0100CBCF15A
:1002C000000F03D091F802C04CEA050591F800C078
:1002D000BCF1000F31D0146800202BE04FF0010C6E
:1002E0000CFA00F3B1F800C00CEA03069E4220D1DC
:1002F00083004FF00F0C0CFA03F7BC4305FA03FC24
:100300004CEA040491F803C0BCF1280F06D14FF069
:10031000010C0CFA00FCC2F814C00AE091F803C00A
:10032000BCF1480F05D14FF0010C0CFA00FCC2F8EB
:1003300010C0401C0828D1D31460B1F800C0BCF133
:10034000FF0F34DD546800202EE000F1080C4FF060
:10035000010808FA0CF3B1F800C00CEA03069E424B
:1003600021D183004FF00F0C0CFA03F7BC4305FAC0
:1003700003FC4CEA040491F803C0BCF1280F05D13A
:1003800000F1080C08FA0CF8C2F8148091F803C0C8
:10039000BCF1480F07D100F1080C4FF0010808FA32
:1003A0000CF8C2F81080401C0828CED35460BDE879
:1003B000F0814FF6FF710180022181700421C1702C
:1003C00070470246002093680B400BB1012000E00B
:1003D000002070470146886880B2704702460020BE
:1003E000D3680B400BB1012000E0002070470146AC
:1003F000C86880B2704701617047416170470AB1B7
:10040000016100E041617047C16070474FF4803284
:100410000A43826181618261826982697047024612
:100420000020434B18684FF68073184040EA0210D2
:1004300008433F4B186070473E49C8617047F0B5AC
:100440000A46002300240021002500F00046B6F1F2
:10045000004F02D1364EF16901E0354E7168C0F3AC
:10046000034583B200F44016B6F5401F08D121F0D1
:1004700070612F4E766826F070662D4F7E6012E018
:1004800000F48016B6F5801F06D1032606FA05F49F
:10049000A14341F0706106E0460D360103FA06F60D
:1004A000B14341F0706122B1460D360103FA06F600
:1004B000314300F00046B6F1004F02D11C4EF1610D
:1004C00001E01B4E7160F0BD30B500228B071C0FA0
:1004D0000F2303FA04F2164B08338C1053F8243020
:1004E0009343134C08348D1044F8253023468C1068
:1004F00053F824308C07240F00FA04F423430C4CE7
:1005000008348D1044F8253030BD0A49DC310860CC
:100510007047000000080140000C0140001001403D
:100520000014014000180140001C0140002001405F
:100530000000014000002042DF48006840F0010058
:10054000DD49086008464068DC490840DA494860EF
:1005500008460068DA490840D7490860084600683C
:1005600020F4802008600846406820F4FE004860BF
:100570004FF41F0088607047CF49096821F480312B
:10058000CD4A11601146096821F480211160B0F54F
:10059000803F03D0B0F5802F0ED106E0C649096830
:1005A00041F48031C44A116007E0C349096841F44D
:1005B000A021C14A116000E000BF00BF704710B524
:1005C00001460022002300204A11012A02D1BA4C20
:1005D000236806E0022A02D1B74C236A01E0B64C38
:1005E000636A01F01F02012494401C400CB10120F9
:1005F00000E0002010BD38B5002000900024002548
:1006000000BF3120FFF7DBFF05460098401C00903B
:100610000098B0F5A06F01D0002DF2D03120FFF787
:10062000CEFF08B1012400E00024204638BD014679
:100630000020A14A106820F0F80040EAC1001060D4
:100640007047A04908607047024600209A4B5868DE
:1006500020F47C1042EA01031843974B586070471E
:1006600098490866704701460020934A506820F078
:1006700003000843506070478F48406800F00C004A
:100680007047014600208C4A506820F0F000084373
:100690005060704701460020874A506820F4E060AF
:1006A00008435060704701460020834A506820F498
:1006B000605040EAC1005060704729B17E4A527ACA
:1006C00002437D4B5A7204E07B4A527A82437A4B52
:1006D0005A7270477B49D831086070470146002044
:1006E000754A506820F4404008435060704700212C
:1006F000714A20321170704A82F82010012802D00D
:1007000004280AD104E001216B4A2032117005E06F
:100710000521694A2032117000E000BF00BF704718
:100720006949086070476449096A0143624A116275
:100730007047654944390860704730B50021002290
:10074000002400235C4D6D6805F00C0121B10429E3
:1007500005D0082923D105E05C4D056022E05B4D02
:1007600005601FE0544D6D6805F47012524D6D68C0
:1007700005F48034022505EB92421CB9544D5543D3
:1007800005600BE04C4D6D6805F400351DB1504D12
:100790005543056002E04D4D5543056002E04B4D69
:1007A000056000BF00BF444D6D6805F0F001090908
:1007B000484D6B5C0568DD4045603F4D6D6805F454
:1007C000E061090A434D6B5C4568DD4085603A4D48
:1007D0006D6805F46051C90A3E4D6B5C4568DD40AB
:1007E000C560354D6D6805F44041890B3A4D6B5C31
:1007F000C568B5FBF3F5056130BD29B12E4A5269D4
:1008000002432D4B5A6104E02B4A526982432A4B22
:100810005A61704729B1284A92690243264B9A616E
:1008200004E0254A92698243234B9A61704729B1BB
:10083000214AD2690243204BDA6104E01E4AD269A0
:1008400082431D4BDA61704729B11B4AD2680243CB
:10085000194BDA6004E0184AD2688243164BDA601A
:10086000704729B1144A12690243134B1A6104E01C
:10087000114A12698243104B1A617047124940397C
:10088000086070470F49C86470470B49C8717047CA
:100890000948406A40F08070074948627047014645
:1008A0000020054A92680A400AB1012000E00020B9
:1008B0007047014988727047001002400000FFF83D
:1008C000FFFFF6FE000042428004424200127A001E
:1008D00000093D00000000201000002010B5044673
:1008E000FE48844208D10121C014FFF7ADFF00216A
:1008F000E014FFF7A9FFC4E0B4F1804F08D1012153
:100900000846FFF7AEFF00210120FFF7AAFFB8E07D
:10091000F348844208D101210220FFF7A2FF002101
:100920000220FFF79EFFACE0EE48844208D101218F
:100930000420FFF796FF00210420FFF792FFA0E0BC
:10094000E948844208D101210820FFF78AFF0021ED
:100950000820FFF786FF94E0E448844208D1012193
:100960001020FFF77EFF00211020FFF77AFF88E0BC
:10097000DF48844208D101212020FFF772FF0021C7
:100980002020FFF76EFF7CE0DA48844208D1012185
:100990004014FFF759FF00216014FFF755FF70E086
:1009A000D548844209D10121C804FFF74DFF002139
:1009B0004FF40020FFF748FF63E0D048844209D19C
:1009C00001210805FFF740FF00214FF48010FFF7D9
:1009D0003BFF56E0CA48844209D101214805FFF790
:1009E00033FF00214FF40010FFF72EFF49E0C54808
:1009F000844208D101214020FFF733FF002140202D
:100A0000FFF72FFF3DE0C048844208D1012180203C
:100A1000FFF727FF00218020FFF723FF31E0BB48CD
:100A2000844208D101218015FFF71BFF0021A0158A
:100A3000FFF717FF25E0B648844209D101210804D9
:100A4000FFF702FF00214FF48030FFF7FDFE18E0B2
:100A5000B048844209D101214804FFF7F5FE002186
:100A60004FF40030FFF7F0FE0BE0AB48844208D1B2
:100A700001218804FFF7E8FE00214FF48020FFF7F2
:100A8000E3FE10BD00220288944B98420ED0994B91
:100A900098420BD0B0F1804F08D0914B984205D0CE
:100AA000904B984202D0904B984204D14FF68F73EE
:100AB0001A404B881A438D4B984207D08C4B984272
:100AC00004D04FF6FF431A40CB881A4302808B882C
:100AD00083850B880385814B98420BD0854B9842C8
:100AE00008D08B4B984205D08A4B984202D08A4B53
:100AF000984201D10B7A038601238382704770B537
:100B0000002400220023058C4FF6FE763540058434
:100B1000028C8388048B4FF68F752C40B51E2C40B9
:100B20000D882C43751E2A400D892A434D882A437F
:100B30006A4DA8420BD06F4DA84208D0744DA84210
:100B400005D0744DA84202D0734DA84213D14FF680
:100B5000F7752A404D892A434FF6FB752A408D8848
:100B60002A434FF6FF652B404FF6FF552B408D89EA
:100B70002B43CD892B4383800483CD8885860284D3
:100B800070BD70B5002400220023058C4FF6EF766F
:100B900035400584028C8388048B48F6FF752C4011
:100BA0004FF6FF452C400D884FF6FF7606EA0525E7
:100BB0002C434FF6DF752A400D8906EA05152A43B6
:100BC0004D8806EA05152A43444DA84202D0494DF6
:100BD000A8421DD14FF67F752A404D894FF6FF760A
:100BE00006EA05152A434FF6BF752A408D8806EAA6
:100BF00005152A434FF6FF352B404FF2FF752B406A
:100C00008D8906EA85052B43CD8906EA85052B43A8
:100C100083800483CD880587028470BD70B500246D
:100C200000220023058C4FF6FF6635400584028CB8
:100C30008388848B4FF68F752C404FF6FC752C40C3
:100C40000D882C434FF6FF552A400D894FF6FF764D
:100C500006EA05252A434D8806EA05252A431F4D45
:100C6000A84202D0234DA8421DD14FF2FF752A4061
:100C70004D894FF6FF7606EA05252A434FF6FF35E4
:100C80002A408D8806EA05252A434EF6FF752B403B
:100C90004DF6FF752B408D8906EA05152B43CD894E
:100CA00006EA05152B4383808483CD8885870284DB
:100CB00070BD70B5002200230024058C4EF6FF762F
:100CC00035400584038C8488828B48F6FF752A4062
:100CD0004FF6FF452A400D8820E00000002C01401F
:100CE0000004004000080040000C004000100040DC
:100CF0000014004000340140004C0140005001400D
:100D00000054014000180040001C0040002000403A
:100D10000040014000440140004801404FF6FF768A
:100D200006EA05252A434DF6FF752B400D8906EA94
:100D300005352B434D8806EA05352B43FA4DA8426D
:100D400002D0FA4DA84208D14BF6FF752C408D8990
:100D50004FF6FF7606EA85152C4384808283CD8882
:100D6000A0F84050038470BD828B4FF2FF331A40CD
:100D70008283828B4FF6FF7303EA01231A43828337
:100D80007047F0B50C461546002200210026078C5E
:100D90004EF6FF7C07EA0C070784828B018C4FF626
:100DA000FF7707EA043640F6FF473A404FF6FF77F1
:100DB00007EA05273A434FF6FF7707EA03373A4336
:100DC000D94FB8420ED0D94FB8420BD0B0F1804FB6
:100DD00008D0D74FB84205D0D64FB84202D0D64F30
:100DE000B84206D14DF6FF77394046F48057394373
:100DF00005E047F6FF57394044F480573943828372
:100E00000184F0BD828B4FF6F3731A408283828B8C
:100E10000A4382837047F0B50C4615460022002134
:100E20000026078C4FF6FF6C07EA0C070784828BBD
:100E3000018C4FF6FF7707EA04264FF60C773A400D
:100E40004FF6FF7707EA03172F433A43B64FB842EE
:100E50000ED0B64FB8420BD0B0F1804F08D0B44F8F
:100E6000B84205D0B34FB84202D0B34FB84206D112
:100E70004FF6FF57394046F48077394305E04FF28B
:100E8000FF57394044F48077394382830184F0BDB1
:100E9000028B4FF2FF331A400283028B4FF6FF732F
:100EA00003EA01231A4302837047F0B50C46154646
:100EB000002200210026078C4FF6EF7C07EA0C0782
:100EC0000784028B018C4FF6FF7707EA041640F681
:100ED000FF473A404FF6FF7707EA03373A434FF6AA
:100EE000FF7707EA05273A438F4FB8420ED08F4F5E
:100EF000B8420BD0B0F1804F08D08D4FB84205D02A
:100F00008C4FB84202D08C4FB84206D14FF6DF77F3
:100F1000394046F01007394305E04FF65F77394016
:100F200044F01007394302830184F0BD028B4FF671
:100F3000F3731A400283028B0A4302837047F0B5B1
:100F40000C46154600220021068C4FF6FE773E40E7
:100F50000684028B018C4FF60C7632407E1C06EA2A
:100F600003162E433243704EB0420ED06F4EB04245
:100F70000BD0B0F1804F08D06D4EB04205D06D4E11
:100F8000B04202D06C4EB04206D14FF6FD763140F1
:100F900044F00106314305E04FF6F576314044F068
:100FA0000106314302830184F0BD70B505460C464D
:100FB0005D4885420ED05D4885420BD0B5F1804F2B
:100FC00008D05B48854205D05A48854202D05A482D
:100FD000854200D100E000BF208850B92389A28853
:100FE00061882846FFF7ABFFE1882846FFF79EFFA0
:100FF00025E0208804280AD12389A2886188284610
:10100000FFF753FFE1882846FFF742FF17E02088EB
:1010100008280AD12389A28861882846FFF7FBFEA9
:10102000E1882846FFF7EEFE09E02389A28861885F
:101030002846FFF7A6FEE1882846FFF795FE70BD1B
:101040002DE9F04105460C4600260127608808B9C5
:10105000022600E00026A088012801D1022700E036
:1010600001272088A0B92389A28861882846FFF734
:1010700066FFE1882846FFF759FF23893A46314643
:101080002846FFF712FFE1882846FFF701FF13E02B
:101090002389A28861882846FFF707FFE188284650
:1010A000FFF7F6FE23893A4631462846FFF747FF09
:1010B000E1882846FFF73AFFBDE8F0810A884B88AF
:1010C0001A438B881A43CB881A430B891A434B89DE
:1010D0001A438B891A43A0F8442070474FF6FF71DA
:1010E000818000210180C180418001727047002110
:1010F000018041808180C180018141818181C181E4
:101100007047002101804180012181800021C18040
:10111000018170470021018041808180C18001816F
:101120004181818170470000002C01400034014062
:101130000004004000080040000C004021B102887B
:1011400042F00102028004E002884FF6FE731A406A
:101150000280704731B1B0F8442042F40042A0F858
:10116000442005E0B0F84420C2F30E02A0F8442069
:1011700070471AB183890B43838102E083898B43D3
:10118000838170478182704741EA0203A0F84830AA
:1011900070471AB183890B43838102E083898B43B3
:1011A0008381704701894FF6F872114001817047C1
:1011B0000A46002101894FF68F73194011430181BE
:1011C000704730B504460D4629462046FFF7F0FF2C
:1011D000208940F00700208130BD2DE9F041044610
:1011E0000D4616461F46602D06D13B46012231466C
:1011F0002046FFF75AFE05E03B46012231462046D5
:10120000FFF79DFE29462046FFF7D2FF208940F0D8
:1012100007002081BDE8F08130B50C46002101892E
:10122000C9B24FF6FF7505EA032515432543294347
:10123000018130BD2DE9F04105460E46174698461E
:10124000002443463A4631462846FFF7E5FF2C89FD
:101250004FF6F870044044F007044FF68F700440D6
:1012600044F070042C81BDE8F081F0B504460D46D1
:1012700016461F463B46324629462046FFF7CCFF1E
:10128000208940F480402081F0BD01858282704732
:101290000A46002101884FF68F73194011430180DF
:1012A0007047F0B50C4615461E460021002200236B
:1012B0000189028B038C4FF6F877394021434FF6B2
:1012C000FC473A4040F201173A434FF6DD773B4086
:1012D0004FF6FF7707EA06172F433B43018102834E
:1012E0000384F0BD0A460021018B4FF68F7319402D
:1012F0001143018370470A460021018B48F6FF73B2
:1013000019404FF6FF7303EA022319430183704724
:101310000A460021818B4FF68F7319401143818358
:1013200070470A460021818B48F6FF7319404FF63B
:10133000FF7303EA022319438183704721B10288B6
:1013400042F08002028004E002884FF67F731A4068
:101350000280704721B1828842F00402828004E05A
:1013600082884FF6FB731A408280704721B18288D1
:1013700042F00802828004E082884FF6F7731A4038
:101380008280704721B1828842F00102828004E0AD
:1013900082884FF6FE731A40828070470A46002109
:1013A000018B4FF6F77319401143018370470A46CA
:1013B0000021018B4FF2FF7319404FF6FF7303EAD0
:1013C00002231943018370470A460021818B4FF69F
:1013D000F77319401143818370470A460021818BBE
:1013E0004FF2FF7319404FF6FF7303EA02231943CC
:1013F000818370470A460021018B4FF6FB73194029
:101400001143018370470A460021018B4FF6FF33D9
:1014100019404FF6FF7303EA022319430183704713
:101420000A460021818B4FF6FB73194011438183DB
:1014300070470A460021818B4FF6FF3319404FF663
:10144000FF7303EA02231943818370470A46002190
:10145000018B4FF67F7319401143018370470A4691
:101460000021018BC1F30E014FF6FF7303EA022343
:101470001943018370470A460021818B4FF67F7321
:1014800019401143818370470A460021818BC1F3C3
:101490000E014FF6FF7303EA02231943818370475D
:1014A0000A460021018C4FF6FD7319401143018457
:1014B00070470A460021018C4FF6F773194011431B
:1014C000018470470A460021018C4FF6DF731940F2
:1014D0004FF6FF7303EA02131943018470470A466B
:1014E0000021018C4FF67F7319404FF6FF7303EA1A
:1014F00002131943018470470A460021018C4FF6FC
:10150000FF5319404FF6FF7303EA02231943018486
:1015100070470A460021018C4FF2FF7319404FF6C5
:10152000FF7303EA02231943018470470A4600212E
:10153000018C4DF6FF7319404FF6FF7303EA023337
:1015400019430184704730B5002301248C40A3B2B5
:10155000048C9C430484048C02FA01F5ADB22C4344
:10156000048430BD30B5002304248C40A3B2048C25
:101570009C430484048C02FA01F5ADB22C4304842C
:1015800030BD70B5034600200024184618300125F0
:101590008D40ACB21D8CA5431D8409B1082909D129
:1015A00000EB6100056825F07005056005681543CE
:1015B00005600EE00D1FC5F34E052844056825F4AF
:1015C000E045056005684FF6FF7606EA02263543DA
:1015D000056070BD21B1028842F00202028004E081
:1015E00002884FF6FD731A400280704721B10288CD
:1015F00042F00402028004E002884FF6FB731A40B6
:101600000280704721B1828842F08002828004E02B
:1016100082884FF67F731A408280704702884FF6A7
:10162000F7731A40028002880A430280704782885A
:101630004FF68F731A40828082880A4382807047F7
:1016400002894FF6F8731A40028102890A43028127
:10165000704702894FF67F731A40028102890A435C
:101660000281704781847047818570478186704709
:101670000187704781877047A0F840107047028843
:101680004FF6FF431A40028002880A4302807047E7
:101690000146888E70470146088F70470146888F43
:1016A00070470146B1F8400070470146888C70478A
:1016B0000146088D704702460020138A0B400BB18B
:1016C000012000E000207047CA430282704730B515
:1016D0000246002000230024158A05EA01039589AB
:1016E00005EA010413B10CB1012000E0002030BD77
:1016F000CA4302827047000010B50446FB4884428A
:1017000009D101218803FFF79FF800214FF48040A1
:10171000FFF79AF832E0F648844209D101214804E3
:10172000FFF79FF800214FF40030FFF79AF825E00B
:10173000F048844209D101218804FFF792F8002182
:101740004FF48020FFF78DF818E0EB48844209D170
:101750000121C804FFF785F800214FF40020FFF7AE
:1017600080F80BE0E548844208D101210805FFF725
:1017700078F800214FF48010FFF773F810BD2DE9C1
:10178000F04786B005460E460024A24600BFA1469B
:101790000027B08900B100BF2F462C8A4CF6FF709D
:1017A0000440F08804432C82AC894EF6F3100440C8
:1017B000B08831890843718908430443AC81AC8AFD
:1017C0004FF6FF400440B0890443AC8201A8FEF705
:1017D000B4FFC648874202D1DDF810A001E0DDF871
:1017E0000CA0A88900F4004040B10AEBCA0000EB4D
:1017F0000A1031684900B0FBF1F807E00AEBCA00B3
:1018000000EB0A1031688900B0FBF1F86420B8FBE6
:10181000F0F004012009642101FB1089A88900F47B
:10182000004040B1322000EBC900B0FBF1F000F005
:101830000700044308E0322000EB09106421B0FBEC
:10184000F1F000F00F0004432C8106B0BDE8F087F2
:101850004FF41651016000218180C18001810C216B
:10186000418100218181704710B502460020108A15
:101870004FF2FF0318400B884C8823438C88234386
:10188000CC8823431843108210BD00210180418081
:101890008180C180704721B1828942F400528281E7
:1018A00004E082894DF6FF731A4082817047F0B5DB
:1018B0000346002400260025002040F66A17B9429E
:1018C00000D100BF1846C1F3421401F01F060127E2
:1018D00007FA06F5012C01D10C3004E0022C01D1ED
:1018E000103000E014301AB107682F43076002E09F
:1018F0000768AF430760F0BD1AB1838A0B43838248
:1019000002E0838A8B4383827047028A4FF6F0732A
:101910001A400282028A0A430282704782894FF289
:10192000FF731A40828182890A438281704721B104
:10193000828942F00202828104E082894FF6FD73BF
:101940001A4082817047028A4FF6DF731A40028282
:10195000028A0A430282704721B1028A42F480421D
:10196000028204E0028A4BF6FF731A40028270473B
:10197000C1F308028280704701468888C0F30800DE
:101980007047818941F0010181817047028BD2B299
:101990000283028B42EA012202837047028B02F427
:1019A0007F420283028B0A430283704721B1828AFD
:1019B00042F02002828204E0828A4FF6DF731A40EE
:1019C0008282704721B1828A42F01002828204E052
:1019D000828A4FF6EF731A408282704721B1828A61
:1019E00042F00802828204E0828A4FF6F7731A40BE
:1019F0008282704721B1828942F40042828103E0F1
:101A00008289C2F30E028281704721B1828A42F438
:101A10000062828204E0828A4FF2FF731A4082825F
:101A20007047828A4FF6FB731A408282828A0A4389
:101A30008282704721B1828A42F00202828204E0EF
:101A4000828A4FF6FD731A40828270470246002058
:101A5000B1F5007F00D100BF13880B400BB101200E
:101A600000E00020704701F40072B2F5007F00D161
:101A700000BFCA430280704770B5024600240023AD
:101A80000025002040F66A16B14200D100BFC1F324
:101A9000421501F01F03012606FA03F3012D02D1BE
:101AA0009689334006E0022D02D1168A334001E0C8
:101AB000968A33400C12012606FA04F41688344044
:101AC00013B10CB1012000E0002070BD10B5002260
:101AD000002340F66A14A14200D100BF0A1201247B
:101AE0009440A3B2DC43048010BD000000380140E4
:101AF0000044004000480040004C004000500040BE
:101B000010B50446FA48844208D101214015FEF779
:101B10009BFE00216015FEF797FE17E0F548844212
:101B200008D101210015FEF78FFE00212015FEF7D8
:101B30008BFE0BE0F048844208D10121C803FEF778
:101B400083FE00214FF40040FEF77EFE10BD30B54D
:101B50000246002000235068E84C20400D790C68B4
:101B600044EA0524204350609068E54C2040D1E9C8
:101B700002542C434D7944EA450420439060D06AD6
:101B800020F470000C7C641EE4B2234340EA03504E
:101B9000D06230BD00210160017141718160C1607E
:101BA00001210174704721B1826842F00102826014
:101BB00003E0826822F001028260704721B18268EE
:101BC00042F48072826003E0826822F48072826054
:101BD000704710B50023CBB21AB144681C4344606F
:101BE00002E044689C43446010BD816841F00801F4
:101BF00081607047014600208A6802F008020AB13D
:101C0000012000E000207047816841F004018160FC
:101C10007047014600208A6802F004020AB10120E0
:101C200000E00020704721B1826842F4A002826087
:101C300003E0826822F4A00282607047014600201F
:101C40008A6802F480020AB1012000E00020704797
:101C500010B50A4600210023416821F46041531E5B
:101C600041EA4331416010BD21B1426842F4006253
:101C7000426003E0426822F4006242607047F0B5BF
:101C800004460D4600200021092D11DDE068A5F174
:101C90000A0606EB4607072606FA07F18843A5F170
:101CA0000A0606EB460603FA06F10843E0600CE07C
:101CB000206905EB4507072606FA07F1884305EB7F
:101CC000450603FA06F108432061072A0FDA606B24
:101CD000561E06EB86071F2606FA07F18843561E96
:101CE00006EB860605FA06F10843606322E00D2A3A
:101CF0000FDA206BD61F06EB86071F2606FA07F1C0
:101D00008843D61F06EB860605FA06F108432063D2
:101D100010E0E06AA2F10D0606EB86071F2606FA20
:101D200007F18843A2F10D0606EB860605FA06F1D7
:101D30000843E062F0BD21B1826842F48012826003
:101D400003E0826822F48012826070470146C86C0A
:101D500080B2704766484C300068704721B14268D5
:101D600042F48062426003E0426822F48062426092
:101D7000704721B1426842F48052426003E04268F9
:101D800022F48052426070470A460021816821F4A3
:101D9000E04111438160704721B1826842F4004202
:101DA000826003E0826822F400428260704721B1C1
:101DB000826842F40212826003E0826822F4021216
:101DC00082607047014600208A6802F400120AB15E
:101DD000012000E000207047F0B5044615460020C1
:101DE00000220026092911DDE068A1F10A0707EBAE
:101DF000470C072707FA0CF29043A1F10A0707EBFB
:101E0000470703FA07F21043E0600CE0206901EB9A
:101E1000410C072707FA0CF2904301EB410703FA44
:101E200007F210432061A06BC0F30156EF1C06F1CE
:101E3000010CA7EB0C0707EB870C1F2707FA0CF226
:101E40009043EF1C06F1010CA7EB0C0707EB87078B
:101E500001FA07F21043A063F0BD10B50A46002155
:101E60000023816B21F44011531E41EA0351816329
:101E700010BD08B5002300930090009B0B44009315
:101E8000009B1A6008BD08B5024600200090009231
:101E900001F12800009B184400900098006880B26F
:101EA00008BD0A4600214168164B194011434160A4
:101EB00070474162826270470A460021416821F002
:101EC0001F0111434160704740B109490831096859
:101ED00041F40001064A0832116007E00449083164
:101EE000096821F40001024A0832116070470000BD
:101EF0000024014000280140003C0140FFFEF0FFAB
:101F0000FDF7F1FFFFFD3FFF0246002013680B4085
:101F10000BB1012000E000207047CA430260704707
:101F200070B502460020002300240B125568CEB283
:101F300005EA060415681D4015B10CB1012000E04A
:101F4000002070BD00220A12D343036070470000D6
:101F500001460020FE4A106800F038000843106077
:101F60007047FB49096821F00801F94A11601146E0
:101F70000968014311607047F549096821F01001B3
:101F8000F34A116011460968014311607047F14836
:101F9000EF494860F04848607047EE48EC494860B7
:101FA000ED4848607047EA48006940F08000E84921
:101FB00008617047E648006940F08000E449086124
:101FC00070470420E249C96801F0010109B101200C
:101FD0000EE0DF49C96801F0040109B1022007E001
:101FE000DB49C96801F0100109B1032000E00420B9
:101FF000704700B502460423FFF7E3FF034603E002
:10200000FFF7DFFF0346521E012B01D1002AF7D153
:1020100002B90523184600BD30B5044604254FF427
:102020003020FFF7E6FF0546042D17D1C8480069A8
:1020300040F00200C649086108464461006940F06A
:10204000400008614FF43020FFF7D3FF0546C04839
:10205000006941F6FD710840BD490861284630BD60
:1020600010B504244FF43020FFF7C3FF0446042CBE
:1020700016D1B748006940F00400B5490861084628
:10208000006940F0400008614FF43020FFF7B1FFD5
:102090000446AF48006941F6FB710840AC4908614D
:1020A000204610BD00B502460423FFF78AFF034611
:1020B00003E0FFF786FF0346521E012B01D1002AE1
:1020C000F7D102B90523184600BD10B504244FF41A
:1020D0003020FFF7E7FF0446042C16D19C48006926
:1020E00040F004009A4908610846006940F0400049
:1020F00008614FF43020FFF7D5FF0446944800698B
:1021000041F6FB71084092490861204610BD00204D
:102110008F49C96901F0020109B1012000E00020E6
:10212000704730B5A5250424FFF7F1FF00B1002565
:102130004FF43020FFF75DFF0446042C3AD1854868
:1021400083498860844888600846006940F0200020
:1021500008610846006940F0400008614FF43020F3
:10216000FFF747FF0446042C1BD17948006941F66C
:10217000DF710840764908610846006940F01000A8
:10218000086176480580E002FFF733FF0446052C1E
:1021900010D06F48006941F6EF7108406C49086142
:1021A00008E0052C06D06A48006941F6EF71084046
:1021B00067490861204630BD78B506460C460425BF
:1021C00000200090E802FFF714FF0546042D24D1FB
:1021D0005F48006940F001005D4908613480E80211
:1021E000FFF707FF0546042D10D1B01C0090200C0E
:1021F00000990880E802FFF7FCFE05465448006994
:1022000041F6FE7108405249086106E050480069F5
:1022100041F6FE7108404E490861284678BD70B508
:1022200004460D460426F002FFF7E3FE0646042EA0
:1022300011D14748006940F00100454908612580F7
:10224000F002FFF7D6FE06464148006941F6FE71EE
:1022500008403F490861304670BD70B505460E46DE
:102260000424E002FFF7C5FE0446042C17D13948C8
:1022700037498860384888600846006940F0100097
:1022800008612E80E002FFF7B4FE0446052C06D05C
:102290002F48006941F6EF7108402D49086120463A
:1022A00070BD2DE9F04304464FF6FF763746B04641
:1022B000B1460425E443E6B2C4F30727C4F3074854
:1022C0004FEA1469E802FFF794FE0546042D49D150
:1022D00020481F498860204888600846006940F00F
:1022E00010000861FF2E06D01C4808300680E80266
:1022F000FFF77FFE0546042D08D1FF2F06D01748B3
:102300000A300780E802FFF774FE0546042D0AD163
:10231000B8F1FF0F07D011480C30A0F80080E80298
:10232000FFF767FE0546042D0AD1B9F1FF0F07D06C
:102330000A480E30A0F80090E802FFF75AFE054662
:10234000052D0FD00248006941F6EF71084007E003
:102350000020024023016745AB89EFCD00F8FF1F45
:10236000664908612846BDE8F08330B50546042477
:102370004FF43020FFF73DFE0446042C41D1604865
:102380005E4988605F4888600846006940F0200028
:1023900008610846006940F0400008614FF43020B1
:1023A000FFF727FE0446042C22D15448006941F669
:1023B000DF710840514908610846006940F010008B
:1023C00008611DB100205049088002E0A5204E4957
:1023D00008804FF43020FFF70CFE0446052C10D087
:1023E0004648006941F6EF7108404449086108E039
:1023F000052C06D04148006941F6DF7108403F498D
:102400000861204630BDF0B505460E461746042447
:102410003B483A4988603B488860E002FFF7E9FDA5
:102420000446042C19D13548006940F010003349A6
:10243000086147F0F800304328433349891C08807D
:10244000E002FFF7D6FD0446052C06D02B480069B4
:1024500041F6EF710840294908612046F0BD274840
:10246000C069800870472548006A704700202349EA
:10247000096801F0200109B1012000E00020704747
:1024800029B11E4A126902431C4B1A6104E01B4A1F
:1024900012698243194B1A617047014600200129D5
:1024A00008D1164AD26902F001020AB1012008E0FF
:1024B000002006E0114AD2680A400AB1012000E07B
:1024C000002070470D49C860704704200B49C96857
:1024D00001F0010109B101200EE00849C96801F0CD
:1024E000040109B1022007E00449C96801F01001A4
:1024F00009B1032000E004207047000000200240E2
:1025000023016745AB89EFCD00F8FF1F0CB5002014
:10251000019000906C48006840F480306A4908607F
:1025200000BF6948006800F4003000900198401C2A
:102530000190009818B90198B0F5A06FF1D16248E8
:10254000006800F4003010B10120009001E000208C
:1025500000900098012843D15C48006840F01000CA
:102560005A4908600846006820F0030008600846E1
:10257000006840F0020008605348406852494860D3
:102580000846406848600846406840F480604860FB
:102590000846406820F47C1048600846406840F4D3
:1025A000E81048600846006840F08070086000BF8E
:1025B0004548006800F000700028F9D042484068A3
:1025C00020F00300404948600846406840F002009F
:1025D000486000BF3C48406800F00C000828F9D172
:1025E0000CBD10B5FFF792FF10BD10B5364800685E
:1025F00040F001003449086008464068344908400A
:102600003149486008460068324908402E49086050
:102610000846006820F4802008600846406820F4DE
:10262000FE0048604FF41F008860FFF7DAFF4FF0AC
:1026300000602949086010BD10B50021002000226B
:10264000214B5B6803F00C0121B1042906D0082955
:1026500028D107E0214B224C236027E01F4B204C60
:10266000236023E0184B5B6803F47010164B5B6823
:1026700003F48032022303EB904022B9194B434309
:10268000174C23600DE0104B5B6803F4003323B15B
:10269000144B4343124C236003E0104B4343104C54
:1026A000236003E00D4B0E4C236000BF00BF064BC0
:1026B0005B68C3F303130C4CE15C094B1B68CB4014
:1026C000074C236010BD00000010024000200240B3
:1026D0000000FFF8FFFFF6FE08ED00E000127A00B0
:1026E0001400002000093D00180000200648804723
:1026F00006480047FEE7FEE7FEE7FEE7FEE7FEE7E7
:10270000FEE7FEE7FEE7FEE7EB250008ED00000828
:1027100010B501210846FEF77DF801214548FDF777
:102720008EFE10BD08B501210820FEF773F84FF4A6
:102730008050ADF8000010208DF8030003208DF8C4
:10274000020069463C48FDF7A9FD08BD10B53B48AD
:10275000007838B901203949087001033648FDF77F
:102760004AFE07E00020354908704FF48051324896
:10277000FDF743FE10BD324A002105E012F8013B8F
:1027800000F8013B4B1CD9B20C29F7DB704710B5A0
:1027900088B06846FFF7EFFF0C21684601F05AFB4E
:1027A0000446224627A1684603F0C0FC684600F0B4
:1027B00056FC642001F041FB08B010BD10B5FFF7D6
:1027C000A7FF00F001FB00F06BFB002000F0A1FB75
:1027D00000F03AFE00F0D8FF00F0DEFF01F03BF819
:1027E00000F062FD01F0A6F800F058FA142001F0A4
:1027F00024FB00F03FF8FFF795FF00F00CFF01F01D
:10280000DAF84FF4FA7001F018FB14A000F027FC7E
:10281000142001F012FB14A000F021FC012000F0B4
:1028200078FB142001F009FBFFF7B1FF0EA000F0C8
:1028300016FC10BD00023000000C014028000020F2
:10284000E8F7FF1F41542B4E414D454D69616F77AD
:102850004C6162732D253034580D0A0041542B42CF
:10286000415544380D0A000041542B5245534554FC
:102870000D0A00001CB53BA103C9CDE900016B4660
:1028800001226B21682000F0B6FD0DF10103012249
:102890001921682000F0AFFD0DF1020301221A2179
:1028A000682000F0A8FD0DF1030301221B21682020
:1028B00000F0A1FD01AB01221C21682000F09BFD6E
:1028C0001CBD38B504466B4602222146682000F044
:1028D000A5FD9DF801009DF8001000EB012000B25D
:1028E00038BD70B50446002524B93B20FFF7E9FF49
:1028F00005460CE0012C04D13D20FFF7E2FF054620
:1029000005E0022C03D13F20FFF7DBFF05462846F8
:1029100070BD70B50446002524B94320FFF7D1FFF0
:1029200005460CE0012C04D14520FFF7CAFF0546FF
:1029300005E0022C03D14720FFF7C3FF05462846D8
:1029400070BD10B50020FFF7E4FF084908800120A2
:10295000FFF7C7FF064908800220FFF7C2FF0549BD
:10296000088010BD00070418010000002A000020A4
:102970002C0000202E00002008B501210820FDF7C2
:1029800049FF01211020FDF745FF4FF46040ADF8ED
:10299000000010208DF8030003208DF80200694626
:1029A000FE48FDF77BFC4FF40050ADF8000069468F
:1029B000FB48FDF773FC08BD70B504460E462EB10A
:1029C0004FF40051F648FDF716FD04E04FF40051B6
:1029D000F348FDF712FD00251BE04FF40041EF48DE
:1029E000FDF70BFD04F0800028B14FF48041EB4867
:1029F000FDF701FD04E04FF48041E848FDF7FDFCE0
:102A00004FF40041E548FDF7F6FC6006040E681C33
:102A1000C5B2082DE1DB4FF40051E148FDF7EBFCB6
:102A200070BD70B504460D4605F1B001C8B2002175
:102A3000FFF7C2FF102141EA14100021FFF7BCFF8D
:102A400004F00F0141F001000021FFF7B5FF70BD58
:102A500010B500218D20FFF7AFFF00211420FFF7F4
:102A6000ABFF0021AF20FFF7A7FF10BD10B500217D
:102A70008D20FFF7A1FF00211020FFF79DFF00210F
:102A8000AE20FFF799FF10BD70B5002419E004F1E6
:102A9000B001C8B20021FFF78FFF00210846FFF701
:102AA0008BFF00211020FFF787FF002505E00121A3
:102AB0000020FFF781FF681CC5B2802DF7DB601C8A
:102AC000C4B2082CE3DB70BD2DE9F04106460C468C
:102AD00017464FF000080025A7F1200000F0FF087E
:102AE0007F2E02DD0026A01CC4B2601CC1B230469D
:102AF000FFF797FF00250AE008EB4801A94A02EB1F
:102B00004101485D0121FFF757FF681CC5B2062D42
:102B1000F2DBBDE8F0812DE9F04104460F46154691
:102B200000260DE0AA5D39462046FFF7CDFFA01D27
:102B3000C4B2782C02DD0024B81CC7B2701CC6B227
:102B4000A85D0028EED1BDE8F0812DE9F041804676
:102B50000E461546002731464046FFF762FF002427
:102B60000AE0914A02EB8511085D0121FFF724FF7D
:102B7000781CC7B2601CC4B2102CF2DB701CC1B24E
:102B80004046FFF74EFF00240CE06900491C864ACE
:102B900002EB4111085D0121FFF70EFF781CC7B25F
:102BA000601CC4B2102CF0DBBDE8F0812DE9F05FB1
:102BB00006460F4690461C46DDF828A04FF0000B55
:102BC000E11704EB5171C910A4EBC10131B92046E2
:102BD000E11704EB5171C1F3C70506E02046E11788
:102BE00004EB5171C910491CCDB23D4615E0294690
:102BF0003046FFF716FFB1460BE059460BF1010BCB
:102C00001AF801000121FFF7D7FE09F1010000F0D9
:102C1000FF09C145F1DB681CC5B2A542E7DBBDE891
:102C2000F09F2DE9F05F06460F4690461C46DDF802
:102C300028A04FF0000BE11704EB5171C910A4EB71
:102C4000C10131B92046E11704EB5171C1F3C70549
:102C500006E02046E11704EB5171C910491CCDB2C2
:102C60003D4617E029463046FFF7DBFEB1460DE052
:102C700059460BF1010B1AF80110C943C8B20121E2
:102C8000FFF79AFE09F1010000F0FF09C145EFDBF3
:102C9000681CC5B2A542E5DBBDE8F09F10B5FFF7A3
:102CA0006BFE4FF400513D48FDF7A7FB642001F097
:102CB000C4F84FF400513948FDF79DFB0021AE20C8
:102CC000FFF77AFE00210846FFF776FE002110206C
:102CD000FFF772FE00214020FFF76EFE00218120E9
:102CE000FFF76AFE0021CF20FFF766FE0021A1203A
:102CF000FFF762FE0021C820FFF75EFE0021A6203C
:102D0000FFF75AFE0021A820FFF756FE00213F20C2
:102D1000FFF752FE0021D320FFF74EFE00210846A8
:102D2000FFF74AFE0021D520FFF746FE0021802054
:102D3000FFF742FE0021D920FFF73EFE0021F120DF
:102D4000FFF73AFE0021DA20FFF736FE00211220BD
:102D5000FFF732FE0021DB20FFF72EFE002140208E
:102D6000FFF72AFE00212020FFF726FE0021022087
:102D7000FFF722FE00218D20FFF71EFE0021142008
:102D8000FFF71AFE0021A420FFF716FE0021A6205F
:102D9000FFF712FE0021AF2008E00000000C014008
:102DA00000100140066F000830000020FFF704FE0D
:102DB0000021AF20FFF700FEFFF766FE0021084666
:102DC000FFF72FFE10BD000000B587B001214FF4C2
:102DD0000170FDF71FFD4FF40040FDF77FFC202040
:102DE000ADF8040000208DF8070001A92848FDF780
:102DF00055FA002002908DF80C0001208DF80D008E
:102E00004FF4602004900020059005208DF81800F4
:102E100002A92048FEF79BFE0523012219461D4802
:102E2000FEF72DFF01211B48FEF7BDFE1948FEF7F6
:102E3000DCFE00BF1748FEF7DDFE0028FAD115487A
:102E4000FEF7E2FE00BF1348FEF7E3FE0028FAD1CA
:102E500001211048FEF7E7FE07B000BD2DE9F0475D
:102E60000024A1460B48FEF771FF8146484602F058
:102E7000B9FC0746084A094B02F0B9FB054602F0C7
:102E800067FD0446204602F0D3FC80B2BDE8F0871F
:102E90000008014000240140C7BAB88D06F0DE3FAB
:102EA00000B585B0012144F20400FDF7B3FC4FF4F6
:102EB0000070ADF8100018208DF8130003208DF875
:102EC000120004A96E48FDF7E9F94FF48060ADF8EF
:102ED000100004208DF8130004A96948FDF7DEF9FD
:102EE0004FF4E13000900020ADF80400ADF806008A
:102EF000ADF80800ADF80C000C20ADF80A006946EA
:102F00006048FEF73CFC01215E48FEF7C4FC05B0BA
:102F100000BD10B586B0044601218804FDF787FC8A
:102F200001210820FDF776FC4FF48060ADF8140015
:102F300018208DF8170003208DF8160005A95248B7
:102F4000FDF7ACF94FF40060ADF8140004208DF8E3
:102F5000170005A94C48FDF7A1F91CB94FF416500C
:102F6000019004E0012C02D14FF4E13001900020E7
:102F7000ADF80800ADF80A00ADF80C00ADF810008F
:102F80000C20ADF80E0001A94048FEF7F8FB012225
:102F900040F225513D48FEF78AFC01213B48FEF7EF
:102FA0007AFC4FF4A060FDF7ABF827208DF8000005
:102FB00000208DF8010004208DF8020001208DF81A
:102FC00003006846FDF7A1F806B010BD10B5044631
:102FD00021462C48FEF7CCFC00BF40212948FEF7D3
:102FE00035FD0128F9D110BD70B504460D46002607
:102FF00005E014F8010BFFF7E9FF701C86B2AE4242
:10300000F7DB70BD70B50446204602F057F986B272
:10301000002505E014F8010BFFF7D8FF681C85B206
:10302000B542F7DB70BD10B5044621461748FEF7E0
:103030009FFC00BF40211548FEF708FD0128F9D18B
:1030400010BD70B504460D46002605E014F8010BCE
:10305000FFF7E9FF701C86B2AE42F7DB70BD70B5BA
:103060000446204602F02AF986B2002505E014F84D
:10307000010BFFF7D8FF681C85B2B542F7DB70BDC6
:103080000008014000380140000C014000480040A9
:1030900008B50720009002E00098401E00900098BC
:1030A0000028F9D108BD10B54FF40070E54908605B
:1030B00040100860FFF7ECFFE2480838006808B9E4
:1030C000012000E0002000F4007008B1002010BDD5
:1030D0004FF40070DB49091D0860FFF7D9FFD9489C
:1030E0000838006800F4007008B10020EFE74FF4E2
:1030F0000070D449091D0860FFF7CAFF0120E6E708
:1031000010B54FF48070CF49091D0860FFF7C0FF6C
:103110004FF40070CB49091D0860FFF7B9FF4FF469
:103120008070C8490860FFF7B3FF4FF40070C549CD
:103130000860FFF7ADFF10BD10B54FF48070C149B6
:10314000091D0860FFF7A4FF4FF40070BD49091D79
:103150000860FFF79DFF4FF48070BA490860FFF7E1
:1031600097FF4FF48070B749091D0860FFF790FF83
:1031700010BD10B54FF48070B249091D0860FFF70B
:1031800087FF4FF40070AF490860FFF781FF4FF4ED
:103190008070AC490860FFF77BFF4FF48070A9494D
:1031A000091D0860FFF774FF10BD10B54FF4807063
:1031B000A449091D0860FFF76BFF4FF40070A14997
:1031C0000860FFF765FF4FF480709E490860FFF7C5
:1031D0005FFF9C480838006800F4007030B14FF47D
:1031E00080709849091D0860002010BD4FF4807060
:1031F0009449091D08600120F7E770B504460825C9
:103200001DE04FF480708F49091D0860FFF740FFF3
:1032100004F0800020B14FF400708A49086004E097
:103220004FF400708749091D08606006040EFFF71F
:103230002FFF4FF4807083490860FFF729FF281E95
:10324000A5F10101CDB2DCD14FF480707D49091D9B
:10325000086070BD70B508250024A8017949086090
:1032600016E06006040E4FF480707649091D086070
:10327000FFF70EFF4FF4807072490860FFF708FFF8
:1032800070480838006800F4007008B144F0010488
:10329000281EA5F10101CDB2E3D14FF48070694938
:1032A000091D0860204670BD08B501210820FDF702
:1032B000B1FA4FF44070ADF8000002208DF8020022
:1032C00014208DF8030069465E481038FCF7E6FFCD
:1032D00008BD70B504460D461646FFF7E4FE08B972
:1032E000002070BD002141EA4401C8B2FFF785FF0C
:1032F000FFF75BFF18B9FFF703FF0020F1E728464F
:10330000FFF77BFFFFF751FF3046FFF776FFFFF730
:103310004CFFFFF7F5FE0120E3E72DE9F0410546FC
:103320000E4617469846FFF7BEFE10B90020BDE8CE
:10333000F081002141EA4501C8B2FFF75EFFFFF7C7
:1033400034FF18B9FFF7DCFE0020F0E73046FFF746
:1033500054FFFFF72AFF00240BE018F80400FFF7E2
:103360004CFFFFF722FF18B9FFF7CAFE0020DEE787
:10337000641CBC42F1DBFFF7C3FE0120D7E72DE957
:10338000F04105460F4614461E46FFF78CFE10B965
:103390000020BDE8F081002141EA4501C8B2FFF7F5
:1033A0002CFFFFF702FF18B9FFF7AAFE0020F0E795
:1033B0003846FFF722FFFFF7F8FEFFF774FE012102
:1033C00001EB4501C8B2FFF718FFFFF7EEFE0CE076
:1033D000FFF740FF3070012C02D1FFF7CAFE01E079
:1033E000FFF7AAFE761C601EC4B2002CF0D1FFF7D6
:1033F00087FE0120CDE72DE9F04104460D46164633
:103400001F463B46324629462046FFF786FF10B14D
:103410000020BDE8F0814FF0FF30FAE72DE9F041E0
:1034200004460D4616461F463B4632462946204670
:10343000FFF7A5FF10B10020BDE8F0814FF0FF308D
:10344000FAE70000100C014000B589B00121C80264
:10345000FDF7E0F901210420FDF7DCF94FF40060ED
:10346000ADF8140048208DF8170005A97748FCF73F
:1034700015FF0420ADF8140010208DF8170002206D
:103480008DF8160005A97148FCF708FF4FF6FF708C
:10349000ADF80C004720ADF808000020ADF80E0094
:1034A000ADF80A0002A96A48FDF7ECFA0C20ADF865
:1034B00018000020ADF81A000120ADF81C00002013
:1034C000ADF81E00ADF8200006A96148FDF76DFDBE
:1034D0001B208DF8040002208DF8050000208DF8D7
:1034E000060001208DF8070001A8FCF70EFE01225E
:1034F00011215748FDF73DFE01215548FDF71EFEFD
:1035000009B000BD10B504215048FCF774FF142029
:1035100000F086FC04214D48FCF76FFF4D48007811
:1035200000F08000E8B14B48007800F03F004A49C5
:10353000086008460088000408600846006847499B
:10354000096808444449086008460068AA214843BD
:1035500042F2107190FBF1F03F49086000203D49B4
:10356000086010BD10B53B48007800F080000028CE
:103570004CD101213648FEF7AAF8D0B13548007881
:1035800000F04000A8B13348007800F03F003F2829
:103590000AD13048006840F080002E4908604FF69C
:1035A000FF702E49086004E02A480068401C294941
:1035B000086010212648FEF78AF838B325480078BD
:1035C00000F0400078B12348006840F080002149B5
:1035D00008601F48FEF765F82049086000211C4874
:1035E000FDF7A4FF12E000201A4908601B4908609B
:1035F00000211748FEF736F81648006840F04000F2
:103600001449086002211248FDF790FF112110486B
:10361000FEF76EF810BD10B54FF47A7000F00DFC97
:103620004FF400610948FCF7CCFE58B9322000F095
:1036300004FC4FF400610548FCF7C3FE10B90120FB
:103640000749086010BD064800687047000801403F
:10365000002C0140F4020020FC020020F8020020AF
:103660000003002008B501210420FDF7D3F8012153
:103670000820FDF7CFF81820ADF8000010208DF8D5
:10368000030003208DF802006946A648FCF706FEF9
:103690000320ADF800006946A348FCF7FFFD1821A0
:1036A000A048FCF7A8FE03219F48FCF7A4FE08BD34
:1036B00008B501210220FDF7BAF801210420FDF729
:1036C000A9F801210820FDF7A5F8C020ADF80000F9
:1036D00018208DF8030003208DF8020069469148F8
:1036E000FCF7DCFD08BDF0B587B0002700240025FD
:1036F000002640F2E730ADF814000320ADF81000CA
:103700000020ADF81600ADF8120004A98748FDF7B7
:10371000B9F96020ADF800000120ADF80200ADF865
:1037200006700020ADF8080069468048FDF7E7F90B
:1037300008217E48FDF732FEADF8064069467B4819
:10374000FDF71FFA08217948FDF731FEADF8065064
:1037500069467648FDF762FA08217448FDF734FEA1
:10376000ADF8066069467148FDF7A3FA08216F4875
:10377000FDF733FE01216D48FDF7E0FD01216B48A7
:10378000FDF7DCFC07B0F0BD10B5FFF76BFFFFF7EE
:103790008FFFFFF7A8FF10BD00B589B001210846D3
:1037A000FDF745F801210420FDF734F802A8FCF7E5
:1037B00000FE0320ADF8080004208DF80B0002A9DC
:1037C0005848FCF76BFD1C208DF8040000208DF894
:1037D000050003208DF8060001208DF8070001A8E0
:1037E000FCF793FC4FF08040FDF778F806A8FDF752
:1037F00075FC0020ADF818004FF6FF70ADF81C0006
:103800000020ADF81E00ADF81A0006A94FF0804068
:10381000FDF738F900231A4603214FF08040FDF7E9
:1038200040FD03A8FDF76DFC0620ADF8140003A9C8
:103830004FF08040FDF7B9FB01218807FDF744FFF9
:10384000012211469007FDF794FC01218807FDF73E
:1038500075FC09B000BD00B589B001210420FCF75A
:10386000E6FF01210820FCF7D5FF02A8FCF7A1FD27
:10387000C020ADF8080004208DF80B0002A92A48EA
:10388000FCF70CFD1E208DF8040000208DF80500CB
:1038900002208DF8060001208DF8070001A8FCF732
:1038A00034FC2348FDF71AF806A8FDF717FC0020A2
:1038B000ADF818004FF6FF70ADF81C000020ADF811
:1038C0001E00ADF81A0006A91948FDF7DBF8002321
:1038D0001A4603211648FDF7E4FC03A8FDF711FC86
:1038E0000620ADF8140003A91148FDF75EFB012185
:1038F0000F48FDF7E9FE012211460D48FDF739FC9E
:1039000001210B48FDF71AFC09B000BD10B50121DB
:103910008807FDF7D9FE10BD10B501210448FDF759
:10392000D3FE10BD00080140000C0140000400401F
:103930000008004008B501210420FCF76BFF0121BD
:103940000820FCF767FF48208DF803004FF4014082
:10395000ADF8000069463048FCF7A0FC2820ADF81F
:10396000000069462D48FCF799FC08BD10B50024FD
:1039700008212A48FCF725FD10B144F0040418E0A2
:1039800020212648FCF71DFD10B144F0010410E091
:103990004FF400412048FCF714FD10B144F010042E
:1039A00007E04FF480711C48FCF70BFD08B144F0B0
:1039B0004004204610BD10B5002420211748FCF714
:1039C00000FD012801D1601CC4B208211348FCF796
:1039D000F8FC012801D1601CC4B24FF400410E482C
:1039E000FCF7EFFC012801D1601CC4B24FF48071D8
:1039F0000948FCF7E6FC012801D1601CC4B2042C84
:103A000002D101200649087010BD0548007808B9A8
:103A1000012070470020FCE700080140000C014035
:103A20000403002000200DE0244931F81010002983
:103A300006DD224931F81010491E204A22F81010E4
:103A4000411CC8B20528EFDB704770B5FEF7F4FDE6
:103A50001B4800684FF47A72B0FBF2F1B1F1807F3D
:103A600001D301201DE021F07F40401E4FF0E022F5
:103A7000506150170F22002807DA13071D0E114B53
:103A800000F00F04241F1D5503E013071C0E0E4BFE
:103A90001C5400BF00204FF0E0229061072010610D
:103AA000002008B100BFFEE74FF0E020006940F0C1
:103AB00001004FF0E021086170BD000030080020D7
:103AC0001400002018ED00E000E400E030B58BB0F9
:103AD00000200790089009900A90039004900590A8
:103AE0000690009001900290002500240FE05049BC
:103AF00051F8240001F083FE07A941F8240007A82B
:103B000050F8240003A941F82400601CC4B2042C1E
:103B1000EDDB002410E003A810F824000DF81400D9
:103B200003A830F82400C0F30720012101EB440171
:103B30000DF80100601CC4B2042CECDB08216846BF
:103B400000F0B4F905462846E91705EB11610912A2
:103B5000A5EB0121C9B28DF80810E91705EB116139
:103B6000090A8DF809100A216846FFF73DFA0BB0E3
:103B700030BD30B58BB0002400252D49086801F018
:103B80003EFE00B2ADF824002949486801F037FE36
:103B900000B2ADF826002649886801F030FE00B278
:103BA000ADF82800AA222146641C01A842545522DF
:103BB0002146641C425401222146641C42540622C0
:103BC0002146641C425400BF13E009A830F81500D8
:103BD000C0F307222046611CCCB201A90A5409A8EF
:103BE00010F815202046611CCCB201A90A54681CAB
:103BF000C5B2032DE9DB214601A800F049F92146B1
:103C0000621CD4B201AA5054214601A8FFF7ECF976
:103C10000BB030BD10B5074800680549086006487C
:103C200000684860054800688860FFF7A2FF10BD83
:103C30003C08002084030020800300207C03002037
:103C400010B53048008800B110BD4FF47A702D498E
:103C500008802D480088401C2B490880FFF7FEF89B
:103C60002A4908802A48007808B100F0C3F9FEF715
:103C70006DFD00BFE8E7FEF7A1FD01F095F900F04A
:103C8000CDFBFFF7E2FEFFF7C0FE10B10120214996
:103C9000086001F0EFF933E0FFF7D2FF19484088E0
:103CA00048B914201749488000F01EF9FFF7B2FF09
:103CB000194800F0B1F91348808808BB1420114955
:103CC000888001F0E7F9FFF71DFC1448007803280D
:103CD00005D1FFF7B8FC10B1002001F04FF80F48F4
:103CE0000078042806D1FFF7AEFC48B1012001F0AE
:103CF00045F805E009480078022801D101F084F870
:103D0000CAE7000030080020A2070020A407002016
:103D10000503002010030020B0070020A6070020A4
:103D2000704700BFFEE700BFFEE700BFFEE700BF31
:103D3000FEE7704770477047704710B5FFF772FE97
:103D400031480078401C3049087030480078401CE9
:103D50002E49087000F00BFF2B480078052805DB82
:103D600000202949087000F030FD2CE0264800783A
:103D7000012804D1FEF7E5FD00F0B7FD23E022485D
:103D80000078022802D100F035FE1CE01E480078C1
:103D9000032810D11E480078401C1D4908700846B1
:103DA000007805280FDB00F04EFE0020184908704F
:103DB0001649087007E014480078042803D100F081
:103DC000FCFB00F079FC10BD10B540F22551114804
:103DD000FDF752FEB8B110480078802802DB0020C1
:103DE0000D4908700B48FDF7C7FDC1B20A480278BB
:103DF0000078401C084B18700848815440F2255147
:103E00000448FDF763FE10BD080300200A030020EC
:103E10000903002000480040F0020020B007002005
:103E2000014605E0002001E0421CD0B20A28FBDB7D
:103E30000A1EA1F10101F5D1704710B5044603E057
:103E40004FF47A70FFF7ECFF201EA4F10104F7D1C4
:103E500010BD704730B502460023002000BF04E0CB
:103E600012F8014B60405C1CE3B28B42F8DB30BDC2
:103E7000F0B505460E461446002731462846FFF7A2
:103E8000E9FF0746A74201D10120F0BD0020FCE771
:103E900030B502460020002305E012F8015B2C1823
:103EA000E0B25C1CE3B28B42F7DB30BD30B50246BA
:103EB0000B464FF6FF70002112E0555C684000246D
:103EC0000AE000F0010525B14AF2010585EA60002B
:103ED00000E04010651CECB2082CF2DB4D1CE9B28E
:103EE0009942EADB30BD00002DE9F0478CB0FA4979
:103EF000FA48006801F00CFA824601F0E5FC04463D
:103F00000D46F549F648006801F002FA824601F0D4
:103F1000DBFC06460F46F049F248006801F0F8F96C
:103F2000824601F0D1FC804642460B46EEA104A831
:103F3000CDE90067CDE9024502F0F8F804A8FFF7E3
:103F40008EF80CB0BDE8F0872DE9F0478CB08246C2
:103F5000BAF1000F1BD1E949886801F0B5FC0446AD
:103F60000D46E649486801F0AFFC06460F46E349B6
:103F7000086801F0A9FC804642460B46E0A104A86F
:103F8000CDE90067CDE9024502F0D0F81DE0BAF1B5
:103F9000010F1AD1DF49886801F096FC04460D46EE
:103FA000DC49486801F090FC06460F46D94908688C
:103FB00001F08AFC804642460B46D7A104A8CDE911
:103FC0000067CDE9024502F0B1F804A8FFF747F811
:103FD0000CB0BDE8F08700B589B0D448D44BD54AC1
:103FE000D5A1009001A802F0A1F801A8FFF737F8C9
:103FF00009B000BD00B589B0D348008800EB80004F
:104000004200D2480388D2A101A802F08FF801A88B
:10401000FFF725F809B000BD2DE9FC5F06463446E0
:10402000E0E12078232877D1CCA1601C01F04EF983
:10403000009002F053FF074601F02DFCC5B2002DA1
:104040006ADD642D68DA0A2D14DA6119081DC4A12D
:1040500001F03CF9009002F041FF074601F01BFC23
:1040600000F0FF094A462946E01CFFF701FF82469F
:10407000E41C13E06119481DB9A101F027F9009073
:1040800002F02CFF074601F006FC00F0FF094A464B
:104090002946201DFFF7ECFE8246241DBAF1000FD1
:1040A0003AD0B0480078012865D1AFA1204601F090
:1040B000F3F820B10021084600F0C4FD5BE0ABA19D
:1040C000204601F0E9F840B3A4A1204601F0FEF833
:1040D000A2A1002001F0FAF8009002F0FFFE0746CE
:1040E00001F036FC8346A2A1002001F0EFF8009019
:1040F00002F0F4FE074601F02BFC01909D49019867
:1041000001F05EF907469B49584601F059F980468F
:10411000394600F097FD2EE063E1FFE796A12046C7
:1041200001F0BAF838B38DA1204601F0CFF88BA189
:10413000002001F0CBF8009002F0D0FE074601F01D
:1041400007FC83468AA1002001F0C0F8009002F02D
:10415000C5FE074601F0FCFB01904FF08041584638
:1041600001F060F907468549019801F05BF9804646
:10417000394600F067FD82A1204601F08DF818B1A4
:104180000120784908702CE17EA1204601F084F8D6
:1041900018B103207349087023E17BA1204601F088
:1041A0007BF838B104206F4908707449002000F092
:1041B00049FD16E175A1204601F06EF818B1022004
:1041C000684908700DE172A1204601F065F870B3EE
:1041D00062A1204601F07AF860A1002001F076F893
:1041E000009002F07BFE074601F0B2FB43490860F5
:1041F0005AA1002001F06AF8009002F06FFE074615
:1042000001F0A6FB3D49486059A1002001F05EF88D
:10421000009002F063FE074601F09AFB3749886080
:10422000002000F0E8FE0020FFF78EFED9E0FFE757
:1042300058A1204601F030F870B348A1204601F0A3
:1042400045F846A1002001F041F8009002F046FE3A
:10425000074601F07DFB2F49086040A1002001F0D6
:1042600035F8009002F03AFE074601F071FB29494B
:1042700048603FA1002001F029F8009002F02EFED6
:10428000074601F065FB23498860012000F0B3FE7A
:104290000120FFF759FEA4E03FA1204600F0FCFFFB
:1042A00018B10020FFF750FE9BE03CA1204600F033
:1042B000F3FF18B10120FFF747FE92E038A1204636
:1042C00000F0EAFF30B1002000F0B0FE0020FFF760
:1042D0003BFE86E066E00000000034437C030020E3
:1042E0008003002084030020562C252E30662C25C8
:1042F0002E30662C252E30660D0A0000500300205B
:1043000041502C252E32662C252E32662C252E323D
:10431000660D0A005C03002053502C252E32662CBB
:10432000252E32662C252E32660D0A0028770008CD
:10433000237700081E770008492C25732C25732C41
:1043400025730D0A00000000A4070020A20700202A
:10435000522C25642C25640D0A0000002C0000005E
:104360003B000000A607002043530000434A000022
:104370002A00000000002041434D00000000A04042
:10438000534E4B005355460053554100534954007A
:104390005341500053535000474150004753500081
:1043A0005241000017A1204600F076FF30B10120F5
:1043B00000F03CFE0120FFF7C7FD12E012A12046ED
:1043C00000F06AFF28B1012010490870FFF703FED2
:1043D00007E00FA1204600F05FFF10B100200B495D
:1043E0000870641CA01B0B4909788842FFF619AEBF
:1043F0000020084908708021074800F042FFBDE80E
:10440000FC9F0000525600005242000005030020AD
:1044100052530000F0020020B00700200020FE49A7
:104420000880FE490880FE490860FE490860FE4990
:104430000860FE490860FE490860FE490860FE49C0
:104440000860FE490860FE490860FE490860FE49B0
:104450000860FE490860FE490860FE490860FE49A0
:104460000860FE490860FE490860FE490860FE4990
:104470000860FE490870FE490870FE4908707047E0
:1044800070B504460D460021FB48006801F07CFA37
:1044900034D11E2C0DDD1E2D0BDDF849E7480068D8
:1044A00001F07CFA05D2F649E448006801F06CFAA4
:1044B00011D314F11E0F1DDA15F11E0F1ADAEF4990
:1044C000DE48006801F06AFA14D2ED49DB48006862
:1044D00001F05AFA0ED2EB480088401CE9490880E6
:1044E0000846008832280CDD002008800120E649BB
:1044F000086006E00020E349088002E00020E1496E
:10450000088070BD70B5E048006800B970BDDF4933
:10451000CA48006801F042FA48D2DD49C74800683D
:1045200001F032FA42D2DB480088401CD9490880A9
:104530000846008832283EDB00200880D648016803
:10454000BE48006800F036FF064601F0BDF904469B
:10455000D24AD34B01F0CCF920D2CF480168B748FA
:10456000006800F027FF064601F0AEF90446CB4A8A
:10457000CC4B01F0D5F911D2CB480088401CCA4978
:1045800008800846008804280BDB00200880C14909
:104590000880A9490860BC49086002E00020C249BF
:1045A0000880A6480068BC49086004E00020B949BA
:1045B0000880BD49088000BFA8E710B59648B0F94B
:1045C00000109648B0F90000FFF75AFFFFF79AFF76
:1045D000AD48006830B1B548007840F00200B349FA
:1045E000087005E0B148007820F00200AF4908707B
:1045F000A3499248006801F0D1F905D39F498F483B
:10460000006801F0C1F906D2A848007840F0040023
:10461000A649087005E0A548007820F00400A349E9
:10462000087010BD70B504460D46002C09DA08214B
:104630009F48FBF7E0FE10219D48FBF7DEFE644239
:1046400007E010219A48FBF7D6FE08219848FBF7AF
:10465000D4FE002D09DA01219648FBF7CCFE022199
:104660009448FBF7CAFE6D4207E002219148FBF730
:10467000C2FE01218F48FBF7C0FEB5F57A7F01DB52
:1046800040F2E735B4F57A7F01DB40F2E734874842
:10469000007840B100218848FCF7E8FF00218648F7
:1046A000FCF7E6FF07E0A9B28348FCF7DFFFA1B201
:1046B0008148FCF7DDFF70BD70B56448016864484F
:1046C000006800F077FE044664480168204600F068
:1046D00071FE614908605D4801685D48006800F04E
:1046E00069FE04465D480168204600F011FE594904
:1046F00008605948006801F082F8002807DD0021B1
:104700005548006800F004FE534908600CE0524828
:10471000006801F074F8002806DA00214E480068AD
:1047200000F048FE4C4908604A48006801F067F80C
:10473000002807DD00214748006800F0E9FD4549F1
:1047400008600CE04348006801F059F8002806DAD8
:1047500000214048006800F02DFE3E4908603E48B8
:10476000006801F04CF8B0F57A7F02DB53483A4913
:1047700008603948006801F042F810F57A7F02DCE1
:104780004F48354908603348006801F038F8B0F503
:104790007A7F02DB49482F4908602E48006801F003
:1047A0002EF810F57A7F02DC45482A49086029482E
:1047B000006801F024F804462748006801F01FF85B
:1047C00005462146FFF72EFF70BD10B54FF0804023
:1047D000FCF76BFF00B2114908803A48FCF765FF0F
:1047E000404200B20C49088000204FF0804188848C
:1047F0003449243108800D4800680849B1F9001097
:1048000008440A490860084800680349B1F90010E3
:1048100008440549086057E02E0300202C030020BF
:1048200034030020300300203C0300203803002024
:1048300048030020400300204C0300207C0300209C
:10484000800300208403002078030020140300204C
:104850002003002028030020240300206C030020F4
:104860006803002070030020740300200803002068
:10487000090300200A030020440300200000F0C1C7
:104880000000F04194030020900300200000A0C02D
:104890000000A0409E030020980300209A99999957
:1048A0009999E93F9999E9BF9C0300200D030020E5
:1048B00000080140000C01400004004000C07944A1
:1048C00000C079C400080040FC480068FC49B1F908
:1048D0000010401AF9490860FA480068FA49B1F92D
:1048E0000010401AF749086010BD2DE9F04F87B05D
:1048F000F648B0F9000000F064FF06460022F44BD1
:1049000000F0E7FECDE90201F248B0F9000000F046
:1049100058FF06460022EE4B00F0DBFE8046DDE944
:10492000022302F01BFA04460022EB4B00F05FFE6C
:10493000EA4AEB4BCDE9040100F0CBFE824601F0E0
:1049400007F8E8490860E848006800F031FF0446CD
:10495000E4480168204600F030FDE2490860E34881
:10496000B0F9000000F02DFF06464FF06632E04B34
:1049700000F0AFFE044600F06FFF00B2DB49088094
:104980000846B0F9000000F013FFDA490860D54886
:10499000006800F099FF0446D74AD84B00F027FE84
:1049A000CDE90201D348006800F08EFF8246D24A6A
:1049B000D34B00F01CFE06460F46D248006800F0BC
:1049C00083FF804632463B4600F06AFD0446CE4AED
:1049D000CE4B00F00CFECDE90001DDE9022300F032
:1049E0005FFDCDE9040100F0B3FFC649086007B0E0
:1049F000BDE8F08F2DE9F041C5498868C54900F050
:104A000011FD0646BB480168002000F0D3FC0746B4
:104A1000314600F0D5FC0446BA480168002000F099
:104A2000C9FC0746BA480168384600F0C9FC06468A
:104A3000B94900F0C5FC0546214600F069FCB749BC
:104A40000860BDE8F0812DE9FE4FB5490968B54A17
:104A50001268881800F0B5FE06460022B24B00F03E
:104A6000C6FD044600F074FFB04908600020AD495F
:104A70000860AB490860AD48006800F025FF0646B5
:104A80004FF03332AA4B00F0B2FD04460D46A94860
:104A9000006800F019FF06464FF06632A64B00F0A2
:104AA000A6FD804622462B4600F0FAFC824600F026
:104AB0004FFF9E490860084600689E4908609F486D
:104AC0000068009099480168009800F073FC00901D
:104AD0009B480168009800F073FC02909849486870
:104AE00000F0F2FE82460022964B00F0F2FD0646F0
:104AF0000F46009800F0E8FE804632463B4600F044
:104B000076FD044600F024FF01908F48019900686B
:104B100000F0FEFB8C4908608C4801688A480068F8
:104B200000F0F6FB884908600846006800F067FE60
:104B300000B2B0F52F7F02DD8548834908608248C6
:104B4000006800F05CFE00B210F5617F02DA814877
:104B50007D49086080480068804908607A4801689B
:104B6000029800F0D5FB7C490860BDE8FE8F2DE976
:104B7000F0417A4801687848006800F01BFC06465E
:104B800077480078401C00F013FE0746314600F0DD
:104B900017FC0546734900F045FC04466F48016860
:104BA000204600F0B5FB70490860BDE8F0812DE9B2
:104BB000FC5F8146884614461D460C9E21464046B1
:104BC00000F0E2FE17D22946304600F0F3FB4146E2
:104BD0000190204600F0EEFB0090019900F022FCCD
:104BE00082464146484600F0E5FB8346514600F0C8
:104BF00019FC074616E02946304600F0DBFB8346E9
:104C00002146404600F0D6FB5946009000F00AFCD1
:104C100082464146484600F0D0FB5146019000F0E4
:104C200001FC07463146384600F0B8FE01D237464F
:104C300005E02946384600F0A7FE00D22F46384648
:104C4000BDE8FC9F38B505460C460021284600F01B
:104C5000A5FE0AD2454800232E4A19460090284650
:104C6000FFF7A5FF424908600BE040480023414A96
:104C7000194600902846FFF79AFF80F000403C4913
:104C800008600021204600F089FE0AD23A4800233D
:104C9000204A194600902046FFF789FF27490860FF
:104CA0000BE035480023334A194600902046FFF7B1
:104CB0007EFF80F000402149086038BD8803002055
:104CC0002C0300208C0300202E0300202E00002047
:104CD0000000D0402C000020008066401F85EB5172
:104CE000B81E094084030020100300202A00002081
:104CF00066663040800300207B14AE47E17A943F23
:104D0000E17A743F7C0300205C8FC2F5285CEF3FA2
:104D100050030020000020410000A040200300209C
:104D2000380300203C0300200000E03F4003002047
:104D30003333D33F480300206666E63F4403002038
:104D40005C030020000024404C0300206803002086
:104D500000002F44000061C41C0300201803002041
:104D60000A0300200000C841140300200000C843CB
:104D70006C030020000020C100008C4210B50446E6
:104D8000FCB942480068002808DB404800680C284D
:104D900004DC3F490020FFF755FF34E03B48006842
:104DA000122809DD394800681E2805DC4FF08141D2
:104DB0000020FFF747FF26E000210846FFF742FFEB
:104DC00021E0012C1FD13148006800280EDB2F485C
:104DD000006814280ADC00212E48FFF733FF40F258
:104DE000EE202D49086040422C4908602A4800689E
:104DF000002808DA29480068002804DD4FF08141C6
:104E00000020FFF71FFF10BD2DE9F04188B00026FC
:104E10000025FEF7ABFD044604F0040008B1204E67
:104E20001AE004F0020008B11E4E15E004F0010083
:104E300008B1174E10E004F0400008B11A4E0BE024
:104E400004F0200008B1194E06E004F0100010B183
:104E50004FF0814600E00026154D29463046FFF709
:104E6000F1FE284600F0CBFC0746304600F0C7FCB8
:104E700080463B4642460FA1684601F057F9684616
:104E8000FEF7C0F808B0BDE8F0810000FC02002089
:104E9000000080C00000A040880300208C03002098
:104EA000000020C10000C0C0000020410000C04040
:104EB0000000404053746565723A25642C2053709D
:104EC0006565643A25640D0A000000002DE9F04193
:104ED00006460D4617460024FDF759F83520FDF724
:104EE000F1FA00BF05E05F48205C5F490855601C8F
:104EF000C4B2802CF7DB002406E015F8010B311951
:104F0000594A5054601CC4B2BC42F6DB5548FDF708
:104F100083F8002407E0544A1159524AA018FDF7BB
:104F20004BF9201DC4B2802CF5DB3520FDF7CAFA01
:104F3000FDF739F8BDE8F08110B50346002006E022
:104F4000484C1C44245C01F8014B441CE0B29042E4
:104F5000F6DB10BD08B5012269463220FFF7ECFFF1
:104F60009DF80000012805D10C2240493320FFF7AD
:104F7000E3FF04E00C223D490220FFF7DDFF0122A0
:104F800069464820FFF7D8FF9DF80000012805D1A9
:104F90000C2237494920FFF7CFFF04E00C223449A7
:104FA0001220FFF7C9FF08BD08B50222694600209C
:104FB000FFF7C2FF9DF80000A52806D19DF801006B
:104FC0005A2802D1FFF7C6FF14E0A5208DF8000093
:104FD0005A208DF80100022269460020FFF776FF73
:104FE0000C2222490220FFF771FF0C2220491220D7
:104FF000FFF76CFF08BD38B504460120009054B996
:10500000012269463220FFF761FF0C221749332045
:10501000FFF75CFF09E0012269464820FFF756FFD1
:105020000C2213494920FFF751FF38BD38B504461B
:105030000020009054B9012269463220FFF746FF54
:105040000C220A490220FFF777FF09E00122694696
:105050004820FFF73BFF0C2205491220FFF76CFFA9
:1050600038BD000000F000084C080020500300206C
:105070005C03002008B549480823802200210090E5
:105080000846FDF793FD4FF47A70FEF7D6FEFDF764
:10509000FBFC08BDF0B58BB0202103A800F0F1F8AF
:1050A0003F480078401C3E490870084600780628B2
:1050B00001DB002008703A48007820B939A20021AD
:1050C0000846FDF728FD36480078012815D1FEF77F
:1050D000BAFA38B139483AA21521036803A801F099
:1050E00011F805E03DA33EA2152103A801F00AF83E
:1050F00003AA01210020FDF70EFD294800780228AF
:105100000CD13E48B0F900303DA2152103A800F0B3
:10511000F9FF03AA02210020FDF7FDFC20480078DA
:1051200003280CD13C48B0F900303CA2152103A85B
:1051300000F0E8FF03AA03210020FDF7ECFC18486B
:10514000007804280FD13B48006800F0BDFB3AA26C
:10515000CDE90001152103A800F0D4FF03AA042122
:105160000020FDF7D8FC0E480078052814D13848F7
:10517000008800F037FB06460022364B00F0A9FA03
:1051800035A2CDE90001152103A800F0BBFF03AA59
:1051900005210020FDF7BFFC0BB0F0BDA0030020EF
:1051A000A00700204D6F64653A20436F6D706C65F9
:1051B0006D656E746172792020000000FC02002091
:1051C00044697374616E63653A2020256428636DB9
:1051D00029202020202020200000000078780000D6
:1051E00044697374616E63653A2020257328636D8A
:1051F0002920202020202020000000002C03002057
:10520000456E636F4C6566743A202025642020202B
:1052100020202020202000002E030020456E636FF8
:1052200052696768743A20256420202020202020BD
:10523000202000007C030020416E676C653A20202E
:1052400020202025302E3166202020202020000024
:10525000A407002000005940426174746572793AD5
:1052600020202025302E316628562920202020207D
:1052700020000000D2B201E000F8012B491EFBD251
:1052800070470022F6E710B513460A460446194651
:10529000FFF7F0FF204610BD30B505462A460B4605
:1052A00012F8010B13F8014B08B1A042F8D01CB161
:1052B000002802D06D1CF1E7284630BD421C10F8D2
:1052C000011B0029FBD1801A7047000070B50F4DFB
:1052D00000B92868002412E00A4602E09E4203D08A
:1052E000521C1378002BF9D1DAB2224305D02BB12E
:1052F00024B1002100F8011B04E00446401C06789C
:10530000002EE9D12860204670BD0000A8070020CB
:10531000F0B480EA0102D40F4200B2EB410F02D296
:105320000246084611464A0042D0C30DDDB2C1F321
:10533000C752AD1A202D35DAC1F3160141F400022F
:1053400004B15242C5F1200602FA06F12A41104486
:10535000B3EBD05F23D0C4B1012DA0EBC35009DC67
:10536000F0BC4FF0004202EAC352DBB200F500008D
:1053700000F0EDBB400000F1807000EBC350A0F1E5
:10538000807040EAD170490009E0490841EAC071E3
:10539000A0EBC35000F50000400800EBC350F0BC88
:1053A00000F0CCBB6142012202EB4101001BF6E799
:1053B000F0BC704781F00041AAE780F00040A7E709
:1053C00080EA010210B502F00043400022D04A00FA
:1053D0001FD0010E01EB1261C0F35600C2F356025A
:1053E00040F4000042F40002A0FB022000047F39D8
:1053F000140400D0401C50EA124001D44000491E61
:10540000C2B20C0604EBD010401C4008802A02D027
:1054100003E0002010BD20F00100002900DA002088
:10542000184310BD30B480EA010202F0004530F0AC
:10543000004221F0004013D090B1C30DD40DC2F34F
:105440001601C0F31600E41A41F4000140F4000212
:105450007D34914201D3641C00E04900002C02DA43
:1054600030BC002070474FF400000023914201D36C
:10547000891A034340084FEA4101F7D151B19142E3
:1054800002D14FF0004105E002D24FF0010101E0EE
:105490006FF0010103EBC450284430BC00F04EBB58
:1054A0002DE9FE4F804681EA0300C00F0C460090B4
:1054B00021F0004123F00045B8EB0200A94105D2DC
:1054C0004046214690461C460B46024623F00040CB
:1054D000104347D0270DC7F30A00C3F30A510290C7
:1054E000401A019040286BDAC3F3130040F4801B8C
:1054F0000098924620B10023D2EB030A63EB0B0B1A
:1055000001985946C0F14002504600F098FA06460C
:105510000D4650465946019A00F0B0FA10EB0800CB
:105520006141002487EA115284EAE7731A4340D0AC
:10553000009A62B3019A012A4FEA075215DC001B58
:1055400061EB02014FF0004202EA0752CDE900424E
:10555000001C41F5801132462B4600F035FB03B0AC
:10556000BDE8F08F40462146F9E7001B61EB0201E0
:10557000001C41F5801300185B412018A2F50017AC
:1055800047EB030140EAD570B6196D4111E06D0893
:105590004FEA360645EAC0754FEA0752001B61EB39
:1055A0000201001C41F5801149084FEA3000001942
:1055B000514132462B4603B0BDE8F04F00F0F5BA3A
:1055C0000098012240000023D0EB020263EBE0735D
:1055D000009821464FEAE074B8EB000061EB04014B
:1055E000E9E783F000435BE781F0004158E72DE9EC
:1055F000FE4F81EA030404F0004421F000410094CE
:105600004FF0000B23F0004350EA01045ED052EA51
:1056100003045BD0C3F30A54C1F30A552C44A4F22B
:10562000F3340194A0FB0254C1F3130141F480113F
:10563000C3F3130343F4801301FB024400FB034E46
:10564000840A970A44EA815447EA8357A4FB07680F
:1056500002958D0A05FB07854FEA932C04FB0C5439
:105660002705029D4FEA065847EA1637B5EB0805AD
:105670006EEB070C870E920E47EA811742EA8312FF
:10568000A7FB0201B6EB0B0164EB00042B0D43EA10
:105690000C335E1844EB1C50DA465146E7FB02011E
:1056A000C5F313044FEA0B3343EA14534FEA0432B1
:1056B000019C43EA0603A4F10C040294009CCDE98A
:1056C00000B400F081FA03B0BDE8F08F002001467D
:1056D000F9E72DE9F04D81EA030404F0004B21F0D5
:1056E000004514464FF0000A23F0004150EA05023D
:1056F00020D054EA01021DD0C5F30A570246C5F373
:105700001303C1F31300C1F30A5640F4801543F4A8
:105710008013A7EB0608101BD64608F2FD3873EB82
:10572000050002D308F1010801E092185B41B8F1CD
:10573000000F03DA00200146BDE8F08D00204FF491
:105740008011064684460EE0171B73EB050705D350
:10575000121B63EB050306434CEA010C49084FEAB0
:10576000300092185B4150EA0107EDD152EA030084
:1057700012D082EA040083EA0501084305D0101B19
:10578000AB4106D20122002306E000224FF0004385
:1057900002E06FF0010253101AEB06004CEB0851C7
:1057A00010EB0A0041EB0B01BDE8F04D00F0FDB934
:1057B000C10F80EAE0700844CA079623002100F078
:1057C000C6B90EB5C10F80EAE0700844CA070021CF
:1057D00040F233438DE80E000A460B4600F0F4F920
:1057E00003B000BD0EB540F2334102910021CDE976
:1057F00000110A460B4600F0E7F903B000BD00F0C7
:10580000004220F00040C10DC0F3160040F400003B
:105810007F2901DA00207047962903DCC1F1960147
:10582000C84001E096398840002AF4D040427047D1
:1058300020F00040C10DC0F3160040F400007F29A5
:1058400001DA00207047962903DCC1F19601C840B7
:10585000704796398840704770B5C1F30A5201F01D
:1058600000450024C1F3130140F2FF3341F48011DD
:105870009A4201DA002070BD40F233439A42A2F20C
:10588000334203DC524200F0E9F800E090402C4340
:10589000F1D0404270BDC1F30A5210B5C1F31301FB
:1058A00040F2FF3341F480119A4201DA002010BD2A
:1058B00040F233439A42A2F2334203DC524200F0F8
:1058C000CDF810BD904010BD00F0004230F0004017
:1058D0000AD0C10D01F56071C0F3160042EA015112
:1058E000C20840071143704700200146704700007E
:1058F00030B5041E71F1000404DB4FF00044404257
:1059000064EB0101141E73F1000405DB1C464FF02B
:105910000043524263EB04038B4208BF824230BD16
:1059200030B5041E71F1000404DB4FF00044404226
:1059300064EB0101141E73F1000405DB1C464FF0FB
:105940000043524263EB0403994208BF904230BDCA
:1059500001F0004330B421F0004150EA010206D0CA
:105960000A0DA2F56072C1F31301002A02DC30BCFB
:1059700000207047440F44EAC104C100E01830BC65
:1059800000EBC25000F0DAB8002801DBC0F10040A3
:10599000002901DBC1F1004181427047002801DB91
:1059A000C0F10040002901DBC1F10041884270478D
:1059B00030B50B46014600202022012409E021FADF
:1059C00002F59D4205D303FA02F5491B04FA02F5DC
:1059D0002844151EA2F10102F1DC30BD2DE9F05F73
:1059E0000546002092469B4688460646814640244E
:1059F0001BE0284641464746224600F02FF8534612
:105A00005A46C01A914110D311461846224600F05A
:105A100016F82D1A67EB01084F4622460120002197
:105A200000F00DF817EB00094E41201EA4F101040F
:105A3000DFDC484631462A464346BDE8F09F202A2F
:105A400004DB203A00FA02F1002070479140C2F1D5
:105A5000200320FA03F3194390407047202A04DB07
:105A6000203A21FA02F00021704721FA02F3D040D7
:105A7000C2F120029140084319467047202A06DBF4
:105A8000CB17203A41FA02F043EAE07306E041FA0C
:105A900002F3D040C2F120029140084319467047FA
:105AA0000FB4002300B589B00CA900910B996FF0D9
:105AB0000042CB601E4B06931E4B07930423CDE997
:105AC00001321D4A089202466B46002000F07AF926
:105AD00009B05DF814FB70B586B006464FF0FF3094
