:020000040800F2
:10000000400D0020F12600088D3B00088F3B0008C2
:10001000933B0008973B00089B3B00080000000052
:100020000000000000000000000000009F3B0008EE
:10003000A13B000800000000A33B0008A73B00080C
:100040000B2700080B2700080B2700080B270008C8
:100050000B2700080B2700080B2700080B270008B8
:100060000B2700080B2700080B2700080B270008A8
:100070000B2700080B2700080B2700080B27000898
:100080000B2700080B2700080B2700080B27000888
:100090000B2700080B2700080B2700080B27000878
:1000A0000B270008A53B00080B270008793500083E
:1000B000213900080B2700082D3900080B270008FC
:1000C0000B2700080B2700080B2700080B27000848
:1000D0000B2700080B2700080B270008393C0008F5
:1000E0000B2700080B2700080B270008DFF810D0AB
:1000F00005F0FAFF00480047133B0008AFF300800B
:10010000400D002031490143314A1160704770B5FC
:10011000002100230F22C47804B32D4C246804F47A
:10012000E064C4F5E064210AC1F10403CA404478E4
:1001300004FA03F18478144021430901254C067820
:10014000A155047804F01F050124AC4005786D1119
:10015000AD0005F1E025C5F8004109E0047804F0A0
:100160001F050124AC401C4D0678761145F8264049
:1001700070BD1A4A0A400243154B1B1F1A60704794
:1001800039B1134A121D12680243114B1B1D1A602C
:1001900006E00F4A121D126882430D4B1B1D1A60A8
:1001A0007047042808D14FF0E021096941F00401AB
:1001B0004FF0E022116107E04FF0E021096921F0E2
:1001C00004014FF0E0221161704700000000FA05C1
:1001D0000CED00E000E400E080E100E080FFFF1FA4
:1001E00010B50446CC48844208D10121042000F017
:1001F0002DFB0021042000F029FB46E0C748844283
:1002000008D10121082000F021FB0021082000F086
:100210001DFB3AE0C248844208D10121102000F0C1
:1002200015FB0021102000F011FB2EE0BD48844298
:1002300008D10121202000F009FB0021202000F03E
:1002400005FB22E0B848844208D10121402000F09B
:10025000FDFA0021402000F0F9FA16E0B34884428C
:1002600008D10121802000F0F1FA0021802000F067
:10027000EDFA0AE0AE48844207D10121801500F072
:10028000E5FA0021A01500F0E1FA10BD10B501213A
:10029000084600F0DBFA0021012000F0D7FA10BD7B
:1002A0002DE9F0410246002500260020002300240D
:1002B000002791F803C00CF00F0591F803C00CF073
:1002C000100CBCF1000F03D091F802C04CEA0505F8
:1002D00091F800C0BCF1000F31D0146800202BE071
:1002E0004FF0010C0CFA00F3B1F800C00CEA030661
:1002F0009E4220D183004FF00F0C0CFA03F7BC4351
:1003000005FA03FC4CEA040491F803C0BCF1280F81
:1003100006D14FF0010C0CFA00FCC2F814C00AE040
:1003200091F803C0BCF1480F05D14FF0010C0CFA55
:1003300000FCC2F810C0401C0828D1D31460B1F8EA
:1003400000C0BCF1FF0F34DD546800202EE000F146
:10035000080C4FF0010808FA0CF3B1F800C00CEAE1
:1003600003069E4221D183004FF00F0C0CFA03F7D5
:10037000BC4305FA03FC4CEA040491F803C0BCF149
:10038000280F05D100F1080C08FA0CF8C2F8148007
:1003900091F803C0BCF1480F07D100F1080C4FF0F1
:1003A000010808FA0CF8C2F81080401C0828CED3C7
:1003B0005460BDE8F0814FF6FF7101800221817029
:1003C0000421C17070470246002093680B400BB1B6
:1003D000012000E0002070470146886880B2704725
:1003E00002460020D3680B400BB1012000E0002042
:1003F00070470146C86880B270470161704741612B
:1004000070470AB1016100E041617047C160704707
:100410004FF480320A43826181618261826982691C
:10042000704702460020434B18684FF6807318400F
:1004300040EA021008433F4B186070473E49C861CC
:100440007047F0B50A46002300240021002500F083
:100450000046B6F1004F02D1364EF16901E0354E4B
:100460007168C0F3034583B200F44016B6F5401F2F
:1004700008D121F070612F4E766826F070662D4FFE
:100480007E6012E000F48016B6F5801F06D10326C8
:1004900006FA05F4A14341F0706106E0460D36010D
:1004A00003FA06F6B14341F0706122B1460D360100
:1004B00003FA06F6314300F00046B6F1004F02D1D0
:1004C0001C4EF16101E01B4E7160F0BD30B50022A1
:1004D0008B071C0F0F2303FA04F2164B08338C1002
:1004E00053F824309343134C08348D1044F82530CE
:1004F00023468C1053F824308C07240F00FA04F4A0
:1005000023430C4C08348D1044F8253030BD0A4983
:10051000DC3108607047000000080140000C014019
:10052000001001400014014000180140001C01406F
:10053000002001400000014000002042DF48006828
:1005400040F00100DD49086008464068DC49084089
:10055000DA49486008460068DA490840D749086027
:100560000846006820F4802008600846406820F4AF
:10057000FE0048604FF41F0088607047CF4909684B
:1005800021F48031CD4A11601146096821F480219F
:100590001160B0F5803F03D0B0F5802F0ED106E09A
:1005A000C649096841F48031C44A116007E0C34973
:1005B000096841F4A021C14A116000E000BF00BFFA
:1005C000704710B501460022002300204A11012A7D
:1005D00002D1BA4C236806E0022A02D1B74C236A42
:1005E00001E0B64C636A01F01F02012494401C40F4
:1005F0000CB1012000E0002010BD38B500200090B3
:100600000024002500BF3120FFF7DBFF05460098DE
:10061000401C00900098B0F5A06F01D0002DF2D0E2
:100620003120FFF7CEFF08B1012400E0002420466E
:1006300038BD01460020A14A106820F0F80040EAC9
:10064000C10010607047A049086070470246002052
:100650009A4B586820F47C1042EA01031843974BE8
:100660005860704798490866704701460020934AD1
:10067000506820F003000843506070478F4840687E
:1006800000F00C007047014600208C4A506820F0B2
:10069000F00008435060704701460020874A5068C8
:1006A00020F4E06008435060704701460020834A10
:1006B000506820F4605040EAC1005060704729B192
:1006C0007E4A527A02437D4B5A7204E07B4A527A48
:1006D00082437A4B5A7270477B49D8310860704721
:1006E00001460020754A506820F44040084350609D
:1006F00070470021714A20321170704A82F8201030
:10070000012802D004280AD104E001216B4A2032DA
:10071000117005E00521694A2032117000E000BF28
:1007200000BF70476949086070476449096A01431E
:10073000624A11627047654944390860704730B5B4
:1007400000210022002400235C4D6D6805F00C019F
:1007500021B1042905D0082923D105E05C4D0560AD
:1007600022E05B4D05601FE0544D6D6805F470128A
:10077000524D6D6805F48034022505EB92421CB998
:10078000544D554305600BE04C4D6D6805F4003544
:100790001DB1504D5543056002E04D4D5543056078
:1007A00002E04B4D056000BF00BF444D6D6805F091
:1007B000F0010909484D6B5C0568DD4045603F4D1F
:1007C0006D6805F4E061090A434D6B5C4568DD40E6
:1007D00085603A4D6D6805F46051C90A3E4D6B5C09
:1007E0004568DD40C560354D6D6805F44041890BB5
:1007F0003A4D6B5CC568B5FBF3F5056130BD29B1B9
:100800002E4A526902432D4B5A6104E02B4A526929
:1008100082432A4B5A61704729B1284A92690243A0
:10082000264B9A6104E0254A92698243234B9A61E0
:10083000704729B1214AD2690243204BDA6104E0B2
:100840001E4AD26982431D4BDA61704729B11B4AA7
:10085000D2680243194BDA6004E0184AD268824336
:10086000164BDA60704729B1144A12690243134BE0
:100870001A6104E0114A12698243104B1A617047F1
:1008800012494039086070470F49C86470470B49E6
:10089000C87170470948406A40F080700749486253
:1008A000704701460020054A92680A400AB10120BB
:1008B00000E0002070470149887270470010024034
:1008C0000000FFF8FFFFF6FE0000424280044242B3
:1008D00000127A0000093D000000002010000020F6
:1008E00010B50446FE48844208D10121C014FFF728
:1008F000ADFF0021E014FFF7A9FFC4E0B4F1804F81
:1009000008D101210846FFF7AEFF00210120FFF7C3
:10091000AAFFB8E0F348844208D101210220FFF782
:10092000A2FF00210220FFF79EFFACE0EE488442C8
:1009300008D101210420FFF796FF00210420FFF7D2
:1009400092FFA0E0E948844208D101210820FFF786
:100950008AFF00210820FFF786FF94E0E4488442E4
:1009600008D101211020FFF77EFF00211020FFF7A2
:100970007AFF88E0DF48844208D101212020FFF778
:1009800072FF00212020FFF76EFF7CE0DA488442EE
:1009900008D101214014FFF759FF00216014FFF72F
:1009A00055FF70E0D548844209D10121C804FFF702
:1009B0004DFF00214FF40020FFF748FF63E0D048CF
:1009C000844209D101210805FFF740FF00214FF4BF
:1009D0008010FFF73BFF56E0CA48844209D101214D
:1009E0004805FFF733FF00214FF40010FFF72EFFFB
:1009F00049E0C548844208D101214020FFF733FF78
:100A000000214020FFF72FFF3DE0C048844208D17D
:100A100001218020FFF727FF00218020FFF723FF1F
:100A200031E0BB48844208D101218015FFF71BFF4C
:100A30000021A015FFF717FF25E0B648844209D131
:100A400001210804FFF702FF00214FF48030FFF777
:100A5000FDFE18E0B048844209D101214804FFF7A7
:100A6000F5FE00214FF40030FFF7F0FE0BE0AB483D
:100A7000844208D101218804FFF7E8FE00214FF4E9
:100A80008020FFF7E3FE10BD00220288944B9842BD
:100A90000ED0994B98420BD0B0F1804F08D0914BBB
:100AA000984205D0904B984202D0904B984204D186
:100AB0004FF68F731A404B881A438D4B984207D0DC
:100AC0008C4B984204D04FF6FF431A40CB881A4310
:100AD00002808B8883850B880385814B98420BD0DD
:100AE000854B984208D08B4B984205D08A4B984250
:100AF00002D08A4B984201D10B7A0386012383826C
:100B0000704770B5002400220023058C4FF6FE7656
:100B100035400584028C8388048B4FF68F752C40FA
:100B2000B51E2C400D882C43751E2A400D892A4382
:100B30004D882A436A4DA8420BD06F4DA84208D079
:100B4000744DA84205D0744DA84202D0734DA842FE
:100B500013D14FF6F7752A404D892A434FF6FB759E
:100B60002A408D882A434FF6FF652B404FF6FF55EC
:100B70002B408D892B43CD892B4383800483CD88E3
:100B80008586028470BD70B5002400220023058C88
:100B90004FF6EF7635400584028C8388048B48F647
:100BA000FF752C404FF6FF452C400D884FF6FF7621
:100BB00006EA05252C434FF6DF752A400D8906EA23
:100BC00005152A434D8806EA05152A43444DA842D7
:100BD00002D0494DA8421DD14FF67F752A404D895C
:100BE0004FF6FF7606EA05152A434FF6BF752A40F1
:100BF0008D8806EA05152A434FF6FF352B404FF244
:100C0000FF752B408D8906EA85052B43CD8906EAC1
:100C100085052B4383800483CD880587028470BDBE
:100C200070B5002400220023058C4FF6FF66354086
:100C30000584028C8388848B4FF68F752C404FF689
:100C4000FC752C400D882C434FF6FF552A400D892A
:100C50004FF6FF7606EA05252A434D8806EA052564
:100C60002A431F4DA84202D0234DA8421DD14FF266
:100C7000FF752A404D894FF6FF7606EA05252A437F
:100C80004FF6FF352A408D8806EA05252A434EF6A1
:100C9000FF752B404DF6FF752B408D8906EA051533
:100CA0002B43CD8906EA05152B4383808483CD88A9
:100CB0008587028470BD70B5002200230024058C56
:100CC0004EF6FF7635400584038C8488828B48F687
:100CD000FF752A404FF6FF452A400D8820E00000AE
:100CE000002C01400004004000080040000C0040BF
:100CF000001000400014004000340140004C01404E
:100D0000005001400054014000180040001C004009
:100D100000200040004001400044014000480140E4
:100D20004FF6FF7606EA05252A434DF6FF752B4060
:100D30000D8906EA05352B434D8806EA05352B4318
:100D4000FA4DA84202D0FA4DA84208D14BF6FF75E1
:100D50002C408D894FF6FF7606EA85152C4384805A
:100D60008283CD88A0F84050038470BD828B4FF2FF
:100D7000FF331A408283828B4FF6FF7303EA01230D
:100D80001A4382837047F0B50C46154600220021B5
:100D90000026078C4EF6FF7C07EA0C070784828B3F
:100DA000018C4FF6FF7707EA043640F6FF473A40DA
:100DB0004FF6FF7707EA05273A434FF6FF7707EA32
:100DC00003373A43D94FB8420ED0D94FB8420BD06F
:100DD000B0F1804F08D0D74FB84205D0D64FB842B7
:100DE00002D0D64FB84206D14DF6FF77394046F4CF
:100DF0008057394305E047F6FF57394044F48057A0
:100E0000394382830184F0BD828B4FF6F3731A401D
:100E10008283828B0A4382837047F0B50C46154665
:100E2000002200210026078C4FF6FF6C07EA0C0712
:100E30000784828B018C4FF6FF7707EA04264FF672
:100E40000C773A404FF6FF7707EA03172F433A43F0
:100E5000B64FB8420ED0B64FB8420BD0B0F1804F6B
:100E600008D0B44FB84205D0B34FB84202D0B34F08
:100E7000B84206D14FF6FF57394046F480773943E0
:100E800005E04FF2FF57394044F4807739438283BD
:100E90000184F0BD028B4FF2FF331A400283028BB4
:100EA0004FF6FF7303EA01231A4302837047F0B53C
:100EB0000C461546002200210026078C4FF6EF7CD9
:100EC00007EA0C070784028B018C4FF6FF7707EACD
:100ED000041640F6FF473A404FF6FF7707EA03371C
:100EE0003A434FF6FF7707EA05273A438F4FB84258
:100EF0000ED08F4FB8420BD0B0F1804F08D08D4F3D
:100F0000B84205D08C4FB84202D08C4FB84206D1BF
:100F10004FF6DF77394046F01007394305E04FF6CA
:100F20005F77394044F01007394302830184F0BDF4
:100F3000028B4FF6F3731A400283028B0A4302833B
:100F40007047F0B50C46154600220021068C4FF67E
:100F5000FE773E400684028B018C4FF60C763240C1
:100F60007E1C06EA03162E433243704EB0420ED06A
:100F70006F4EB0420BD0B0F1804F08D06D4EB042F2
:100F800005D06D4EB04202D06C4EB04206D14FF645
:100F9000FD76314044F00106314305E04FF6F57629
:100FA000314044F00106314302830184F0BD70B545
:100FB00005460C465D4885420ED05D4885420BD003
:100FC000B5F1804F08D05B48854205D05A4885422C
:100FD00002D05A48854200D100E000BF208850B9B5
:100FE0002389A28861882846FFF7ABFFE18828465D
:100FF000FFF79EFF25E0208804280AD12389A288D4
:1010000061882846FFF753FFE1882846FFF742FF33
:1010100017E0208808280AD12389A28861882846F9
:10102000FFF7FBFEE1882846FFF7EEFE09E0238983
:10103000A28861882846FFF7A6FEE1882846FFF7C8
:1010400095FE70BD2DE9F04105460C4600260127AE
:10105000608808B9022600E00026A088012801D196
:10106000022700E001272088A0B92389A28861888F
:101070002846FFF766FFE1882846FFF759FF2389D6
:101080003A4631462846FFF712FFE1882846FFF727
:1010900001FF13E02389A28861882846FFF707FF34
:1010A000E1882846FFF7F6FE23893A46314628466E
:1010B000FFF747FFE1882846FFF73AFFBDE8F081D8
:1010C0000A884B881A438B881A43CB881A430B89AA
:1010D0001A434B891A438B891A43A0F8442070475E
:1010E0004FF6FF71818000210180C1804180017233
:1010F00070470021018041808180C1800181418150
:101100008181C1817047002101804180012181805E
:101110000021C180018170470021018041808180D0
:10112000C18001814181818170470000002C014014
:10113000003401400004004000080040000C004062
:1011400021B1028842F00102028004E002884FF6D9
:10115000FE731A400280704731B1B0F8442042F467
:101160000042A0F8442005E0B0F84420C2F30E028B
:10117000A0F8442070471AB183890B43838102E0B1
:1011800083898B43838170478182704741EA0203E0
:10119000A0F8483070471AB183890B43838102E07D
:1011A00083898B438381704701894FF6F872114020
:1011B000018170470A46002101894FF68F7319405B
:1011C00011430181704730B504460D46294620463B
:1011D000FFF7F0FF208940F00700208130BD2DE9A6
:1011E000F04104460D4616461F46602D06D13B468B
:1011F000012231462046FFF75AFE05E03B46012218
:1012000031462046FFF79DFE29462046FFF7D2FFD4
:10121000208940F007002081BDE8F08130B50C4600
:1012200000210189C9B24FF6FF7505EA0325154370
:1012300025432943018130BD2DE9F04105460E4685
:1012400017469846002443463A4631462846FFF75B
:10125000E5FF2C894FF6F870044044F007044FF680
:101260008F70044044F070042C81BDE8F081F0B52B
:1012700004460D4616461F463B4632462946204642
:10128000FFF7CCFF208940F480402081F0BD01852C
:10129000828270470A46002101884FF68F731940F9
:1012A000114301807047F0B50C4615461E460021DB
:1012B000002200230189028B038C4FF6F877394016
:1012C00021434FF6FC473A4040F201173A434FF6AC
:1012D000DD773B404FF6FF7707EA06172F433B4386
:1012E000018102830384F0BD0A460021018B4FF681
:1012F0008F7319401143018370470A460021018B07
:1013000048F6FF7319404FF6FF7303EA02231943AF
:10131000018370470A460021818B4FF68F73194075
:101320001143818370470A460021818B48F6FF7381
:1013300019404FF6FF7303EA022319438183704774
:1013400021B1028842F08002028004E002884FF658
:101350007F731A400280704721B1828842F00402F4
:10136000828004E082884FF6FB731A4082807047C7
:1013700021B1828842F00802828004E082884FF620
:10138000F7731A408280704721B1828842F00102CF
:10139000828004E082884FF6FE731A408280704794
:1013A0000A460021018B4FF6F77319401143018360
:1013B00070470A460021018B4FF2FF7319404FF628
:1013C000FF7303EA02231943018370470A46002191
:1013D000818B4FF6F77319401143818370470A469A
:1013E0000021818B4FF2FF7319404FF6FF7303EA20
:1013F00002231943818370470A460021018B4FF66F
:10140000FB7319401143018370470A460021018B89
:101410004FF6FF3319404FF6FF7303EA02231943D7
:10142000018370470A460021818B4FF6FB731940F8
:101430001143818370470A460021818B4FF6FF33A9
:1014400019404FF6FF7303EA022319438183704763
:101450000A460021018B4FF67F7319401143018327
:1014600070470A460021018BC1F30E014FF6FF734E
:1014700003EA02231943018370470A460021818B46
:101480004FF67F7319401143818370470A4600214C
:10149000818BC1F30E014FF6FF7303EA0223194358
:1014A000818370470A460021018C4FF6FD73194075
:1014B0001143018470470A460021018C4FF6F773EF
:1014C00019401143018470470A460021018C4FF6F0
:1014D000DF7319404FF6FF7303EA021319430184C7
:1014E00070470A460021018C4FF67F7319404FF672
:1014F000FF7303EA02131943018470470A4600216F
:10150000018C4FF6FF5319404FF6FF7303EA022395
:101510001943018470470A460021018C4FF2FF7382
:1015200019404FF6FF7303EA022319430184704701
:101530000A460021018C4DF6FF7319404FF6FF73E8
:1015400003EA023319430184704730B500230124B4
:101550008C40A3B2048C9C430484048C02FA01F5F1
:10156000ADB22C43048430BD30B5002304248C403C
:10157000A3B2048C9C430484048C02FA01F5ADB23E
:101580002C43048430BD70B5034600200024184667
:10159000183001258D40ACB21D8CA5431D8409B1C6
:1015A000082909D100EB6100056825F07005056088
:1015B0000568154305600EE00D1FC5F34E05284470
:1015C000056825F4E045056005684FF6FF7606EAF4
:1015D00002263543056070BD21B1028842F0020247
:1015E000028004E002884FF6FD731A4002807047C3
:1015F00021B1028842F00402028004E002884FF622
:10160000FB731A400280704721B1828842F0800249
:10161000828004E082884FF67F731A408280704790
:1016200002884FF6F7731A40028002880A4302804C
:10163000704782884FF68F731A40828082880A43EF
:101640008280704702894FF6F8731A40028102893E
:101650000A430281704702894FF67F731A40028164
:1016600002890A43028170478184704781857047EF
:10167000818670470187704781877047A0F84010C6
:10168000704702884FF6FF431A40028002880A43DF
:10169000028070470146888E70470146088F704768
:1016A0000146888F70470146B1F8400070470146F7
:1016B000888C70470146088D704702460020138AC7
:1016C0000B400BB1012000E000207047CA430282AA
:1016D000704730B50246002000230024158A05EA31
:1016E0000103958905EA010413B10CB1012000E062
:1016F000002030BDCA4302827047000010B5044686
:10170000FB48844209D101218803FFF79FF800219B
:101710004FF48040FFF79AF832E0F648844209D14E
:1017200001214804FFF79FF800214FF40030FFF734
:101730009AF825E0F048844209D101218804FFF796
:1017400092F800214FF48020FFF78DF818E0EB4865
:10175000844209D10121C804FFF785F800214FF424
:101760000020FFF780F80BE0E548844208D1012112
:101770000805FFF778F800214FF48010FFF773F8A1
:1017800010BD2DE9F04786B005460E460024A2465E
:1017900000BFA1460027B08900B100BF2F462C8AA8
:1017A0004CF6FF700440F08804432C82AC894EF65E
:1017B000F3100440B0883189084371890843044319
:1017C000AC81AC8A4FF6FF400440B0890443AC8240
:1017D00001A8FEF7B4FFC648874202D1DDF810A089
:1017E00001E0DDF80CA0A88900F4004040B10AEB4C
:1017F000CA0000EB0A1031684900B0FBF1F807E0BD
:101800000AEBCA0000EB0A1031688900B0FBF1F85E
:101810006420B8FBF0F004012009642101FB108969
:10182000A88900F4004040B1322000EBC900B0FBB1
:10183000F1F000F00700044308E0322000EB09104B
:101840006421B0FBF1F000F00F0004432C8106B0DE
:10185000BDE8F0874FF41651016000218180C180FE
:1018600001810C21418100218181704710B5024620
:101870000020108A4FF2FF0318400B884C88234346
:101880008C882343CC8823431843108210BD002149
:10189000018041808180C180704721B1828942F4FA
:1018A0000052828104E082894DF6FF731A408281E2
:1018B0007047F0B50346002400260025002040F6BE
:1018C0006A17B94200D100BF1846C1F3421401F0B3
:1018D0001F06012707FA06F5012C01D10C3004E0A0
:1018E000022C01D1103000E014301AB107682F43E8
:1018F000076002E00768AF430760F0BD1AB1838A52
:101900000B43838202E0838A8B4383827047028A7F
:101910004FF6F0731A400282028A0A43028270472D
:1019200082894FF2FF731A40828182890A43828141
:10193000704721B1828942F00202828104E08289EB
:101940004FF6FD731A4082817047028A4FF6DF73AB
:101950001A400282028A0A430282704721B1028A37
:1019600042F48042028204E0028A4BF6FF731A407E
:1019700002827047C1F3080282807047014688885E
:10198000C0F308007047818941F0010181817047EF
:10199000028BD2B20283028B42EA01220283704799
:1019A000028B02F47F420283028B0A430283704758
:1019B00021B1828A42F02002828204E0828A4FF6BC
:1019C000DF731A408282704721B1828A42F010028E
:1019D000828204E0828A4FF6EF731A408282704757
:1019E00021B1828A42F00802828204E0828A4FF6A4
:1019F000F7731A408282704721B1828942F4004213
:101A0000828103E08289C2F30E028281704721B194
:101A1000828A42F40062828204E0828A4FF2FF737B
:101A20001A4082827047828A4FF6FB731A40828284
:101A3000828A0A438282704721B1828A42F002027E
:101A4000828204E0828A4FF6FD731A4082827047D8
:101A500002460020B1F5007F00D100BF13880B4083
:101A60000BB1012000E00020704701F40072B2F5D4
:101A7000007F00D100BFCA430280704770B50246A4
:101A8000002400230025002040F66A16B14200D150
:101A900000BFC1F3421501F01F03012606FA03F34C
:101AA000012D02D19689334006E0022D02D1168A1B
:101AB000334001E0968A33400C12012606FA04F402
:101AC0001688344013B10CB1012000E0002070BD35
:101AD00010B50022002340F66A14A14200D100BFD5
:101AE0000A1201249440A3B2DC43048010BD00001C
:101AF000003801400044004000480040004C0040D5
:101B00000050004010B50446FA48844208D1012133
:101B10004015FEF79BFE00216015FEF797FE17E0CB
:101B2000F548844208D101210015FEF78FFE0021FF
:101B30002015FEF78BFE0BE0F048844208D101210E
:101B4000C803FEF783FE00214FF40040FEF77EFE3F
:101B500010BD30B50246002000235068E84C2040FC
:101B60000D790C6844EA0524204350609068E54CE8
:101B70002040D1E902542C434D7944EA45042043E6
:101B80009060D06A20F470000C7C641EE4B22343A1
:101B900040EA0350D06230BD002101600171417103
:101BA0008160C16001210174704721B1826842F0F7
:101BB0000102826003E0826822F0010282607047C5
:101BC00021B1826842F48072826003E0826822F46C
:101BD00080728260704710B50023CBB21AB144689E
:101BE0001C43446002E044689C43446010BD81682B
:101BF00041F0080181607047014600208A6802F0C8
:101C000008020AB1012000E000207047816841F01D
:101C1000040181607047014600208A6802F00402D6
:101C20000AB1012000E00020704721B1826842F42F
:101C3000A002826003E0826822F4A0028260704702
:101C4000014600208A6802F480020AB1012000E007
:101C50000020704710B50A4600210023416821F496
:101C60006041531E41EA4331416010BD21B14268D9
:101C700042F40062426003E0426822F40062426083
:101C80007047F0B504460D4600200021092D11DDF6
:101C9000E068A5F10A0606EB4607072606FA07F1F3
:101CA0008843A5F10A0606EB460603FA06F1084347
:101CB000E0600CE0206905EB4507072606FA07F10E
:101CC000884305EB450603FA06F108432061072A1D
:101CD0000FDA606B561E06EB86071F2606FA07F121
:101CE0008843561E06EB860605FA06F10843606334
:101CF00022E00D2A0FDA206BD61F06EB86071F267F
:101D000006FA07F18843D61F06EB860605FA06F1A8
:101D10000843206310E0E06AA2F10D0606EB860797
:101D20001F2606FA07F18843A2F10D0606EB860688
:101D300005FA06F10843E062F0BD21B1826842F481
:101D40008012826003E0826822F480128260704711
:101D50000146C86C80B2704766484C3000687047D6
:101D600021B1426842F48062426003E0426822F49A
:101D700080624260704721B1426842F48052426002
:101D800003E0426822F48052426070470A46002114
:101D9000816821F4E04111438160704721B182687C
:101DA00042F40042826003E0826822F400428260D2
:101DB000704721B1826842F40212826003E08268B7
:101DC00022F4021282607047014600208A6802F401
:101DD00000120AB1012000E000207047F0B504466F
:101DE0001546002000220026092911DDE068A1F136
:101DF0000A0707EB470C072707FA0CF29043A1F1FB
:101E00000A0707EB470703FA07F21043E0600CE00C
:101E1000206901EB410C072707FA0CF2904301EB14
:101E2000410703FA07F210432061A06BC0F301568B
:101E3000EF1C06F1010CA7EB0C0707EB870C1F2723
:101E400007FA0CF29043EF1C06F1010CA7EB0C070C
:101E500007EB870701FA07F21043A063F0BD10B546
:101E60000A4600210023816B21F44011531E41EAF0
:101E70000351816310BD08B5002300930090009BBF
:101E80000B440093009B1A6008BD08B50246002071
:101E90000090009201F12800009B184400900098E7
:101EA000006880B208BD0A4600214168164B1940FF
:101EB0001143416070474162826270470A460021C7
:101EC000416821F01F0111434160704740B1094949
:101ED0000831096841F40001064A0832116007E040
:101EE00004490831096821F40001024A08321160EE
:101EF000704700000024014000280140003C0140E0
:101F0000FFFEF0FFFDF7F1FFFFFD3FFF024600205F
:101F100013680B400BB1012000E000207047CA435A
:101F20000260704770B502460020002300240B12A7
:101F30005568CEB205EA060415681D4015B10CB10E
:101F4000012000E0002070BD00220A12D34303608C
:101F50007047000001460020FE4A106800F038007B
:101F6000084310607047FB49096821F00801F94AED
:101F7000116011460968014311607047F54909680D
:101F800021F01001F34A1160114609680143116004
:101F90007047F148EF494860F04848607047EE48A4
:101FA000EC494860ED4848607047EA48006940F0F5
:101FB0008000E84908617047E648006940F0800009
:101FC000E449086170470420E249C96801F0010151
:101FD00009B101200EE0DF49C96801F0040109B12F
:101FE000022007E0DB49C96801F0100109B10320B4
:101FF00000E00420704700B502460423FFF7E3FF2A
:10200000034603E0FFF7DFFF0346521E012B01D119
:10201000002AF7D102B90523184600BD30B50446A1
:1020200004254FF43020FFF7E6FF0546042D17D1B5
:10203000C848006940F00200C6490861084644618A
:10204000006940F0400008614FF43020FFF7D3FFF3
:102050000546C048006941F6FD710840BD49086168
:10206000284630BD10B504244FF43020FFF7C3FFDD
:102070000446042C16D1B748006940F00400B54965
:1020800008610846006940F0400008614FF43020C4
:10209000FFF7B1FF0446AF48006941F6FB71084005
:1020A000AC490861204610BD00B502460423FFF785
:1020B0008AFF034603E0FFF786FF0346521E012B0B
:1020C00001D1002AF7D102B90523184600BD10B589
:1020D00004244FF43020FFF7E7FF0446042C16D108
:1020E0009C48006940F004009A490861084600696C
:1020F00040F0400008614FF43020FFF7D5FF044660
:102100009448006941F6FB710840924908612046F5
:1021100010BD00208F49C96901F0020109B10120F9
:1021200000E00020704730B5A5250424FFF7F1FF3B
:1021300000B100254FF43020FFF75DFF0446042C6A
:102140003AD1854883498860844888600846006998
:1021500040F0200008610846006940F04000086136
:102160004FF43020FFF747FF0446042C1BD1794879
:10217000006941F6DF710840764908610846006948
:1021800040F01000086176480580E002FFF733FF59
:102190000446052C10D06F48006941F6EF710840E5
:1021A0006C49086108E0052C06D06A48006941F6D0
:1021B000EF71084067490861204630BD78B5064692
:1021C0000C46042500200090E802FFF714FF0546A6
:1021D000042D24D15F48006940F001005D49086189
:1021E0003480E802FFF707FF0546042D10D1B01C2C
:1021F0000090200C00990880E802FFF7FCFE0546DD
:102200005448006941F6FE7108405249086106E0F1
:102210005048006941F6FE7108404E490861284661
:1022200078BD70B504460D460426F002FFF7E3FEC4
:102230000646042E11D14748006940F00100454987
:1022400008612580F002FFF7D6FE06464148006986
:1022500041F6FE7108403F490861304670BD70B5D7
:1022600005460E460424E002FFF7C5FE0446042C92
:1022700017D139483749886038488860084600696E
:1022800040F0100008612E80E002FFF7B4FE044623
:10229000052C06D02F48006941F6EF7108402D4902
:1022A0000861204670BD2DE9F04304464FF6FF76E5
:1022B0003746B046B1460425E443E6B2C4F30727E7
:1022C000C4F307484FEA1469E802FFF794FE054695
:1022D000042D49D120481F4988602048886008465D
:1022E000006940F010000861FF2E06D01C4808303D
:1022F0000680E802FFF77FFE0546042D08D1FF2F78
:1023000006D017480A300780E802FFF774FE05463A
:10231000042D0AD1B8F1FF0F07D011480C30A0F8F6
:102320000080E802FFF767FE0546042D0AD1B9F1E7
:10233000FF0F07D00A480E30A0F80090E802FFF720
:102340005AFE0546052D0FD00248006941F6EF718F
:10235000084007E00020024023016745AB89EFCD2C
:1023600000F8FF1F664908612846BDE8F08330B5D4
:10237000054604244FF43020FFF73DFE0446042CAC
:1023800041D160485E4988605F48886008460069BE
:1023900040F0200008610846006940F040000861F4
:1023A0004FF43020FFF727FE0446042C22D1544876
:1023B000006941F6DF71084051490861084600692B
:1023C00040F0100008611DB100205049088002E073
:1023D000A5204E4908804FF43020FFF70CFE04463C
:1023E000052C10D04648006941F6EF710840444979
:1023F000086108E0052C06D04148006941F6DF710C
:1024000008403F490861204630BDF0B505460E46FC
:10241000174604243B483A4988603B488860E002FC
:10242000FFF7E9FD0446042C19D13548006940F056
:1024300010003349086147F0F8003043284333491E
:10244000891C0880E002FFF7D6FD0446052C06D063
:102450002B48006941F6EF71084029490861204680
:10246000F0BD2748C069800870472548006A70475A
:1024700000202349096801F0200109B1012000E092
:102480000020704729B11E4A126902431C4B1A6191
:1024900004E01B4A12698243194B1A6170470146D6
:1024A0000020012908D1164AD26902F001020AB1BE
:1024B000012008E0002006E0114AD2680A400AB173
:1024C000012000E0002070470D49C86070470420DB
:1024D0000B49C96801F0010109B101200EE008496A
:1024E000C96801F0040109B1022007E00449C96884
:1024F00001F0100109B1032000E004207047000042
:102500000020024023016745AB89EFCD00F8FF1F93
:102510000CB50020019000906C48006840F48030B9
:102520006A49086000BF6948006800F40030009004
:102530000198401C0190009818B90198B0F5A06F5F
:10254000F1D16248006800F4003010B10120009021
:1025500001E0002000900098012843D15C48006809
:1025600040F010005A4908600846006820F0030057
:1025700008600846006840F0020008605348406860
:10258000524948600846406848600846406840F440
:10259000806048600846406820F47C104860084627
:1025A000406840F4E81048600846006840F08070D9
:1025B000086000BF4548006800F000700028F9D0AE
:1025C0004248406820F0030040494860084640689F
:1025D00040F00200486000BF3C48406800F00C003A
:1025E0000828F9D10CBD10B5FFF792FF10BD10B54A
:1025F0003648006840F001003449086008464068E9
:10260000344908403149486008460068324908406A
:102610002E4908600846006820F4802008600846BB
:10262000406820F4FE0048604FF41F008860FFF708
:10263000DAFF4FF000602949086010BD10B5002195
:1026400000200022214B5B6803F00C0121B104291A
:1026500006D0082928D107E0214B224C236027E02F
:102660001F4B204C236023E0184B5B6803F4701071
:10267000164B5B6803F48032022303EB904022B9CF
:10268000194B4343174C23600DE0104B5B6803F478
:10269000003323B1144B4343124C236003E0104B2F
:1026A0004343104C236003E00D4B0E4C236000BFEE
:1026B00000BF064B5B68C3F303130C4CE15C094B92
:1026C0001B68CB40074C236010BD00000010024087
:1026D000002002400000FFF8FFFFF6FE08ED00E0DA
:1026E00000127A001400002000093D0018000020AC
:1026F0000648804706480047FEE7FEE7FEE7FEE79C
:10270000FEE7FEE7FEE7FEE7FEE7FEE7EF2500084F
:10271000ED00000810B501210846FEF77DF8012103
:102720004548FDF78EFE10BD08B501210820FEF7D3
:1027300073F84FF48050ADF8000010208DF80300BE
:1027400003208DF8020069463C48FDF7A9FD08BD4D
:1027500010B53B48007838B90120394908700103A9
:102760003648FDF74AFE07E00020354908704FF46F
:1027700080513248FDF743FE10BD324A002105E08A
:1027800012F8013B00F8013B4B1CD9B20C29F7DBD6
:10279000704710B588B06846FFF7EFFF0C21684618
:1027A00001F090FA0446224627A1684603F002FF92
:1027B000684600F05EFC642001F077FA08B010BDB6
:1027C00010B5FFF7A7FF00F009FB00F073FB002036
:1027D00000F0A9FB00F042FE00F0E0FF00F0E6FF91
:1027E00001F043F800F06AFD01F0AEF800F060FA85
:1027F000142001F05AFA00F03FF8FFF795FF00F0BF
:1028000014FF01F0DFF84FF4FA7001F04EFA14A053
:1028100000F02FFC142001F048FA14A000F029FC6D
:10282000012000F080FB142001F03FFAFFF7B1FF18
:102830000EA000F01EFC10BD00023000000C014094
:1028400028000020E8F7FF1F41542B4E414D454D15
:1028500069616F774C6162732D253034580D0A0021
:1028600041542B42415544380D0A000041542B522B
:10287000455345540D0A00001CB53EA103C9CDE9DE
:1028800000016B4601226B21682000F0BEFD0DF1B6
:10289000010301221921682000F0B7FD0DF10203A8
:1028A00001221A21682000F0B0FD0DF1030301227E
:1028B0001B21682000F0A9FD01AB01221C2168202A
:1028C00000F0A3FD1CBD38B504466B46022221462C
:1028D000682000F0ADFD9DF801009DF8001000EBB0
:1028E000012000B238BD70B50446002524B93B2054
:1028F000FFF7E9FF05460CE0012C04D13D20FFF76E
:10290000E2FF054605E0022C03D13F20FFF7DBFF85
:102910000546284670BD70B50446002524B94320FD
:10292000FFF7D1FF05460CE0012C04D14520FFF74D
:10293000CAFF054605E0022C03D14720FFF7C3FF7D
:102940000546284670BD10B50020FFF7E4FF0B498F
:1029500008800220FFF7DFFF094908800120FFF708
:10296000C2FF084908800220FFF7BDFF0649088022
:1029700010BD000000070418010000002A0000201C
:102980002C0000202E0000203000002008B501217E
:102990000820FDF741FF01211020FDF73DFF4FF416
:1029A0006040ADF8000010208DF8030003208DF882
:1029B00002006946FE48FDF773FC4FF40050ADF885
:1029C00000006946FB48FDF76BFC08BD70B5044686
:1029D0000E462EB14FF40051F648FDF70EFD04E00F
:1029E0004FF40051F348FDF70AFD00251BE04FF4BA
:1029F0000041EF48FDF703FD04F0800028B14FF4DB
:102A00008041EB48FDF7F9FC04E04FF48041E848D1
:102A1000FDF7F5FC4FF40041E548FDF7EEFC6006DC
:102A2000040E681CC5B2082DE1DB4FF40051E148EB
:102A3000FDF7E3FC70BD70B504460D4605F1B0012D
:102A4000C8B20021FFF7C2FF102141EA1410002193
:102A5000FFF7BCFF04F00F0141F001000021FFF778
:102A6000B5FF70BD10B500218D20FFF7AFFF00212D
:102A70001420FFF7ABFF0021AF20FFF7A7FF10BD29
:102A800010B500218D20FFF7A1FF00211020FFF7D6
:102A90009DFF0021AE20FFF799FF10BD70B5002407
:102AA00019E004F1B001C8B20021FFF78FFF002147
:102AB0000846FFF78BFF00211020FFF787FF002556
:102AC00005E001210020FFF781FF681CC5B2802DC1
:102AD000F7DB601CC4B2082CE3DB70BD2DE9F041CC
:102AE00006460C4617464FF000080025A7F12000C7
:102AF00000F0FF087F2E02DD0026A01CC4B2601C7F
:102B0000C1B23046FFF797FF00250AE008EB480105
:102B1000A94A02EB4101485D0121FFF757FF681CFC
:102B2000C5B2062DF2DBBDE8F0812DE9F041044687
:102B30000F46154600260DE0AA5D39462046FFF7F0
:102B4000CDFFA01DC4B2782C02DD0024B81CC7B292
:102B5000701CC6B2A85D0028EED1BDE8F0812DE959
:102B6000F04180460E461546002731464046FFF7A5
:102B700062FF00240AE0914A02EB8511085D012101
:102B8000FFF724FF781CC7B2601CC4B2102CF2DB24
:102B9000701CC1B24046FFF74EFF00240CE06900F4
:102BA000491C864A02EB4111085D0121FFF70EFF27
:102BB000781CC7B2601CC4B2102CF0DBBDE8F081F9
:102BC0002DE9F05F06460F4690461C46DDF828A02A
:102BD0004FF0000BE11704EB5171C910A4EBC101D8
:102BE00031B92046E11704EB5171C1F3C70506E086
:102BF0002046E11704EB5171C910491CCDB23D4686
:102C000015E029463046FFF716FFB1460BE059465E
:102C10000BF1010B1AF801000121FFF7D7FE09F1B2
:102C2000010000F0FF09C145F1DB681CC5B2A542F7
:102C3000E7DBBDE8F09F2DE9F05F06460F469046C2
:102C40001C46DDF828A04FF0000BE11704EB517192
:102C5000C910A4EBC10131B92046E11704EB517151
:102C6000C1F3C70506E02046E11704EB5171C91016
:102C7000491CCDB23D4617E029463046FFF7DBFE42
:102C8000B1460DE059460BF1010B1AF80110C9438A
:102C9000C8B20121FFF79AFE09F1010000F0FF0917
:102CA000C145EFDB681CC5B2A542E5DBBDE8F09F7E
:102CB00010B5FFF76BFE4FF400513D48FDF79FFB49
:102CC000642000F0F2FF4FF400513948FDF795FB06
:102CD0000021AE20FFF77AFE00210846FFF776FEBE
:102CE00000211020FFF772FE00214020FFF76EFE4A
:102CF00000218120FFF76AFE0021CF20FFF766FE4A
:102D00000021A120FFF762FE0021C820FFF75EFE30
:102D10000021A620FFF75AFE0021A820FFF756FE4B
:102D200000213F20FFF752FE0021D320FFF74EFE87
:102D300000210846FFF74AFE0021D520FFF746FE96
:102D400000218020FFF742FE0021D920FFF73EFE40
:102D50000021F120FFF73AFE0021DA20FFF736FECE
:102D600000211220FFF732FE0021DB20FFF72EFEAC
:102D700000214020FFF72AFE00212020FFF726FE39
:102D800000210220FFF722FE00218D20FFF71EFE0A
:102D900000211420FFF71AFE0021A420FFF716FEE1
:102DA0000021A620FFF712FE0021AF2008E000005E
:102DB000000C014000100140A27300083200002006
:102DC000FFF704FE0021AF20FFF700FEFFF766FECD
:102DD00000210846FFF72FFE10BD000000B587B0A8
:102DE00001214FF40170FDF717FD4FF40040FDF78E
:102DF00077FC2020ADF8040000208DF8070001A921
:102E00002848FDF74DFA002002908DF80C000120B3
:102E10008DF80D004FF460200490002005900520EF
:102E20008DF8180002A92048FEF793FE0523012221
:102E300019461D48FEF725FF01211B48FEF7B5FE88
:102E40001948FEF7D4FE00BF1748FEF7D5FE00284C
:102E5000FAD11548FEF7DAFE00BF1348FEF7DBFE95
:102E60000028FAD101211048FEF7DFFE07B000BDAF
:102E70002DE9F0470024A1460B48FEF769FF814683
:102E8000484602F0D9FE0746084A094B02F0D9FD30
:102E9000054602F087FF0446204602F0F3FE80B2AA
:102EA000BDE8F0870008014000240140C7BAB88D92
:102EB00006F0DE3F00B585B0012144F20400FDF7C5
:102EC000ABFC4FF40070ADF8100018208DF8130023
:102ED00003208DF8120004A96E48FDF7E1F94FF4C4
:102EE0008060ADF8100004208DF8130004A9694833
:102EF000FDF7D6F94FF4E13000900020ADF8040062
:102F0000ADF80600ADF80800ADF80C000C20ADF8E7
:102F10000A0069466048FEF734FC01215E48FEF76E
:102F2000BCFC05B000BD10B586B004460121880484
:102F3000FDF77FFC01210820FDF76EFC4FF4806057
:102F4000ADF8140018208DF8170003208DF8160036
:102F500005A95248FDF7A4F94FF40060ADF814003C
:102F600004208DF8170005A94C48FDF799F91CB904
:102F70004FF41650019004E0012C02D14FF4E130DF
:102F800001900020ADF80800ADF80A00ADF80C0083
:102F9000ADF810000C20ADF80E0001A94048FEF776
:102FA000F0FB012240F225513D48FEF782FC012151
:102FB0003B48FEF772FC4FF4A060FDF7A3F8272012
:102FC0008DF8000000208DF8010004208DF802002B
:102FD00001208DF803006846FDF799F806B010BD92
:102FE00010B5044621462C48FEF7C4FC00BF402122
:102FF0002948FEF72DFD0128F9D110BD70B5044612
:103000000D46002605E014F8010BFFF7E9FF701CE0
:1030100086B2AE42F7DB70BD70B50446204602F0C2
:1030200077FB86B2002505E014F8010BFFF7D8FF07
:10303000681C85B2B542F7DB70BD10B50446214669
:103040001748FEF797FC00BF40211548FEF700FD2A
:103050000128F9D110BD70B504460D46002605E0E3
:1030600014F8010BFFF7E9FF701C86B2AE42F7DBE4
:1030700070BD70B50446204602F04AFB86B20025BA
:1030800005E014F8010BFFF7D8FF681C85B2B542C4
:10309000F7DB70BD0008014000380140000C014022
:1030A0000048004008B50720009002E00098401E4C
:1030B000009000980028F9D108BD10B54FF40070B9
:1030C000E549086040100860FFF7ECFFE248083867
:1030D000006808B9012000E0002000F4007008B189
:1030E000002010BD4FF40070DB49091D0860FFF798
:1030F000D9FFD9480838006800F4007008B10020F2
:10310000EFE74FF40070D449091D0860FFF7CAFFCC
:103110000120E6E710B54FF48070CF49091D086023
:10312000FFF7C0FF4FF40070CB49091D0860FFF79F
:10313000B9FF4FF48070C8490860FFF7B3FF4FF440
:103140000070C5490860FFF7ADFF10BD10B54FF422
:103150008070C149091D0860FFF7A4FF4FF400709B
:10316000BD49091D0860FFF79DFF4FF48070BA4903
:103170000860FFF797FF4FF48070B749091D08609A
:10318000FFF790FF10BD10B54FF48070B249091DD4
:103190000860FFF787FF4FF40070AF490860FFF742
:1031A00081FF4FF48070AC490860FFF77BFF4FF45C
:1031B0008070A949091D0860FFF774FF10BD10B5A4
:1031C0004FF48070A449091D0860FFF76BFF4FF4AE
:1031D0000070A1490860FFF765FF4FF480709E49B9
:1031E0000860FFF75FFF9C480838006800F4007033
:1031F00030B14FF480709849091D0860002010BD5F
:103200004FF480709449091D08600120F7E770B5FC
:10321000044608251DE04FF480708F49091D0860A1
:10322000FFF740FF04F0800020B14FF400708A499E
:10323000086004E04FF400708749091D08606006CB
:10324000040EFFF72FFF4FF4807083490860FFF7EB
:1032500029FF281EA5F10101CDB2DCD14FF4807009
:103260007D49091D086070BD70B508250024A801BE
:103270007949086016E06006040E4FF480707649C4
:10328000091D0860FFF70EFF4FF480707249086057
:10329000FFF708FF70480838006800F4007008B1B4
:1032A00044F00104281EA5F10101CDB2E3D14FF491
:1032B00080706949091D0860204670BD08B501216C
:1032C0000820FDF7A9FA4FF44070ADF80000022085
:1032D0008DF8020014208DF8030069465E4810380E
:1032E000FCF7DEFF08BD70B504460D461646FFF735
:1032F000E4FE08B9002070BD002141EA4401C8B2D3
:10330000FFF785FFFFF75BFF18B9FFF703FF00200A
:10331000F1E72846FFF77BFFFFF751FF3046FFF745
:1033200076FFFFF74CFFFFF7F5FE0120E3E72DE9FD
:10333000F04105460E4617469846FFF7BEFE10B907
:103340000020BDE8F081002141EA4501C8B2FFF745
:103350005EFFFFF734FF18B9FFF7DCFE0020F0E74F
:103360003046FFF754FFFFF72AFF00240BE018F860
:103370000400FFF74CFFFFF722FF18B9FFF7CAFE62
:103380000020DEE7641CBC42F1DBFFF7C3FE012036
:10339000D7E72DE9F04105460F4614461E46FFF7D4
:1033A0008CFE10B90020BDE8F081002141EA450102
:1033B000C8B2FFF72CFFFFF702FF18B9FFF7AAFE0C
:1033C0000020F0E73846FFF722FFFFF7F8FEFFF78F
:1033D00074FE012101EB4501C8B2FFF718FFFFF7AA
:1033E000EEFE0CE0FFF740FF3070012C02D1FFF73A
:1033F000CAFE01E0FFF7AAFE761C601EC4B2002CD4
:10340000F0D1FFF787FE0120CDE72DE9F04104461A
:103410000D4616461F463B46324629462046FFF7D4
:1034200086FF10B10020BDE8F0814FF0FF30FAE7D1
:103430002DE9F04104460D4616461F463B463246EE
:1034400029462046FFF7A5FF10B10020BDE8F08116
:103450004FF0FF30FAE70000100C014000B589B0D2
:103460000121C802FDF7D8F901210420FDF7D4F9A4
:103470004FF40060ADF8140048208DF8170005A93E
:103480007748FCF70DFF0420ADF8140010208DF8EC
:10349000170002208DF8160005A97148FCF700FFFF
:1034A0004FF6FF70ADF80C004720ADF80800002083
:1034B000ADF80E00ADF80A0002A96A48FDF7E4FA7B
:1034C0000C20ADF818000020ADF81A000120ADF86E
:1034D0001C000020ADF81E00ADF8200006A96148D0
:1034E000FDF765FD1B208DF8040002208DF8050016
:1034F00000208DF8060001208DF8070001A8FCF7D8
:1035000006FE012211215748FDF735FE01215548DD
:10351000FDF716FE09B000BD10B504215048FCF7B8
:103520006CFF142000F0B4FB04214D48FCF767FF4A
:103530004D48007800F08000E8B14B48007800F07A
:103540003F004A49086008460088000408600846B1
:10355000006847490968084444490860084600680B
:10356000AA21484342F2107190FBF1F03F490860F4
:1035700000203D49086010BD10B53B48007800F0C0
:10358000800000284CD101213648FEF7A2F8D0B1C6
:103590003548007800F04000A8B13348007800F0CA
:1035A0003F003F280AD13048006840F080002E4993
:1035B00008604FF6FF702E49086004E02A48006852
:1035C000401C2949086010212648FEF782F838B3CC
:1035D0002548007800F0400078B12348006840F0AA
:1035E0008000214908601F48FEF75DF82049086007
:1035F00000211C48FDF79CFF12E000201A490860DA
:103600001B49086000211748FEF72EF8164800688D
:1036100040F040001449086002211248FDF788FF7D
:1036200011211048FEF766F810BD10B54FF47A70FE
:1036300000F03BFB4FF400610948FCF7C4FE58B9A9
:10364000322000F032FB4FF400610548FCF7BBFE6E
:1036500010B901200749086010BD0648006870478E
:1036600000080140002C0140F4020020FC02002070
:10367000F80200200003002008B501210420FDF716
:10368000CBF801210820FDF7C7F81820ADF800009D
:1036900010208DF8030003208DF802006946A6482B
:1036A000FCF7FEFD0320ADF800006946A348FCF7D7
:1036B000F7FD1821A048FCF7A0FE03219F48FCF766
:1036C0009CFE08BD08B501210220FDF7B2F80121DA
:1036D0000420FDF7A1F801210820FDF79DF8C02086
:1036E000ADF8000018208DF8030003208DF80200CB
:1036F00069469148FCF7D4FD08BDF0B587B00027B6
:1037000000240025002640F2E730ADF81400032025
:10371000ADF810000020ADF81600ADF8120004A9B5
:103720008748FDF7B1F96020ADF800000120ADF841
:103730000200ADF806700020ADF808006946804828
:10374000FDF7DFF908217E48FDF72AFEADF80640B7
:1037500069467B48FDF717FA08217948FDF729FEED
:10376000ADF8065069467648FDF75AFA08217448C4
:10377000FDF72CFEADF8066069467148FDF79BFA2F
:1037800008216F48FDF72BFE01216D48FDF7D8FD9C
:1037900001216B48FDF7D4FC07B0F0BD10B5FFF771
:1037A0006BFFFFF78FFFFFF7A8FF10BD00B589B0D3
:1037B00001210846FDF73DF801210420FDF72CF812
:1037C00002A8FCF7F8FD0320ADF8080004208DF8EE
:1037D0000B0002A95848FCF763FD1C208DF804007B
:1037E00000208DF8050003208DF8060001208DF8DB
:1037F000070001A8FCF78BFC4FF08040FDF770F844
:1038000006A8FDF76DFC0020ADF818004FF6FF701C
:10381000ADF81C000020ADF81E00ADF81A0006A996
:103820004FF08040FDF730F900231A4603214FF096
:103830008040FDF738FD03A8FDF765FC0620ADF8D4
:10384000140003A94FF08040FDF7B1FB0121880768
:10385000FDF73CFF012211469007FDF78CFC01218A
:103860008807FDF76DFC09B000BD00B589B00121E6
:103870000420FCF7DEFF01210820FCF7CDFF02A8A1
:10388000FCF799FDC020ADF8080004208DF80B006E
:1038900002A92A48FCF704FD1E208DF80400002030
:1038A0008DF8050002208DF8060001208DF8070034
:1038B00001A8FCF72CFC2348FDF712F806A8FDF739
:1038C0000FFC0020ADF818004FF6FF70ADF81C009B
:1038D0000020ADF81E00ADF81A0006A91948FDF742
:1038E000D3F800231A4603211648FDF7DCFC03A891
:1038F000FDF709FC0620ADF8140003A91148FDF7F7
:1039000056FB01210F48FDF7E1FE012211460D484B
:10391000FDF731FC01210B48FDF712FC09B000BD99
:1039200010B501218807FDF7D1FE10BD10B50121AA
:103930000448FDF7CBFE10BD00080140000C01401B
:10394000000400400008004008B501210420FCF7F5
:1039500063FF01210820FCF75FFF48208DF803007A
:103960004FF40140ADF8000069462F48FCF798FC81
:103970002820ADF8000069462C48FCF791FC08BDF2
:1039800010B5002408212948FCF71DFD08B144F0BA
:10399000040420212548FCF716FD08B144F0010479
:1039A0004FF400412048FCF70EFD08B144F010042C
:1039B0004FF480711C48FCF706FD08B144F0400448
:1039C000204610BD10B5002420211848FCF7FBFC50
:1039D000012801D1601CC4B208211448FCF7F3FC93
:1039E000012801D1601CC4B24FF400410E48FCF71D
:1039F000EAFC012801D1601CC4B24FF480710A486E
:103A0000FCF7E1FC012801D1601CC4B2042C02D1F6
:103A100001200749087010BD0548007808B9012049
:103A200070470020FCE7000000080140000C014046
:103A30000403002000200DE0244931F81010002973
:103A400006DD224931F81010491E204A22F81010D4
:103A5000411CC8B20528EFDB704770B5FEF7EEFDDC
:103A60001B4800684FF47A72B0FBF2F1B1F1807F2D
:103A700001D301201DE021F07F40401E4FF0E022E5
:103A8000506150170F22002807DA13071D0E114B43
:103A900000F00F04241F1D5503E013071C0E0E4BEE
:103AA0001C5400BF00204FF0E022906107201061FD
:103AB000002008B100BFFEE74FF0E020006940F0B1
:103AC00001004FF0E021086170BD0000B008002047
:103AD0001400002018ED00E000E400E010B52448D8
:103AE000008800B110BD4FF47A7021490880214848
:103AF0000088401C1F490880FFF7BAF91E4908805A
:103B00001E48007808B100F0ADF9FEF721FE00BFB5
:103B1000E8E7FEF755FE00F027FC00F073FDFFF725
:103B20009CFFFFF779FF10B101201549086000F0F4
:103B300081FC01F058FB1AE0FFF7D0FF0C488088A9
:103B400020B914200A49888000F084FC0848C08805
:103B500068B90C4800880649C8800B48006810B94D
:103B600001F0AEFB03E0FFF7D7FC01F05DFCE3E7FB
:103B7000B00800200E070020100700200C030020D2
:103B80001C07002008030020E4070020704700BF46
:103B9000FEE700BFFEE700BFFEE700BFFEE770479D
:103BA00070477047704710B5FFF744FF3248007800
:103BB000401C3149087031480078401C2F4908707A
:103BC00001F059F92C480078052805DB00202A4926
:103BD000087000F06BFF2EE027480078012804D120
:103BE000FEF7B1FE00F0FEFF25E023480078022832
:103BF00004D101F083F801F0D5FA1CE01E480078EA
:103C0000032810D11E480078401C1D490870084642
:103C1000007805280FDB01F09AF800201849087099
:103C20001649087007E014480078042803D100F012
:103C3000C4FD00F041FE10BD10B540F22551114801
:103C4000FDF71CFFB8B110480078802802DB002087
:103C50000D4908700B48FDF791FEC1B20A48027881
:103C60000078401C084B18700848815440F22551D8
:103C70000448FDF72DFF10BD140700201607002093
:103C80001507002000480040F20200203008002004
:103C9000014605E0002001E0421CD0B20A28FBDB0F
:103CA0000A1EA1F10101F5D1704710B5044603E0E9
:103CB0004FF47A70FFF7ECFF201EA4F10104F7D156
:103CC00010BD704730B502460023002000BF04E05D
:103CD00012F8014B60405C1CE3B28B42F8DB30BD54
:103CE000F0B505460E461446002731462846FFF734
:103CF000E9FF0746A74201D10120F0BD0020FCE703
:103D000030B502460020002305E012F8015B2C18B4
:103D1000E0B25C1CE3B28B42F7DB30BD30B502464B
:103D20000B464FF6FF70002112E0555C68400024FE
:103D30000AE000F0010525B14AF2010585EA6000BC
:103D400000E04010651CECB2082CF2DB4D1CE9B21F
:103D50009942EADB30BD00002DE9F0478CB0FA490A
:103D6000FA48006801F0FEFC824601F0D7FF0446E5
:103D70000D46F549F648006801F0F4FC824601F072
:103D8000CDFF06460F46F049F248006801F0EAFC14
:103D9000824601F0C3FF804642460B46EEA104A8CE
:103DA000CDE90067CDE9024502F004FC04A8FFF765
:103DB00060F90CB0BDE8F0872DE9F0478CB0824681
:103DC000BAF1000F1BD1E949886801F0A7FF04464A
:103DD0000D46E649486801F0A1FF06460F46E34953
:103DE000086801F09BFF804642460B46E0A104A80C
:103DF000CDE90067CDE9024502F0DCFB1DE0BAF138
:103E0000010F1AD1DF49886801F088FF04460D468A
:103E1000DC49486801F082FF06460F46D949086828
:103E200001F07CFF804642460B46D7A104A8CDE9AD
:103E30000067CDE9024502F0BDFB04A8FFF719F9C0
:103E40000CB0BDE8F08700B589B0D448D44BD54A52
:103E5000D5A1009001A802F0ADFB01A8FFF709F978
:103E600009B000BD00B589B0D348008800EB8000E0
:103E70004200D2480388D2A101A802F09BFB01A80E
:103E8000FFF7F7F809B000BD2DE9FC5F06463446A0
:103E9000E0E12078232877D1CCA1601C01F040FC20
:103EA000009003F069FA074601F01FFFC5B2002D2C
:103EB0006ADD642D68DA0A2D14DA6119081DC4A1BF
:103EC00001F02EFC009003F057FA074601F00DFFB9
:103ED00000F0FF094A462946E01CFFF701FF824631
:103EE000E41C13E06119481DB9A101F019FC009010
:103EF00003F042FA074601F0F8FE00F0FF094A46D7
:103F00002946201DFFF7ECFE8246241DBAF1000F62
:103F10003AD0B0480078012865D1AFA1204601F021
:103F2000E5FB20B10021084601F079F85BE0ABA188
:103F3000204601F0DBFB40B3A4A1204601F0F0FBDA
:103F4000A2A1002001F0ECFB009003F015FA074657
:103F500001F028FF8346A2A1002001F0E1FB0090C0
:103F600003F00AFA074601F01DFF01909D490198F0
:103F700001F050FC07469B49584601F04BFC804637
:103F8000394601F04CF82EE063E1FFE796A12046A8
:103F900001F0ACFB38B38DA1204601F0C1FB8BA131
:103FA000002001F0BDFB009003F0E6F9074601F0A8
:103FB000F9FE83468AA1002001F0B2FB009003F0D5
:103FC000DBF9074601F0EEFE01904FF080415846C4
:103FD00001F052FC07468549019801F04DFC8046EE
:103FE000394601F01CF882A1204601F07FFB18B190
:103FF0000120784908702CE17EA1204601F076FB73
:1040000018B103207349087023E17BA1204601F019
:104010006DFB38B104206F4908707449002000F02E
:10402000FEFF16E175A1204601F060FB18B10220E9
:10403000684908700DE172A1204601F057FB70B38A
:1040400062A1204601F06CFB60A1002001F068FB3A
:10405000009003F091F9074601F0A4FE434908607F
:104060005AA1002001F05CFB009003F085F907469F
:1040700001F098FE3D49486059A1002001F050FB35
:10408000009003F079F9074601F08CFE374988600B
:10409000002000F090F90020FFF78EFED9E0FFE746
:1040A00058A1204601F022FB70B348A1204601F040
:1040B00037FB46A1002001F033FB009003F05CF9D0
:1040C000074601F06FFE2F49086040A1002001F073
:1040D00027FB009003F050F9074601F063FE2949E1
:1040E00048603FA1002001F01BFB009003F044F961
:1040F000074601F057FE23498860012000F05BF974
:104100000120FFF759FEA4E03FA1204601F0EEFA9E
:1041100018B10020FFF750FE9BE03CA1204601F0C3
:10412000E5FA18B10120FFF747FE92E038A12046DA
:1041300001F0DCFA30B1002000F058F90020FFF760
:104140003BFE86E066E0000000003443B807002034
:10415000C0070020C8070020562C252E30662C25CD
:104160002E30662C252E30660D0A000080070020B8
:1041700041502C252E32662C252E32662C252E32CF
:10418000660D0A008C07002053502C252E32662C19
:10419000252E32662C252E32660D0A00C47B0008BF
:1041A000BF7B0008BA7B0008492C25732C25732C93
:1041B00025730D0A00000000100700200E070020E4
:1041C000522C25642C25640D0A0000002C000000F0
:1041D0003B0000001207002043530000434A000048
:1041E0002A00000000002041434D00000000A040D4
:1041F000534E4B005355460053554100534954000C
:104200005341500053535000474150004753500012
:104210005241000017A1204601F068FA30B1012098
:1042200000F0E4F80120FFF7C7FD12E012A12046DC
:1042300001F05CFA28B1012010490870FFF703FE75
:1042400007E00FA1204601F051FA10B100200B4900
:104250000870641CA01B0B4909788842FFF619AE50
:104260000020084908708021074801F034FABDE8B1
:10427000FC9F000052560000524200000C03002038
:1042800052530000F2020020300800202DE9F041D6
:1042900006460D4617460024FDF77BFE3520FEF747
:1042A00013F900BF05E05F48205C5F490855601CBA
:1042B000C4B2802CF7DB002406E015F8010B31199D
:1042C000594A5054601CC4B2BC42F6DB5548FDF755
:1042D000A5FE002407E0544A1159524AA018FDF7E0
:1042E0006DFF201DC4B2802CF5DB3520FEF7ECF805
:1042F000FDF75BFEBDE8F08110B50346002006E047
:10430000484C1C44245C01F8014B441CE0B2904230
:10431000F6DB10BD08B5012269463220FFF7ECFF3D
:104320009DF80000012805D10C2240493320FFF7F9
:10433000E3FF04E00C223D490220FFF7DDFF0122EC
:1043400069464820FFF7D8FF9DF80000012805D1F5
:104350000C2237494920FFF7CFFF04E00C223449F3
:104360001220FFF7C9FF08BD08B5022269460020E8
:10437000FFF7C2FF9DF80000A52806D19DF80100B7
:104380005A2802D1FFF7C6FF14E0A5208DF80000DF
:104390005A208DF80100022269460020FFF776FFBF
:1043A0000C2222490220FFF771FF0C222049122023
:1043B000FFF76CFF08BD38B504460120009054B9E2
:1043C000012269463220FFF761FF0C221749332092
:1043D000FFF75CFF09E0012269464820FFF756FF1E
:1043E0000C2213494920FFF751FF38BD38B5044668
:1043F0000020009054B9012269463220FFF746FFA1
:104400000C220A490220FFF777FF09E001226946E2
:104410004820FFF73BFF0C2205491220FFF76CFFF5
:1044200038BD000000F00008BA0800208007002016
:104430008C07002008B54348082380220021009003
:104440000846FEF7BDFB4FF47A70FFF72EFCFEF72F
:1044500025FB08BD00B589B0202101A801F03BF97A
:1044600039480078401C384908700846007806280A
:1044700001DB002008703448007820B933A2002105
:104480000846FEF752FB30480078012815D1FFF7A7
:10449000E4F838B1334834A21521036801A802F0CA
:1044A0006FF805E037A338A2152101A802F068F8DB
:1044B00001AA01210020FEF738FB234800780228DA
:1044C0000CD13848B0F9003037A2152101A802F00C
:1044D00057F801AA02210020FEF727FB1A480078AE
:1044E00003280CD13648B0F9003036A2152101A8B6
:1044F00002F046F801AA03210020FEF716FB12483D
:10450000007804280BD1354835A21521036801A88D
:1045100002F036F801AA04210020FEF706FB0A4843
:10452000007805280BD1324832A21521036801A872
:1045300002F026F801AA05210020FEF7F6FA09B0DC
:1045400000BD00000D0300200D0700204D6F6465C5
:104550003A20436F6D706C656D656E746172792081
:1045600020000000FC02002044697374616E6365E2
:104570003A2020256428636D292020202020202037
:10458000000000007878000044697374616E636510
:104590003A2020257328636D292020202020202008
:1045A000000000003C070020456E636F4C65667498
:1045B0003A202025642020202020202020200000D8
:1045C0003E070020456E636F52696768743A202584
:1045D00064202020202020202020000050070020E0
:1045E0004C656674204D6F746F723A20256400002C
:1045F000540700205269676874204D6F746F723AD7
:10460000202564000020F7490880F7490880F74911
:104610000860F7490860F7490860F7490860F749FA
:104620000860F7490860F7490860F7490860F749EA
:104630000860F7490860F7490860F7490860F749DA
:104640000860F7490860F7490860F7490860F749CA
:104650000860F7490860F7490860F7490870F749AA
:104660000870F7490870F7490860F7490860F7498A
:104670000860F7490860F7490860F7490860704723
:1046800070B504460D460021F448006801F0A6FB11
:1046900034D11E2C0DDD1E2D0BDDF149DA480068EA
:1046A00001F0A6FB05D2EF49D748006801F096FB60
:1046B00011D314F11E0F1DDA15F11E0F1ADAE84995
:1046C000D148006801F094FB14D2E649CE48006856
:1046D00001F084FB0ED2E4480088401CE2490880C7
:1046E0000846008832280CDD002008800120DF49C0
:1046F000086006E00020DC49088002E00020DA497A
:10470000088070BD70B5D948006800B970BDD8493F
:10471000BD48006801F06CFB48D2D649BA48006831
:1047200001F05CFB42D2D4480088401CD24908808A
:104730000846008832283EDB00200880CF48016808
:10474000B148006801F060F8064601F0E7FA044657
:10475000CB4ACC4B01F0F6FA20D2C8480168AA48EF
:10476000006801F051F8064601F0D8FA0446C44A40
:10477000C54B01F0FFFA11D2C4480088401CC34960
:1047800008800846008804280BDB00200880BA490E
:1047900008809C490860B549086002E00020BB49D8
:1047A000088099480068B549086004E00020B249D3
:1047B0000880B649088000BFA8E710B58948B0F95D
:1047C00000108948B0F90000FFF75AFFFFF79AFF81
:1047D000A648006830B1AE48007840F00200AC490D
:1047E000087005E0AA48007820F00200A849087087
:1047F0009C498548006801F0FBFA05D39849824836
:10480000006801F0EBFA06D2A148007840F00400FD
:104810009F49087005E09E48007820F004009C49FC
:10482000087010BD70B504460D46002C09DA082149
:104830009848FBF7E2FD10219648FBF7E0FD644243
:1048400007E010219348FBF7D8FD08219148FBF7BA
:10485000D6FD002D09DA01218F48FBF7CEFD02219C
:104860008D48FBF7CCFD6D4207E002218A48FBF73B
:10487000C4FD01218848FBF7C2FDB5F57A7F01DB55
:1048800040F2E735B4F57A7F01DB40F2E734804847
:10489000007840B100218148FCF7EAFE00217F4802
:1048A000FCF7E8FE07E0A9B27C48FCF7E1FEA1B204
:1048B0007A48FCF7DFFE70BD70B55748016857486D
:1048C000006800F0A1FF054658480168284600F03E
:1048D0009BFF044672480168204600F095FF51494D
:1048E00008604D4801684D48006800F08DFF05469E
:1048F0004E480168284600F035FF044668480168C4
:10490000204600F02FFF464908604648006801F045
:10491000A0F9002807DD00214248006800F022FFCE
:10492000404908600CE03F48006801F092F9002817
:1049300006DA00213B48006800F066FF394908604C
:104940003748006801F085F9002807DD0021344868
:10495000006800F007FF324908600CE0304800684A
:1049600001F077F9002806DA00212D48006800F0F0
:104970004BFF2B4908602B48006801F06AF9B0F53D
:104980007A7F02DB4748274908602648006801F023
:1049900060F910F57A7F02DC43482249086020481C
:1049A000006801F056F9B0F57A7F02DB3D481C49FA
:1049B00008601B48006801F04CF910F57A7F02DCB2
:1049C0003948174908601648006801F042F9044662
:1049D0001448006801F03DF905462146FFF722FF23
:1049E00070BD00003E0700203C0700204407002067
:1049F000400700204C0700204807002070070020D7
:104A00006807002074070020B8070020C0070020B6
:104A1000C8070020B4070020200700202C07002032
:104A20003407002030070020A4070020A80700203A
:104A3000AC070020B0070020140700201507002055
:104A40001607002050070020540700205C070020B4
:104A50006007002078070020640700206C07002012
:104A60000000F0C10000F041D8070020D40700206A
:104A70000000A0C00000A040E2070020DC070020EA
:104A80009A9999999999E93F9999E9BFE007002086
:104A90001907002000080140000C014000040040FC
:104AA0003807002000C0794400C079C410B54FF029
:104AB0008040FCF7FCFD00B2FE490880FE48FCF790
:104AC000F6FD404200B2FD49088000204FF08041D1
:104AD0008884F94924310880F9480068F549B1F91A
:104AE00000100844F6490860F6480068F349B1F937
:104AF00000100844F3490860EE48B0F90000EF499F
:104B0000B1F90010401AF04909680844EE490860FC
:104B1000E848B0F90000E949B1F900100844EB4950
:104B200009680844E9490860E248B0F90000E3492F
:104B3000B1F900100844E64909680844E4490860EE
:104B4000E148006810F5E46F10DADF4800686FF4A0
:104B50000B6188420ADBDA480068DA4909680844D0
:104B6000DC4909680844DB49086014E0D64800685D
:104B700040F6B10188420EDCD3480068B0F5E46F1E
:104B800009DDCF480068CF4909680844D149096860
:104B9000081AD0490860D0480068C649B1F9001029
:104BA0000844CD490860CD480068C449B1F90010F7
:104BB0000844CA490860C84800680968401AC849DA
:104BC0000860C8480068BB49B1F90010401AC549DF
:104BD0000860C5480068B949B1F90010401AC249D7
:104BE000086010BD2DE9F04F87B0C048B0F9000053
:104BF00001F011F806460022BD4B00F094FFCDE90C
:104C00000201BC48B0F9000001F005F80646002298
:104C1000B74B00F088FF8046DDE9022302F0DEFAA0
:104C200004460022B44B00F00CFFB44AB44BCDE96B
:104C3000040100F078FF824601F0B4F8B149086041
:104C4000B148006800F0DEFF0446AE480168204627
:104C500000F0DDFDAB490860AC48B0F9000000F0A1
:104C6000DAFF06464FF06632A94B00F05CFF0446BF
:104C700001F01CF800B2A54908800846B0F9000010
:104C800000F0C0FFA34908609E48006801F046F8A4
:104C90000446A14AA14B00F0D4FECDE902019D4893
:104CA000006801F03BF882469B4A9D4B00F0C9FE2C
:104CB00006460F469B48006801F030F880463246B1
:104CC0003B4600F017FE0446974A984B00F0B9FEA9
:104CD000CDE90001DDE9022300F00CFECDE904017D
:104CE00001F060F88F49086000218E48006800F0EC
:104CF0008BFD8C49086007B0BDE8F08F2DE9F041CD
:104D00008B4988688B4900F0B7FD064681480168E9
:104D1000002000F079FD0746314600F07BFD044697
:104D200080480168002000F06FFD07468048016858
:104D3000384600F06FFD06467F4900F06BFD0546E2
:104D4000214600F00FFD7D490860BDE8F0812DE9A6
:104D5000FE4F61490968614A1268881800F05BFFDC
:104D600006460022764B00F06CFE044601F01AF86D
:104D70007449086000205949086057490860714823
:104D8000006800F0CBFF06464FF033326E4B00F068
:104D900058FE04460D466D48006800F0BFFF064609
:104DA0004FF066326A4B00F04CFE804622462B469E
:104DB00000F0A0FD824600F0F5FF62490860084659
:104DC0000068624908606348006800905D480168B7
:104DD000009800F019FD00905F480168009800F00D
:104DE00019FD02905C49486800F098FF8246002255
:104DF0005A4B00F098FE06460F46009800F08EFFD2
:104E0000804632463B4600F01CFE044600F0CAFFD6
:104E1000019053480199006800F0A4FC50490860D3
:104E2000504801684E48006800F09CFC4C490860FE
:104E30000846006800F00DFF00B2B0F52F7F02DDDC
:104E40004948474908604648006800F002FF00B240
:104E500010F5617F02DA454841490860444800681E
:104E6000444908603E480168029800F07BFC4049D4
:104E70000860BDE8FE8F2DE9F0413E4801683C48DE
:104E8000006800F0C1FC06463B480078401C00F07A
:104E9000B9FE0746314600F0BDFC0546374900F033
:104EA000EBFC044633480168204600F05BFC3449C3
:104EB000086067E03C070020000800403E07002033
:104EC00050070020540700205C07002060070020E6
:104ED000640700207C070020480700204C070020C2
:104EE00058070020CC070020D00700203000002009
:104EF0000000D0402E000020008066401F85EB514E
:104F0000B81E0940C80700201C0700202A00002006
:104F100066663040C00700207B14AE47E17A943FBC
:104F2000E17A743FB80700205C8FC2F5285CEF3F40
:104F300080070020000020410000A0402C07002036
:104F40000000E03F680700203333D33F70070020A4
:104F50006666E63F6C0700208C07002000002440B6
:104F600074070020A407002000002F44000061C443
:104F70002807002024070020160700200000C84151
:104F800020070020BDE8F0812DE9FC5F81468846BE
:104F900014461D460C9E2146404600F01FFF17D2C6
:104FA0002946304600F030FC41460190204600F092
:104FB0002BFC0090019900F05FFC82464146484678
:104FC00000F022FC8346514600F056FC074616E0EE
:104FD0002946304600F018FC83462146404600F042
:104FE00013FC5946009000F047FC82464146484673
:104FF00000F00DFC5146019000F03EFC07463146A2
:10500000384600F0F5FE01D2374605E0294638461D
:1050100000F0E4FE00D22F463846BDE8FC9F38B5CC
:1050200005460C460021284600F0E2FE0AD27A48E6
:1050300000237A4A194600902846FFF7A5FF7849D1
:1050400008600BE074480023764A19460090284611
:10505000FFF79AFF80F00040714908600021204668
:1050600000F0C6FE0AD2704800236C4A1946009030
:105070002046FFF789FF6D4908600BE06A4800236E
:10508000684A194600902046FFF77EFF80F00040F6
:105090006649086038BD10B50446FCB9644800682C
:1050A000002808DB624800680C2804DC6149002005
:1050B000FFF7B5FF34E05E480068122809DD5C4860
:1050C00000681E2805DC4FF081410020FFF7A7FF94
:1050D00026E000210846FFF7A2FF21E0012C1FD1A6
:1050E0005348006800280EDB5148006814280ADC89
:1050F00000215148FFF793FF40F2EE204F4908602E
:1051000040424F4908604D480068002808DA4C4882
:105110000068002804DD4FF081410020FFF77FFF89
:1051200010BD2DE9F04188B000260025FEF728FCCF
:10513000044604F0040008B13A4E1AE004F00200FC
:1051400008B1404E15E004F0010008B1394E10E0FE
:1051500004F0400008B1314E0BE004F0200008B12B
:10516000394E06E004F0100010B14FF0814600E027
:105170000026364D29463046FFF751FF284600F0FD
:1051800068FD0746304600F064FD80463B464246D7
:105190002FA1684601F00EFA6846FDF73DFF08B002
:1051A000BDE8F08170B530490968304A1268881A44
:1051B00000F028FD06462E484168304600F02AFBE4
:1051C00004462C490968484200F01CFD0646284860
:1051D0000168304600F01EFB0546214600F0C2FA89
:1051E0002549086070BD002021490860486088603A
:1051F000704716481E4908602048486000208860B3
:105200007047642803DB0849084A116002E01C4922
:10521000064A1160704700000000C84300002041AA
:10522000A8070020000020C100008C426C0700206D
:10523000FC020020000080C00000A040CC0700203D
:10524000D00700200000C0C00000C0400000404067
:1052500053746565723A25642C2053706565643A11
:1052600025640D0A00000000780700205C0700207C
:105270009807002058070020380700209A99993E87
:105280000000824210B5FEF77BFB474908700846D4
:10529000007800F001004549086043480078C0F3F9
:1052A00080004349086040480078C0F3001041493D
:1052B00008603D480078C0F380103F49086010BD89
:1052C00010B5FFF7DFFF3D480068002802DA002034
:1052D0003A4908603A4800681E2191FBF0F03749CE
:1052E000096888420FDC0120364908603648374992
:1052F0000860002036490860364908603649086071
:10530000FFF777FF10BD4FF084403049086029480F
:10531000006888B12848006870B12448006858B116
:105320002348006840B100202949086023480068EC
:10533000401C2249086034E01D48006840B12748FD
:10534000234908601D480068401E1C49086028E089
:105350001948006840B122481D4908601748006894
:10536000401E164908601CE01048006840B11D4806
:105370001749086011480068401E1049086010E095
:105380000C48006840B11848114908600B48006893
:10539000401E0A49086004E008480068401E0749AA
:1053A000086000BFAEE70000E8070020EC0700201F
:1053B000F0070020F4070020F8070020FC07002079
:1053C00008030020E40700200000A0416C07002033
:1053D000A8070020640700207C07002000007AC393
:1053E00000007A43000002C3000002434FF08441F2
:1053F000974A11600121974A1160C0EB001202EB3D
:10540000420101EBD1725210934B1A6019460968A0
:10541000924A1268914203DA9149924A116002E07D
:105420009149904A1160704770B590480068E0B1AA
:105430008F4801680068401C8D4A1060642910DDA7
:105440000020834908608B490860486088608A4969
:1054500008604860874988608849086048608860BB
:1054600002E087487A49086070BD7A480068A8B1B0
:105470007A48016878480068C83081420DDC764877
:105480000068C838754909688842F7DC002071490E
:105490000860744908607B490860D6E07A48006873
:1054A0004FF4967191FBF0F078490968884208DC66
:1054B00001206E4908606C4865490860FFF799FE55
:1054C000D2E772480068002804DD70480068801E3A
:1054D0006E490860FFF7D6FE6D480068B8B16D48A8
:1054E0000068A0B16C48006888B16C48006870B171
:1054F0006B48006841F28831884208DB69485449AA
:10550000086062480068C01C60490860ACE76648F3
:105510000068A8BB6548006865490968884215DDD0
:1055200000206249086063480068002806DB5A20B2
:10553000FFF75CFF01205C49086007E06FF059004D
:10554000FFF754FF4FF0FF30574908605A48006892
:10555000002816DD5848006858490968884210DA62
:105560005748006800F0DAFB04460022554B00F073
:1055700001FC06D24D480068401C4C49086064E0BC
:1055800004E04D480068FFF73CFE5EE046480068D6
:1055900001282DD14548006845490968884208DD41
:1055A000002042490860FFF721FF00203E490860C3
:1055B0004BE041480068002815DD3F4800683F493E
:1055C000096888420FDA3E48006800F0A7FB0446ED
:1055D00000223C4B00F0CEFB05D234480068401C52
:1055E0003249086031E034480068FFF70AFE2CE0D9
:1055F0002E4800682E490968884208DD00202B49A2
:105600000860FFF7F3FE0020274908601DE02A48E4
:105610000068002815DD2848006828490968884284
:105620000FDA2748006800F079FB04460022254B7A
:1056300000F0A0FB05D21D480068401C1B49086013
:1056400003E01D480068FFF7DCFD00BF0CE7000029
:105650006C07002004080020780700205C07002069
:10566000000020C1A8070020000020410C080020F5
:1056700024080020800700208C07002098070020C5
:1056800000008C4260070020080300202008002052
:10569000EC070020F0070020F4070020F8070020A6
:1056A000640700200000A040000800201C08002023
:1056B000180800207C070020FC02002014080020AD
:1056C000B8070020000024C0D2B201E000F8012B8E
:1056D000491EFBD270470022F6E710B513460A4672
:1056E00004461946FFF7F0FF204610BD30B50546C9
:1056F0002A460B4612F8010B13F8014B08B1A042E1
:10570000F8D01CB1002802D06D1CF1E7284630BD4E
:10571000421C10F8011B0029FBD1801A70470000C1
:1057200070B50F4D00B92868002412E00A4602E067
:105730009E4203D0521C1378002BF9D1DAB22243D7
:1057400005D02BB124B1002100F8011B04E0044670
:10575000401C0678002EE9D12860204670BD00006C
:1057600028080020F0B480EA0102D40F4200B2EB16
:10577000410F02D20246084611464A0042D0C30DEC
:10578000DDB2C1F3C752AD1A202D35DAC1F31601CF
:1057900041F4000204B15242C5F1200602FA06F1BA
:1057A0002A411044B3EBD05F23D0C4B1012DA0EB4C
:1057B000C35009DCF0BC4FF0004202EAC352DBB236
:1057C00000F5000000F0EDBB400000F1807000EB40
:1057D000C350A0F1807040EAD170490009E0490847
:1057E00041EAC071A0EBC35000F50000400800EB97
:1057F000C350F0BC00F0CCBB6142012202EB41017E
:10580000001BF6E7F0BC704781F00041AAE780F08A
:105810000040A7E780EA010210B502F00043400013
:1058200022D04A001FD0010E01EB1261C0F35600D6
:10583000C2F3560240F4000042F40002A0FB022032
:1058400000047F39140400D0401C50EA124001D4F7
:105850004000491EC2B20C0604EBD010401C4008A8
:10586000802A02D003E0002010BD20F001000029B2
:1058700000DA0020184310BD30B480EA010202F0C3
:10588000004530F0004221F0004013D090B1C30D2C
:10589000D40DC2F31601C0F31600E41A41F400015E
:1058A00040F400027D34914201D3641C00E04900C1
:1058B000002C02DA30BC002070474FF400000023B7
:1058C000914201D3891A034340084FEA4101F7D1BD
:1058D00051B1914202D14FF0004105E002D24FF0A8
:1058E000010101E06FF0010103EBC450284430BC1A
:1058F00000F04EBB2DE9FE4F804681EA0300C00F49
:105900000C46009021F0004123F00045B8EB020066
:10591000A94105D24046214690461C460B46024608
:1059200023F00040104347D0270DC7F30A00C3F30C
:105930000A510290401A019040286BDAC3F3130019
:1059400040F4801B0098924620B10023D2EB030A5A
:1059500063EB0B0B01985946C0F14002504600F032
:1059600098FA06460D4650465946019A00F0B0FA9C
:1059700010EB08006141002487EA115284EAE773C2
:105980001A4340D0009A62B3019A012A4FEA0752A3
:1059900015DC001B61EB02014FF0004202EA0752E6
:1059A000CDE90042001C41F5801132462B4600F043
:1059B00035FB03B0BDE8F08F40462146F9E7001BF8
:1059C00061EB0201001C41F5801300185B412018B7
:1059D000A2F5001747EB030140EAD570B6196D41F7
:1059E00011E06D084FEA360645EAC0754FEA0752E6
:1059F000001B61EB0201001C41F5801149084FEAD0
:105A000030000019514132462B4603B0BDE8F04F3B
:105A100000F0F5BA0098012240000023D0EB02020A
:105A200063EBE073009821464FEAE074B8EB0000A6
:105A300061EB0401E9E783F000435BE781F000419B
:105A400058E72DE9FE4F81EA030404F0004421F0F9
:105A5000004100944FF0000B23F0004350EA010492
:105A60005ED052EA03045BD0C3F30A54C1F30A5573
:105A70002C44A4F2F3340194A0FB0254C1F31301AB
:105A800041F48011C3F3130343F4801301FB024478
:105A900000FB034E840A970A44EA815447EA83577D
:105AA000A4FB076802958D0A05FB07854FEA932C36
:105AB00004FB0C542705029D4FEA065847EA1637A7
:105AC000B5EB08056EEB070C870E920E47EA8117BF
:105AD00042EA8312A7FB0201B6EB0B0164EB000460
