:020000040800F2
:10000000380D0020F1260008493E00084B3E00084C
:100010004F3E0008533E0008573E00080000000015
:100020000000000000000000000000005B3E00082F
:100030005D3E0008000000005F3E0008633E0008CF
:100040000B2700080B2700080B2700080B270008C8
:100050000B2700080B2700080B2700080B270008B8
:100060000B2700080B2700080B2700080B270008A8
:100070000B2700080B2700080B2700080B27000898
:100080000B2700080B2700080B2700080B27000888
:100090000B2700080B2700080B2700080B27000878
:1000A0000B270008613E00080B270008793500087F
:1000B000213900080B2700082D3900080B270008FC
:1000C0000B2700080B2700080B2700080B27000848
:1000D0000B2700080B2700080B270008F53E000837
:1000E0000B2700080B2700080B270008DFF810D0AB
:1000F00005F0F2FE00480047B13C0008AFF3008075
:10010000380D002031490143314A1160704770B504
:10011000002100230F22C47804B32D4C246804F47A
:10012000E064C4F5E064210AC1F10403CA404478E4
:1001300004FA03F18478144021430901254C067820
:10014000A155047804F01F050124AC4005786D1119
:10015000AD0005F1E025C5F8004109E0047804F0A0
:100160001F050124AC401C4D0678761145F8264049
:1001700070BD1A4A0A400243154B1B1F1A60704794
:1001800039B1134A121D12680243114B1B1D1A602C
:1001900006E00F4A121D126882430D4B1B1D1A60A8
:1001A0007047042808D14FF0E021096941F00401AB
:1001B0004FF0E022116107E04FF0E021096921F0E2
:1001C00004014FF0E0221161704700000000FA05C1
:1001D0000CED00E000E400E080E100E080FFFF1FA4
:1001E00010B50446CC48844208D10121042000F017
:1001F0002DFB0021042000F029FB46E0C748844283
:1002000008D10121082000F021FB0021082000F086
:100210001DFB3AE0C248844208D10121102000F0C1
:1002200015FB0021102000F011FB2EE0BD48844298
:1002300008D10121202000F009FB0021202000F03E
:1002400005FB22E0B848844208D10121402000F09B
:10025000FDFA0021402000F0F9FA16E0B34884428C
:1002600008D10121802000F0F1FA0021802000F067
:10027000EDFA0AE0AE48844207D10121801500F072
:10028000E5FA0021A01500F0E1FA10BD10B501213A
:10029000084600F0DBFA0021012000F0D7FA10BD7B
:1002A0002DE9F0410246002500260020002300240D
:1002B000002791F803C00CF00F0591F803C00CF073
:1002C000100CBCF1000F03D091F802C04CEA0505F8
:1002D00091F800C0BCF1000F31D0146800202BE071
:1002E0004FF0010C0CFA00F3B1F800C00CEA030661
:1002F0009E4220D183004FF00F0C0CFA03F7BC4351
:1003000005FA03FC4CEA040491F803C0BCF1280F81
:1003100006D14FF0010C0CFA00FCC2F814C00AE040
:1003200091F803C0BCF1480F05D14FF0010C0CFA55
:1003300000FCC2F810C0401C0828D1D31460B1F8EA
:1003400000C0BCF1FF0F34DD546800202EE000F146
:10035000080C4FF0010808FA0CF3B1F800C00CEAE1
:1003600003069E4221D183004FF00F0C0CFA03F7D5
:10037000BC4305FA03FC4CEA040491F803C0BCF149
:10038000280F05D100F1080C08FA0CF8C2F8148007
:1003900091F803C0BCF1480F07D100F1080C4FF0F1
:1003A000010808FA0CF8C2F81080401C0828CED3C7
:1003B0005460BDE8F0814FF6FF7101800221817029
:1003C0000421C17070470246002093680B400BB1B6
:1003D000012000E0002070470146886880B2704725
:1003E00002460020D3680B400BB1012000E0002042
:1003F00070470146C86880B270470161704741612B
:1004000070470AB1016100E041617047C160704707
:100410004FF480320A43826181618261826982691C
:10042000704702460020434B18684FF6807318400F
:1004300040EA021008433F4B186070473E49C861CC
:100440007047F0B50A46002300240021002500F083
:100450000046B6F1004F02D1364EF16901E0354E4B
:100460007168C0F3034583B200F44016B6F5401F2F
:1004700008D121F070612F4E766826F070662D4FFE
:100480007E6012E000F48016B6F5801F06D10326C8
:1004900006FA05F4A14341F0706106E0460D36010D
:1004A00003FA06F6B14341F0706122B1460D360100
:1004B00003FA06F6314300F00046B6F1004F02D1D0
:1004C0001C4EF16101E01B4E7160F0BD30B50022A1
:1004D0008B071C0F0F2303FA04F2164B08338C1002
:1004E00053F824309343134C08348D1044F82530CE
:1004F00023468C1053F824308C07240F00FA04F4A0
:1005000023430C4C08348D1044F8253030BD0A4983
:10051000DC3108607047000000080140000C014019
:10052000001001400014014000180140001C01406F
:10053000002001400000014000002042DF48006828
:1005400040F00100DD49086008464068DC49084089
:10055000DA49486008460068DA490840D749086027
:100560000846006820F4802008600846406820F4AF
:10057000FE0048604FF41F0088607047CF4909684B
:1005800021F48031CD4A11601146096821F480219F
:100590001160B0F5803F03D0B0F5802F0ED106E09A
:1005A000C649096841F48031C44A116007E0C34973
:1005B000096841F4A021C14A116000E000BF00BFFA
:1005C000704710B501460022002300204A11012A7D
:1005D00002D1BA4C236806E0022A02D1B74C236A42
:1005E00001E0B64C636A01F01F02012494401C40F4
:1005F0000CB1012000E0002010BD38B500200090B3
:100600000024002500BF3120FFF7DBFF05460098DE
:10061000401C00900098B0F5A06F01D0002DF2D0E2
:100620003120FFF7CEFF08B1012400E0002420466E
:1006300038BD01460020A14A106820F0F80040EAC9
:10064000C10010607047A049086070470246002052
:100650009A4B586820F47C1042EA01031843974BE8
:100660005860704798490866704701460020934AD1
:10067000506820F003000843506070478F4840687E
:1006800000F00C007047014600208C4A506820F0B2
:10069000F00008435060704701460020874A5068C8
:1006A00020F4E06008435060704701460020834A10
:1006B000506820F4605040EAC1005060704729B192
:1006C0007E4A527A02437D4B5A7204E07B4A527A48
:1006D00082437A4B5A7270477B49D8310860704721
:1006E00001460020754A506820F44040084350609D
:1006F00070470021714A20321170704A82F8201030
:10070000012802D004280AD104E001216B4A2032DA
:10071000117005E00521694A2032117000E000BF28
:1007200000BF70476949086070476449096A01431E
:10073000624A11627047654944390860704730B5B4
:1007400000210022002400235C4D6D6805F00C019F
:1007500021B1042905D0082923D105E05C4D0560AD
:1007600022E05B4D05601FE0544D6D6805F470128A
:10077000524D6D6805F48034022505EB92421CB998
:10078000544D554305600BE04C4D6D6805F4003544
:100790001DB1504D5543056002E04D4D5543056078
:1007A00002E04B4D056000BF00BF444D6D6805F091
:1007B000F0010909484D6B5C0568DD4045603F4D1F
:1007C0006D6805F4E061090A434D6B5C4568DD40E6
:1007D00085603A4D6D6805F46051C90A3E4D6B5C09
:1007E0004568DD40C560354D6D6805F44041890BB5
:1007F0003A4D6B5CC568B5FBF3F5056130BD29B1B9
:100800002E4A526902432D4B5A6104E02B4A526929
:1008100082432A4B5A61704729B1284A92690243A0
:10082000264B9A6104E0254A92698243234B9A61E0
:10083000704729B1214AD2690243204BDA6104E0B2
:100840001E4AD26982431D4BDA61704729B11B4AA7
:10085000D2680243194BDA6004E0184AD268824336
:10086000164BDA60704729B1144A12690243134BE0
:100870001A6104E0114A12698243104B1A617047F1
:1008800012494039086070470F49C86470470B49E6
:10089000C87170470948406A40F080700749486253
:1008A000704701460020054A92680A400AB10120BB
:1008B00000E0002070470149887270470010024034
:1008C0000000FFF8FFFFF6FE0000424280044242B3
:1008D00000127A0000093D000000002010000020F6
:1008E00010B50446FE48844208D10121C014FFF728
:1008F000ADFF0021E014FFF7A9FFC4E0B4F1804F81
:1009000008D101210846FFF7AEFF00210120FFF7C3
:10091000AAFFB8E0F348844208D101210220FFF782
:10092000A2FF00210220FFF79EFFACE0EE488442C8
:1009300008D101210420FFF796FF00210420FFF7D2
:1009400092FFA0E0E948844208D101210820FFF786
:100950008AFF00210820FFF786FF94E0E4488442E4
:1009600008D101211020FFF77EFF00211020FFF7A2
:100970007AFF88E0DF48844208D101212020FFF778
:1009800072FF00212020FFF76EFF7CE0DA488442EE
:1009900008D101214014FFF759FF00216014FFF72F
:1009A00055FF70E0D548844209D10121C804FFF702
:1009B0004DFF00214FF40020FFF748FF63E0D048CF
:1009C000844209D101210805FFF740FF00214FF4BF
:1009D0008010FFF73BFF56E0CA48844209D101214D
:1009E0004805FFF733FF00214FF40010FFF72EFFFB
:1009F00049E0C548844208D101214020FFF733FF78
:100A000000214020FFF72FFF3DE0C048844208D17D
:100A100001218020FFF727FF00218020FFF723FF1F
:100A200031E0BB48844208D101218015FFF71BFF4C
:100A30000021A015FFF717FF25E0B648844209D131
:100A400001210804FFF702FF00214FF48030FFF777
:100A5000FDFE18E0B048844209D101214804FFF7A7
:100A6000F5FE00214FF40030FFF7F0FE0BE0AB483D
:100A7000844208D101218804FFF7E8FE00214FF4E9
:100A80008020FFF7E3FE10BD00220288944B9842BD
:100A90000ED0994B98420BD0B0F1804F08D0914BBB
:100AA000984205D0904B984202D0904B984204D186
:100AB0004FF68F731A404B881A438D4B984207D0DC
:100AC0008C4B984204D04FF6FF431A40CB881A4310
:100AD00002808B8883850B880385814B98420BD0DD
:100AE000854B984208D08B4B984205D08A4B984250
:100AF00002D08A4B984201D10B7A0386012383826C
:100B0000704770B5002400220023058C4FF6FE7656
:100B100035400584028C8388048B4FF68F752C40FA
:100B2000B51E2C400D882C43751E2A400D892A4382
:100B30004D882A436A4DA8420BD06F4DA84208D079
:100B4000744DA84205D0744DA84202D0734DA842FE
:100B500013D14FF6F7752A404D892A434FF6FB759E
:100B60002A408D882A434FF6FF652B404FF6FF55EC
:100B70002B408D892B43CD892B4383800483CD88E3
:100B80008586028470BD70B5002400220023058C88
:100B90004FF6EF7635400584028C8388048B48F647
:100BA000FF752C404FF6FF452C400D884FF6FF7621
:100BB00006EA05252C434FF6DF752A400D8906EA23
:100BC00005152A434D8806EA05152A43444DA842D7
:100BD00002D0494DA8421DD14FF67F752A404D895C
:100BE0004FF6FF7606EA05152A434FF6BF752A40F1
:100BF0008D8806EA05152A434FF6FF352B404FF244
:100C0000FF752B408D8906EA85052B43CD8906EAC1
:100C100085052B4383800483CD880587028470BDBE
:100C200070B5002400220023058C4FF6FF66354086
:100C30000584028C8388848B4FF68F752C404FF689
:100C4000FC752C400D882C434FF6FF552A400D892A
:100C50004FF6FF7606EA05252A434D8806EA052564
:100C60002A431F4DA84202D0234DA8421DD14FF266
:100C7000FF752A404D894FF6FF7606EA05252A437F
:100C80004FF6FF352A408D8806EA05252A434EF6A1
:100C9000FF752B404DF6FF752B408D8906EA051533
:100CA0002B43CD8906EA05152B4383808483CD88A9
:100CB0008587028470BD70B5002200230024058C56
:100CC0004EF6FF7635400584038C8488828B48F687
:100CD000FF752A404FF6FF452A400D8820E00000AE
:100CE000002C01400004004000080040000C0040BF
:100CF000001000400014004000340140004C01404E
:100D0000005001400054014000180040001C004009
:100D100000200040004001400044014000480140E4
:100D20004FF6FF7606EA05252A434DF6FF752B4060
:100D30000D8906EA05352B434D8806EA05352B4318
:100D4000FA4DA84202D0FA4DA84208D14BF6FF75E1
:100D50002C408D894FF6FF7606EA85152C4384805A
:100D60008283CD88A0F84050038470BD828B4FF2FF
:100D7000FF331A408283828B4FF6FF7303EA01230D
:100D80001A4382837047F0B50C46154600220021B5
:100D90000026078C4EF6FF7C07EA0C070784828B3F
:100DA000018C4FF6FF7707EA043640F6FF473A40DA
:100DB0004FF6FF7707EA05273A434FF6FF7707EA32
:100DC00003373A43D94FB8420ED0D94FB8420BD06F
:100DD000B0F1804F08D0D74FB84205D0D64FB842B7
:100DE00002D0D64FB84206D14DF6FF77394046F4CF
:100DF0008057394305E047F6FF57394044F48057A0
:100E0000394382830184F0BD828B4FF6F3731A401D
:100E10008283828B0A4382837047F0B50C46154665
:100E2000002200210026078C4FF6FF6C07EA0C0712
:100E30000784828B018C4FF6FF7707EA04264FF672
:100E40000C773A404FF6FF7707EA03172F433A43F0
:100E5000B64FB8420ED0B64FB8420BD0B0F1804F6B
:100E600008D0B44FB84205D0B34FB84202D0B34F08
:100E7000B84206D14FF6FF57394046F480773943E0
:100E800005E04FF2FF57394044F4807739438283BD
:100E90000184F0BD028B4FF2FF331A400283028BB4
:100EA0004FF6FF7303EA01231A4302837047F0B53C
:100EB0000C461546002200210026078C4FF6EF7CD9
:100EC00007EA0C070784028B018C4FF6FF7707EACD
:100ED000041640F6FF473A404FF6FF7707EA03371C
:100EE0003A434FF6FF7707EA05273A438F4FB84258
:100EF0000ED08F4FB8420BD0B0F1804F08D08D4F3D
:100F0000B84205D08C4FB84202D08C4FB84206D1BF
:100F10004FF6DF77394046F01007394305E04FF6CA
:100F20005F77394044F01007394302830184F0BDF4
:100F3000028B4FF6F3731A400283028B0A4302833B
:100F40007047F0B50C46154600220021068C4FF67E
:100F5000FE773E400684028B018C4FF60C763240C1
:100F60007E1C06EA03162E433243704EB0420ED06A
:100F70006F4EB0420BD0B0F1804F08D06D4EB042F2
:100F800005D06D4EB04202D06C4EB04206D14FF645
:100F9000FD76314044F00106314305E04FF6F57629
:100FA000314044F00106314302830184F0BD70B545
:100FB00005460C465D4885420ED05D4885420BD003
:100FC000B5F1804F08D05B48854205D05A4885422C
:100FD00002D05A48854200D100E000BF208850B9B5
:100FE0002389A28861882846FFF7ABFFE18828465D
:100FF000FFF79EFF25E0208804280AD12389A288D4
:1010000061882846FFF753FFE1882846FFF742FF33
:1010100017E0208808280AD12389A28861882846F9
:10102000FFF7FBFEE1882846FFF7EEFE09E0238983
:10103000A28861882846FFF7A6FEE1882846FFF7C8
:1010400095FE70BD2DE9F04105460C4600260127AE
:10105000608808B9022600E00026A088012801D196
:10106000022700E001272088A0B92389A28861888F
:101070002846FFF766FFE1882846FFF759FF2389D6
:101080003A4631462846FFF712FFE1882846FFF727
:1010900001FF13E02389A28861882846FFF707FF34
:1010A000E1882846FFF7F6FE23893A46314628466E
:1010B000FFF747FFE1882846FFF73AFFBDE8F081D8
:1010C0000A884B881A438B881A43CB881A430B89AA
:1010D0001A434B891A438B891A43A0F8442070475E
:1010E0004FF6FF71818000210180C1804180017233
:1010F00070470021018041808180C1800181418150
:101100008181C1817047002101804180012181805E
:101110000021C180018170470021018041808180D0
:10112000C18001814181818170470000002C014014
:10113000003401400004004000080040000C004062
:1011400021B1028842F00102028004E002884FF6D9
:10115000FE731A400280704731B1B0F8442042F467
:101160000042A0F8442005E0B0F84420C2F30E028B
:10117000A0F8442070471AB183890B43838102E0B1
:1011800083898B43838170478182704741EA0203E0
:10119000A0F8483070471AB183890B43838102E07D
:1011A00083898B438381704701894FF6F872114020
:1011B000018170470A46002101894FF68F7319405B
:1011C00011430181704730B504460D46294620463B
:1011D000FFF7F0FF208940F00700208130BD2DE9A6
:1011E000F04104460D4616461F46602D06D13B468B
:1011F000012231462046FFF75AFE05E03B46012218
:1012000031462046FFF79DFE29462046FFF7D2FFD4
:10121000208940F007002081BDE8F08130B50C4600
:1012200000210189C9B24FF6FF7505EA0325154370
:1012300025432943018130BD2DE9F04105460E4685
:1012400017469846002443463A4631462846FFF75B
:10125000E5FF2C894FF6F870044044F007044FF680
:101260008F70044044F070042C81BDE8F081F0B52B
:1012700004460D4616461F463B4632462946204642
:10128000FFF7CCFF208940F480402081F0BD01852C
:10129000828270470A46002101884FF68F731940F9
:1012A000114301807047F0B50C4615461E460021DB
:1012B000002200230189028B038C4FF6F877394016
:1012C00021434FF6FC473A4040F201173A434FF6AC
:1012D000DD773B404FF6FF7707EA06172F433B4386
:1012E000018102830384F0BD0A460021018B4FF681
:1012F0008F7319401143018370470A460021018B07
:1013000048F6FF7319404FF6FF7303EA02231943AF
:10131000018370470A460021818B4FF68F73194075
:101320001143818370470A460021818B48F6FF7381
:1013300019404FF6FF7303EA022319438183704774
:1013400021B1028842F08002028004E002884FF658
:101350007F731A400280704721B1828842F00402F4
:10136000828004E082884FF6FB731A4082807047C7
:1013700021B1828842F00802828004E082884FF620
:10138000F7731A408280704721B1828842F00102CF
:10139000828004E082884FF6FE731A408280704794
:1013A0000A460021018B4FF6F77319401143018360
:1013B00070470A460021018B4FF2FF7319404FF628
:1013C000FF7303EA02231943018370470A46002191
:1013D000818B4FF6F77319401143818370470A469A
:1013E0000021818B4FF2FF7319404FF6FF7303EA20
:1013F00002231943818370470A460021018B4FF66F
:10140000FB7319401143018370470A460021018B89
:101410004FF6FF3319404FF6FF7303EA02231943D7
:10142000018370470A460021818B4FF6FB731940F8
:101430001143818370470A460021818B4FF6FF33A9
:1014400019404FF6FF7303EA022319438183704763
:101450000A460021018B4FF67F7319401143018327
:1014600070470A460021018BC1F30E014FF6FF734E
:1014700003EA02231943018370470A460021818B46
:101480004FF67F7319401143818370470A4600214C
:10149000818BC1F30E014FF6FF7303EA0223194358
:1014A000818370470A460021018C4FF6FD73194075
:1014B0001143018470470A460021018C4FF6F773EF
:1014C00019401143018470470A460021018C4FF6F0
:1014D000DF7319404FF6FF7303EA021319430184C7
:1014E00070470A460021018C4FF67F7319404FF672
:1014F000FF7303EA02131943018470470A4600216F
:10150000018C4FF6FF5319404FF6FF7303EA022395
:101510001943018470470A460021018C4FF2FF7382
:1015200019404FF6FF7303EA022319430184704701
:101530000A460021018C4DF6FF7319404FF6FF73E8
:1015400003EA023319430184704730B500230124B4
:101550008C40A3B2048C9C430484048C02FA01F5F1
:10156000ADB22C43048430BD30B5002304248C403C
:10157000A3B2048C9C430484048C02FA01F5ADB23E
:101580002C43048430BD70B5034600200024184667
:10159000183001258D40ACB21D8CA5431D8409B1C6
:1015A000082909D100EB6100056825F07005056088
:1015B0000568154305600EE00D1FC5F34E05284470
:1015C000056825F4E045056005684FF6FF7606EAF4
:1015D00002263543056070BD21B1028842F0020247
:1015E000028004E002884FF6FD731A4002807047C3
:1015F00021B1028842F00402028004E002884FF622
:10160000FB731A400280704721B1828842F0800249
:10161000828004E082884FF67F731A408280704790
:1016200002884FF6F7731A40028002880A4302804C
:10163000704782884FF68F731A40828082880A43EF
:101640008280704702894FF6F8731A40028102893E
:101650000A430281704702894FF67F731A40028164
:1016600002890A43028170478184704781857047EF
:10167000818670470187704781877047A0F84010C6
:10168000704702884FF6FF431A40028002880A43DF
:10169000028070470146888E70470146088F704768
:1016A0000146888F70470146B1F8400070470146F7
:1016B000888C70470146088D704702460020138AC7
:1016C0000B400BB1012000E000207047CA430282AA
:1016D000704730B50246002000230024158A05EA31
:1016E0000103958905EA010413B10CB1012000E062
:1016F000002030BDCA4302827047000010B5044686
:10170000FB48844209D101218803FFF79FF800219B
:101710004FF48040FFF79AF832E0F648844209D14E
:1017200001214804FFF79FF800214FF40030FFF734
:101730009AF825E0F048844209D101218804FFF796
:1017400092F800214FF48020FFF78DF818E0EB4865
:10175000844209D10121C804FFF785F800214FF424
:101760000020FFF780F80BE0E548844208D1012112
:101770000805FFF778F800214FF48010FFF773F8A1
:1017800010BD2DE9F04786B005460E460024A2465E
:1017900000BFA1460027B08900B100BF2F462C8AA8
:1017A0004CF6FF700440F08804432C82AC894EF65E
:1017B000F3100440B0883189084371890843044319
:1017C000AC81AC8A4FF6FF400440B0890443AC8240
:1017D00001A8FEF7B4FFC648874202D1DDF810A089
:1017E00001E0DDF80CA0A88900F4004040B10AEB4C
:1017F000CA0000EB0A1031684900B0FBF1F807E0BD
:101800000AEBCA0000EB0A1031688900B0FBF1F85E
:101810006420B8FBF0F004012009642101FB108969
:10182000A88900F4004040B1322000EBC900B0FBB1
:10183000F1F000F00700044308E0322000EB09104B
:101840006421B0FBF1F000F00F0004432C8106B0DE
:10185000BDE8F0874FF41651016000218180C180FE
:1018600001810C21418100218181704710B5024620
:101870000020108A4FF2FF0318400B884C88234346
:101880008C882343CC8823431843108210BD002149
:10189000018041808180C180704721B1828942F4FA
:1018A0000052828104E082894DF6FF731A408281E2
:1018B0007047F0B50346002400260025002040F6BE
:1018C0006A17B94200D100BF1846C1F3421401F0B3
:1018D0001F06012707FA06F5012C01D10C3004E0A0
:1018E000022C01D1103000E014301AB107682F43E8
:1018F000076002E00768AF430760F0BD1AB1838A52
:101900000B43838202E0838A8B4383827047028A7F
:101910004FF6F0731A400282028A0A43028270472D
:1019200082894FF2FF731A40828182890A43828141
:10193000704721B1828942F00202828104E08289EB
:101940004FF6FD731A4082817047028A4FF6DF73AB
:101950001A400282028A0A430282704721B1028A37
:1019600042F48042028204E0028A4BF6FF731A407E
:1019700002827047C1F3080282807047014688885E
:10198000C0F308007047818941F0010181817047EF
:10199000028BD2B20283028B42EA01220283704799
:1019A000028B02F47F420283028B0A430283704758
:1019B00021B1828A42F02002828204E0828A4FF6BC
:1019C000DF731A408282704721B1828A42F010028E
:1019D000828204E0828A4FF6EF731A408282704757
:1019E00021B1828A42F00802828204E0828A4FF6A4
:1019F000F7731A408282704721B1828942F4004213
:101A0000828103E08289C2F30E028281704721B194
:101A1000828A42F40062828204E0828A4FF2FF737B
:101A20001A4082827047828A4FF6FB731A40828284
:101A3000828A0A438282704721B1828A42F002027E
:101A4000828204E0828A4FF6FD731A4082827047D8
:101A500002460020B1F5007F00D100BF13880B4083
:101A60000BB1012000E00020704701F40072B2F5D4
:101A7000007F00D100BFCA430280704770B50246A4
:101A8000002400230025002040F66A16B14200D150
:101A900000BFC1F3421501F01F03012606FA03F34C
:101AA000012D02D19689334006E0022D02D1168A1B
:101AB000334001E0968A33400C12012606FA04F402
:101AC0001688344013B10CB1012000E0002070BD35
:101AD00010B50022002340F66A14A14200D100BFD5
:101AE0000A1201249440A3B2DC43048010BD00001C
:101AF000003801400044004000480040004C0040D5
:101B00000050004010B50446FA48844208D1012133
:101B10004015FEF79BFE00216015FEF797FE17E0CB
:101B2000F548844208D101210015FEF78FFE0021FF
:101B30002015FEF78BFE0BE0F048844208D101210E
:101B4000C803FEF783FE00214FF40040FEF77EFE3F
:101B500010BD30B50246002000235068E84C2040FC
:101B60000D790C6844EA0524204350609068E54CE8
:101B70002040D1E902542C434D7944EA45042043E6
:101B80009060D06A20F470000C7C641EE4B22343A1
:101B900040EA0350D06230BD002101600171417103
:101BA0008160C16001210174704721B1826842F0F7
:101BB0000102826003E0826822F0010282607047C5
:101BC00021B1826842F48072826003E0826822F46C
:101BD00080728260704710B50023CBB21AB144689E
:101BE0001C43446002E044689C43446010BD81682B
:101BF00041F0080181607047014600208A6802F0C8
:101C000008020AB1012000E000207047816841F01D
:101C1000040181607047014600208A6802F00402D6
:101C20000AB1012000E00020704721B1826842F42F
:101C3000A002826003E0826822F4A0028260704702
:101C4000014600208A6802F480020AB1012000E007
:101C50000020704710B50A4600210023416821F496
:101C60006041531E41EA4331416010BD21B14268D9
:101C700042F40062426003E0426822F40062426083
:101C80007047F0B504460D4600200021092D11DDF6
:101C9000E068A5F10A0606EB4607072606FA07F1F3
:101CA0008843A5F10A0606EB460603FA06F1084347
:101CB000E0600CE0206905EB4507072606FA07F10E
:101CC000884305EB450603FA06F108432061072A1D
:101CD0000FDA606B561E06EB86071F2606FA07F121
:101CE0008843561E06EB860605FA06F10843606334
:101CF00022E00D2A0FDA206BD61F06EB86071F267F
:101D000006FA07F18843D61F06EB860605FA06F1A8
:101D10000843206310E0E06AA2F10D0606EB860797
:101D20001F2606FA07F18843A2F10D0606EB860688
:101D300005FA06F10843E062F0BD21B1826842F481
:101D40008012826003E0826822F480128260704711
:101D50000146C86C80B2704766484C3000687047D6
:101D600021B1426842F48062426003E0426822F49A
:101D700080624260704721B1426842F48052426002
:101D800003E0426822F48052426070470A46002114
:101D9000816821F4E04111438160704721B182687C
:101DA00042F40042826003E0826822F400428260D2
:101DB000704721B1826842F40212826003E08268B7
:101DC00022F4021282607047014600208A6802F401
:101DD00000120AB1012000E000207047F0B504466F
:101DE0001546002000220026092911DDE068A1F136
:101DF0000A0707EB470C072707FA0CF29043A1F1FB
:101E00000A0707EB470703FA07F21043E0600CE00C
:101E1000206901EB410C072707FA0CF2904301EB14
:101E2000410703FA07F210432061A06BC0F301568B
:101E3000EF1C06F1010CA7EB0C0707EB870C1F2723
:101E400007FA0CF29043EF1C06F1010CA7EB0C070C
:101E500007EB870701FA07F21043A063F0BD10B546
:101E60000A4600210023816B21F44011531E41EAF0
:101E70000351816310BD08B5002300930090009BBF
:101E80000B440093009B1A6008BD08B50246002071
:101E90000090009201F12800009B184400900098E7
:101EA000006880B208BD0A4600214168164B1940FF
:101EB0001143416070474162826270470A460021C7
:101EC000416821F01F0111434160704740B1094949
:101ED0000831096841F40001064A0832116007E040
:101EE00004490831096821F40001024A08321160EE
:101EF000704700000024014000280140003C0140E0
:101F0000FFFEF0FFFDF7F1FFFFFD3FFF024600205F
:101F100013680B400BB1012000E000207047CA435A
:101F20000260704770B502460020002300240B12A7
:101F30005568CEB205EA060415681D4015B10CB10E
:101F4000012000E0002070BD00220A12D34303608C
:101F50007047000001460020FE4A106800F038007B
:101F6000084310607047FB49096821F00801F94AED
:101F7000116011460968014311607047F54909680D
:101F800021F01001F34A1160114609680143116004
:101F90007047F148EF494860F04848607047EE48A4
:101FA000EC494860ED4848607047EA48006940F0F5
:101FB0008000E84908617047E648006940F0800009
:101FC000E449086170470420E249C96801F0010151
:101FD00009B101200EE0DF49C96801F0040109B12F
:101FE000022007E0DB49C96801F0100109B10320B4
:101FF00000E00420704700B502460423FFF7E3FF2A
:10200000034603E0FFF7DFFF0346521E012B01D119
:10201000002AF7D102B90523184600BD30B50446A1
:1020200004254FF43020FFF7E6FF0546042D17D1B5
:10203000C848006940F00200C6490861084644618A
:10204000006940F0400008614FF43020FFF7D3FFF3
:102050000546C048006941F6FD710840BD49086168
:10206000284630BD10B504244FF43020FFF7C3FFDD
:102070000446042C16D1B748006940F00400B54965
:1020800008610846006940F0400008614FF43020C4
:10209000FFF7B1FF0446AF48006941F6FB71084005
:1020A000AC490861204610BD00B502460423FFF785
:1020B0008AFF034603E0FFF786FF0346521E012B0B
:1020C00001D1002AF7D102B90523184600BD10B589
:1020D00004244FF43020FFF7E7FF0446042C16D108
:1020E0009C48006940F004009A490861084600696C
:1020F00040F0400008614FF43020FFF7D5FF044660
:102100009448006941F6FB710840924908612046F5
:1021100010BD00208F49C96901F0020109B10120F9
:1021200000E00020704730B5A5250424FFF7F1FF3B
:1021300000B100254FF43020FFF75DFF0446042C6A
:102140003AD1854883498860844888600846006998
:1021500040F0200008610846006940F04000086136
:102160004FF43020FFF747FF0446042C1BD1794879
:10217000006941F6DF710840764908610846006948
:1021800040F01000086176480580E002FFF733FF59
:102190000446052C10D06F48006941F6EF710840E5
:1021A0006C49086108E0052C06D06A48006941F6D0
:1021B000EF71084067490861204630BD78B5064692
:1021C0000C46042500200090E802FFF714FF0546A6
:1021D000042D24D15F48006940F001005D49086189
:1021E0003480E802FFF707FF0546042D10D1B01C2C
:1021F0000090200C00990880E802FFF7FCFE0546DD
:102200005448006941F6FE7108405249086106E0F1
:102210005048006941F6FE7108404E490861284661
:1022200078BD70B504460D460426F002FFF7E3FEC4
:102230000646042E11D14748006940F00100454987
:1022400008612580F002FFF7D6FE06464148006986
:1022500041F6FE7108403F490861304670BD70B5D7
:1022600005460E460424E002FFF7C5FE0446042C92
:1022700017D139483749886038488860084600696E
:1022800040F0100008612E80E002FFF7B4FE044623
:10229000052C06D02F48006941F6EF7108402D4902
:1022A0000861204670BD2DE9F04304464FF6FF76E5
:1022B0003746B046B1460425E443E6B2C4F30727E7
:1022C000C4F307484FEA1469E802FFF794FE054695
:1022D000042D49D120481F4988602048886008465D
:1022E000006940F010000861FF2E06D01C4808303D
:1022F0000680E802FFF77FFE0546042D08D1FF2F78
:1023000006D017480A300780E802FFF774FE05463A
:10231000042D0AD1B8F1FF0F07D011480C30A0F8F6
:102320000080E802FFF767FE0546042D0AD1B9F1E7
:10233000FF0F07D00A480E30A0F80090E802FFF720
:102340005AFE0546052D0FD00248006941F6EF718F
:10235000084007E00020024023016745AB89EFCD2C
:1023600000F8FF1F664908612846BDE8F08330B5D4
:10237000054604244FF43020FFF73DFE0446042CAC
:1023800041D160485E4988605F48886008460069BE
:1023900040F0200008610846006940F040000861F4
:1023A0004FF43020FFF727FE0446042C22D1544876
:1023B000006941F6DF71084051490861084600692B
:1023C00040F0100008611DB100205049088002E073
:1023D000A5204E4908804FF43020FFF70CFE04463C
:1023E000052C10D04648006941F6EF710840444979
:1023F000086108E0052C06D04148006941F6DF710C
:1024000008403F490861204630BDF0B505460E46FC
:10241000174604243B483A4988603B488860E002FC
:10242000FFF7E9FD0446042C19D13548006940F056
:1024300010003349086147F0F8003043284333491E
:10244000891C0880E002FFF7D6FD0446052C06D063
:102450002B48006941F6EF71084029490861204680
:10246000F0BD2748C069800870472548006A70475A
:1024700000202349096801F0200109B1012000E092
:102480000020704729B11E4A126902431C4B1A6191
:1024900004E01B4A12698243194B1A6170470146D6
:1024A0000020012908D1164AD26902F001020AB1BE
:1024B000012008E0002006E0114AD2680A400AB173
:1024C000012000E0002070470D49C86070470420DB
:1024D0000B49C96801F0010109B101200EE008496A
:1024E000C96801F0040109B1022007E00449C96884
:1024F00001F0100109B1032000E004207047000042
:102500000020024023016745AB89EFCD00F8FF1F93
:102510000CB50020019000906C48006840F48030B9
:102520006A49086000BF6948006800F40030009004
:102530000198401C0190009818B90198B0F5A06F5F
:10254000F1D16248006800F4003010B10120009021
:1025500001E0002000900098012843D15C48006809
:1025600040F010005A4908600846006820F0030057
:1025700008600846006840F0020008605348406860
:10258000524948600846406848600846406840F440
:10259000806048600846406820F47C104860084627
:1025A000406840F4E81048600846006840F08070D9
:1025B000086000BF4548006800F000700028F9D0AE
:1025C0004248406820F0030040494860084640689F
:1025D00040F00200486000BF3C48406800F00C003A
:1025E0000828F9D10CBD10B5FFF792FF10BD10B54A
:1025F0003648006840F001003449086008464068E9
:10260000344908403149486008460068324908406A
:102610002E4908600846006820F4802008600846BB
:10262000406820F4FE0048604FF41F008860FFF708
:10263000DAFF4FF000602949086010BD10B5002195
:1026400000200022214B5B6803F00C0121B104291A
:1026500006D0082928D107E0214B224C236027E02F
:102660001F4B204C236023E0184B5B6803F4701071
:10267000164B5B6803F48032022303EB904022B9CF
:10268000194B4343174C23600DE0104B5B6803F478
:10269000003323B1144B4343124C236003E0104B2F
:1026A0004343104C236003E00D4B0E4C236000BFEE
:1026B00000BF064B5B68C3F303130C4CE15C094B92
:1026C0001B68CB40074C236010BD00000010024087
:1026D000002002400000FFF8FFFFF6FE08ED00E0DA
:1026E00000127A001400002000093D0018000020AC
:1026F0000648804706480047FEE7FEE7FEE7FEE79C
:10270000FEE7FEE7FEE7FEE7FEE7FEE7EF2500084F
:10271000ED00000810B501210846FEF77DF8012103
:102720004548FDF78EFE10BD08B501210820FEF7D3
:1027300073F84FF48050ADF8000010208DF80300BE
:1027400003208DF8020069463C48FDF7A9FD08BD4D
:1027500010B53B48007838B90120394908700103A9
:102760003648FDF74AFE07E00020354908704FF46F
:1027700080513248FDF743FE10BD324A002105E08A
:1027800012F8013B00F8013B4B1CD9B20C29F7DBD6
:10279000704710B588B06846FFF7EFFF0C21684618
:1027A00001F0EEFB0446224627A1684603F0FAFD3D
:1027B000684600F05EFC642001F0D5FB08B010BD57
:1027C00010B5FFF7A7FF00F009FB00F073FB002036
:1027D00000F0A9FB00F042FE00F0E0FF00F0E6FF91
:1027E00001F043F800F06AFD01F0AEF800F060FA85
:1027F000142001F0B8FB00F03FF8FFF795FF00F060
:1028000014FF01F0E2F84FF4FA7001F0ACFB14A0F1
:1028100000F02FFC142001F0A6FB14A000F029FC0E
:10282000012000F080FB142001F09DFBFFF7B1FFB9
:102830000EA000F01EFC10BD00023000000C014094
:1028400028000020E8F7FF1F41542B4E414D454D15
:1028500069616F774C6162732D253034580D0A0021
:1028600041542B42415544380D0A000041542B522B
:10287000455345540D0A00001CB53EA103C9CDE9DE
:1028800000016B4601226B21682000F0BEFD0DF1B6
:10289000010301221921682000F0B7FD0DF10203A8
:1028A00001221A21682000F0B0FD0DF1030301227E
:1028B0001B21682000F0A9FD01AB01221C2168202A
:1028C00000F0A3FD1CBD38B504466B46022221462C
:1028D000682000F0ADFD9DF801009DF8001000EBB0
:1028E000012000B238BD70B50446002524B93B2054
:1028F000FFF7E9FF05460CE0012C04D13D20FFF76E
:10290000E2FF054605E0022C03D13F20FFF7DBFF85
:102910000546284670BD70B50446002524B94320FD
:10292000FFF7D1FF05460CE0012C04D14520FFF74D
:10293000CAFF054605E0022C03D14720FFF7C3FF7D
:102940000546284670BD10B50020FFF7E4FF0B498F
:1029500008800220FFF7DFFF094908800120FFF708
:10296000C2FF084908800220FFF7BDFF0649088022
:1029700010BD000000070418010000002A0000201C
:102980002C0000202E0000203000002008B501217E
:102990000820FDF741FF01211020FDF73DFF4FF416
:1029A0006040ADF8000010208DF8030003208DF882
:1029B00002006946FE48FDF773FC4FF40050ADF885
:1029C00000006946FB48FDF76BFC08BD70B5044686
:1029D0000E462EB14FF40051F648FDF70EFD04E00F
:1029E0004FF40051F348FDF70AFD00251BE04FF4BA
:1029F0000041EF48FDF703FD04F0800028B14FF4DB
:102A00008041EB48FDF7F9FC04E04FF48041E848D1
:102A1000FDF7F5FC4FF40041E548FDF7EEFC6006DC
:102A2000040E681CC5B2082DE1DB4FF40051E148EB
:102A3000FDF7E3FC70BD70B504460D4605F1B0012D
:102A4000C8B20021FFF7C2FF102141EA1410002193
:102A5000FFF7BCFF04F00F0141F001000021FFF778
:102A6000B5FF70BD10B500218D20FFF7AFFF00212D
:102A70001420FFF7ABFF0021AF20FFF7A7FF10BD29
:102A800010B500218D20FFF7A1FF00211020FFF7D6
:102A90009DFF0021AE20FFF799FF10BD70B5002407
:102AA00019E004F1B001C8B20021FFF78FFF002147
:102AB0000846FFF78BFF00211020FFF787FF002556
:102AC00005E001210020FFF781FF681CC5B2802DC1
:102AD000F7DB601CC4B2082CE3DB70BD2DE9F041CC
:102AE00006460C4617464FF000080025A7F12000C7
:102AF00000F0FF087F2E02DD0026A01CC4B2601C7F
:102B0000C1B23046FFF797FF00250AE008EB480105
:102B1000A94A02EB4101485D0121FFF757FF681CFC
:102B2000C5B2062DF2DBBDE8F0812DE9F041044687
:102B30000F46154600260DE0AA5D39462046FFF7F0
:102B4000CDFFA01DC4B2782C02DD0024B81CC7B292
:102B5000701CC6B2A85D0028EED1BDE8F0812DE959
:102B6000F04180460E461546002731464046FFF7A5
:102B700062FF00240AE0914A02EB8511085D012101
:102B8000FFF724FF781CC7B2601CC4B2102CF2DB24
:102B9000701CC1B24046FFF74EFF00240CE06900F4
:102BA000491C864A02EB4111085D0121FFF70EFF27
:102BB000781CC7B2601CC4B2102CF0DBBDE8F081F9
:102BC0002DE9F05F06460F4690461C46DDF828A02A
:102BD0004FF0000BE11704EB5171C910A4EBC101D8
:102BE00031B92046E11704EB5171C1F3C70506E086
:102BF0002046E11704EB5171C910491CCDB23D4686
:102C000015E029463046FFF716FFB1460BE059465E
:102C10000BF1010B1AF801000121FFF7D7FE09F1B2
:102C2000010000F0FF09C145F1DB681CC5B2A542F7
:102C3000E7DBBDE8F09F2DE9F05F06460F469046C2
:102C40001C46DDF828A04FF0000BE11704EB517192
:102C5000C910A4EBC10131B92046E11704EB517151
:102C6000C1F3C70506E02046E11704EB5171C91016
:102C7000491CCDB23D4617E029463046FFF7DBFE42
:102C8000B1460DE059460BF1010B1AF80110C9438A
:102C9000C8B20121FFF79AFE09F1010000F0FF0917
:102CA000C145EFDB681CC5B2A542E5DBBDE8F09F7E
:102CB00010B5FFF76BFE4FF400513D48FDF79FFB49
:102CC000642001F050F94FF400513948FDF795FBAD
:102CD0000021AE20FFF77AFE00210846FFF776FEBE
:102CE00000211020FFF772FE00214020FFF76EFE4A
:102CF00000218120FFF76AFE0021CF20FFF766FE4A
:102D00000021A120FFF762FE0021C820FFF75EFE30
:102D10000021A620FFF75AFE0021A820FFF756FE4B
:102D200000213F20FFF752FE0021D320FFF74EFE87
:102D300000210846FFF74AFE0021D520FFF746FE96
:102D400000218020FFF742FE0021D920FFF73EFE40
:102D50000021F120FFF73AFE0021DA20FFF736FECE
:102D600000211220FFF732FE0021DB20FFF72EFEAC
:102D700000214020FFF72AFE00212020FFF726FE39
:102D800000210220FFF722FE00218D20FFF71EFE0A
:102D900000211420FFF71AFE0021A420FFF716FEE1
:102DA0000021A620FFF712FE0021AF2008E000005E
:102DB000000C014000100140927100083200002018
:102DC000FFF704FE0021AF20FFF700FEFFF766FECD
:102DD00000210846FFF72FFE10BD000000B587B0A8
:102DE00001214FF40170FDF717FD4FF40040FDF78E
:102DF00077FC2020ADF8040000208DF8070001A921
:102E00002848FDF74DFA002002908DF80C000120B3
:102E10008DF80D004FF460200490002005900520EF
:102E20008DF8180002A92048FEF793FE0523012221
:102E300019461D48FEF725FF01211B48FEF7B5FE88
:102E40001948FEF7D4FE00BF1748FEF7D5FE00284C
:102E5000FAD11548FEF7DAFE00BF1348FEF7DBFE95
:102E60000028FAD101211048FEF7DFFE07B000BDAF
:102E70002DE9F0470024A1460B48FEF769FF814683
:102E8000484602F0D1FD0746084A094B02F0D1FC42
:102E9000054602F07FFE0446204602F0EBFD80B2BC
:102EA000BDE8F0870008014000240140C7BAB88D92
:102EB00006F0DE3F00B585B0012144F20400FDF7C5
:102EC000ABFC4FF40070ADF8100018208DF8130023
:102ED00003208DF8120004A96E48FDF7E1F94FF4C4
:102EE0008060ADF8100004208DF8130004A9694833
:102EF000FDF7D6F94FF4E13000900020ADF8040062
:102F0000ADF80600ADF80800ADF80C000C20ADF8E7
:102F10000A0069466048FEF734FC01215E48FEF76E
:102F2000BCFC05B000BD10B586B004460121880484
:102F3000FDF77FFC01210820FDF76EFC4FF4806057
:102F4000ADF8140018208DF8170003208DF8160036
:102F500005A95248FDF7A4F94FF40060ADF814003C
:102F600004208DF8170005A94C48FDF799F91CB904
:102F70004FF41650019004E0012C02D14FF4E130DF
:102F800001900020ADF80800ADF80A00ADF80C0083
:102F9000ADF810000C20ADF80E0001A94048FEF776
:102FA000F0FB012240F225513D48FEF782FC012151
:102FB0003B48FEF772FC4FF4A060FDF7A3F8272012
:102FC0008DF8000000208DF8010004208DF802002B
:102FD00001208DF803006846FDF799F806B010BD92
:102FE00010B5044621462C48FEF7C4FC00BF402122
:102FF0002948FEF72DFD0128F9D110BD70B5044612
:103000000D46002605E014F8010BFFF7E9FF701CE0
:1030100086B2AE42F7DB70BD70B50446204602F0C2
:103020006FFA86B2002505E014F8010BFFF7D8FF10
:10303000681C85B2B542F7DB70BD10B50446214669
:103040001748FEF797FC00BF40211548FEF700FD2A
:103050000128F9D110BD70B504460D46002605E0E3
:1030600014F8010BFFF7E9FF701C86B2AE42F7DBE4
:1030700070BD70B50446204602F042FA86B20025C3
:1030800005E014F8010BFFF7D8FF681C85B2B542C4
:10309000F7DB70BD0008014000380140000C014022
:1030A0000048004008B50720009002E00098401E4C
:1030B000009000980028F9D108BD10B54FF40070B9
:1030C000E549086040100860FFF7ECFFE248083867
:1030D000006808B9012000E0002000F4007008B189
:1030E000002010BD4FF40070DB49091D0860FFF798
:1030F000D9FFD9480838006800F4007008B10020F2
:10310000EFE74FF40070D449091D0860FFF7CAFFCC
:103110000120E6E710B54FF48070CF49091D086023
:10312000FFF7C0FF4FF40070CB49091D0860FFF79F
:10313000B9FF4FF48070C8490860FFF7B3FF4FF440
:103140000070C5490860FFF7ADFF10BD10B54FF422
:103150008070C149091D0860FFF7A4FF4FF400709B
:10316000BD49091D0860FFF79DFF4FF48070BA4903
:103170000860FFF797FF4FF48070B749091D08609A
:10318000FFF790FF10BD10B54FF48070B249091DD4
:103190000860FFF787FF4FF40070AF490860FFF742
:1031A00081FF4FF48070AC490860FFF77BFF4FF45C
:1031B0008070A949091D0860FFF774FF10BD10B5A4
:1031C0004FF48070A449091D0860FFF76BFF4FF4AE
:1031D0000070A1490860FFF765FF4FF480709E49B9
:1031E0000860FFF75FFF9C480838006800F4007033
:1031F00030B14FF480709849091D0860002010BD5F
:103200004FF480709449091D08600120F7E770B5FC
:10321000044608251DE04FF480708F49091D0860A1
:10322000FFF740FF04F0800020B14FF400708A499E
:10323000086004E04FF400708749091D08606006CB
:10324000040EFFF72FFF4FF4807083490860FFF7EB
:1032500029FF281EA5F10101CDB2DCD14FF4807009
:103260007D49091D086070BD70B508250024A801BE
:103270007949086016E06006040E4FF480707649C4
:10328000091D0860FFF70EFF4FF480707249086057
:10329000FFF708FF70480838006800F4007008B1B4
:1032A00044F00104281EA5F10101CDB2E3D14FF491
:1032B00080706949091D0860204670BD08B501216C
:1032C0000820FDF7A9FA4FF44070ADF80000022085
:1032D0008DF8020014208DF8030069465E4810380E
:1032E000FCF7DEFF08BD70B504460D461646FFF735
:1032F000E4FE08B9002070BD002141EA4401C8B2D3
:10330000FFF785FFFFF75BFF18B9FFF703FF00200A
:10331000F1E72846FFF77BFFFFF751FF3046FFF745
:1033200076FFFFF74CFFFFF7F5FE0120E3E72DE9FD
:10333000F04105460E4617469846FFF7BEFE10B907
:103340000020BDE8F081002141EA4501C8B2FFF745
:103350005EFFFFF734FF18B9FFF7DCFE0020F0E74F
:103360003046FFF754FFFFF72AFF00240BE018F860
:103370000400FFF74CFFFFF722FF18B9FFF7CAFE62
:103380000020DEE7641CBC42F1DBFFF7C3FE012036
:10339000D7E72DE9F04105460F4614461E46FFF7D4
:1033A0008CFE10B90020BDE8F081002141EA450102
:1033B000C8B2FFF72CFFFFF702FF18B9FFF7AAFE0C
:1033C0000020F0E73846FFF722FFFFF7F8FEFFF78F
:1033D00074FE012101EB4501C8B2FFF718FFFFF7AA
:1033E000EEFE0CE0FFF740FF3070012C02D1FFF73A
:1033F000CAFE01E0FFF7AAFE761C601EC4B2002CD4
:10340000F0D1FFF787FE0120CDE72DE9F04104461A
:103410000D4616461F463B46324629462046FFF7D4
:1034200086FF10B10020BDE8F0814FF0FF30FAE7D1
:103430002DE9F04104460D4616461F463B463246EE
:1034400029462046FFF7A5FF10B10020BDE8F08116
:103450004FF0FF30FAE70000100C014000B589B0D2
:103460000121C802FDF7D8F901210420FDF7D4F9A4
:103470004FF40060ADF8140048208DF8170005A93E
:103480007748FCF70DFF0420ADF8140010208DF8EC
:10349000170002208DF8160005A97148FCF700FFFF
:1034A0004FF6FF70ADF80C004720ADF80800002083
:1034B000ADF80E00ADF80A0002A96A48FDF7E4FA7B
:1034C0000C20ADF818000020ADF81A000120ADF86E
:1034D0001C000020ADF81E00ADF8200006A96148D0
:1034E000FDF765FD1B208DF8040002208DF8050016
:1034F00000208DF8060001208DF8070001A8FCF7D8
:1035000006FE012211215748FDF735FE01215548DD
:10351000FDF716FE09B000BD10B504215048FCF7B8
:103520006CFF142000F012FD04214D48FCF767FFEA
:103530004D48007800F08000E8B14B48007800F07A
:103540003F004A49086008460088000408600846B1
:10355000006847490968084444490860084600680B
:10356000AA21484342F2107190FBF1F03F490860F4
:1035700000203D49086010BD10B53B48007800F0C0
:10358000800000284CD101213648FEF7A2F8D0B1C6
:103590003548007800F04000A8B13348007800F0CA
:1035A0003F003F280AD13048006840F080002E4993
:1035B00008604FF6FF702E49086004E02A48006852
:1035C000401C2949086010212648FEF782F838B3CC
:1035D0002548007800F0400078B12348006840F0AA
:1035E0008000214908601F48FEF75DF82049086007
:1035F00000211C48FDF79CFF12E000201A490860DA
:103600001B49086000211748FEF72EF8164800688D
:1036100040F040001449086002211248FDF788FF7D
:1036200011211048FEF766F810BD10B54FF47A70FE
:1036300000F099FC4FF400610948FCF7C4FE58B94A
:10364000322000F090FC4FF400610548FCF7BBFE0F
:1036500010B901200749086010BD0648006870478E
:1036600000080140002C0140F4020020FC02002070
:10367000F80200200003002008B501210420FDF716
:10368000CBF801210820FDF7C7F81820ADF800009D
:1036900010208DF8030003208DF802006946A6482B
:1036A000FCF7FEFD0320ADF800006946A348FCF7D7
:1036B000F7FD1821A048FCF7A0FE03219F48FCF766
:1036C0009CFE08BD08B501210220FDF7B2F80121DA
:1036D0000420FDF7A1F801210820FDF79DF8C02086
:1036E000ADF8000018208DF8030003208DF80200CB
:1036F00069469148FCF7D4FD08BDF0B587B00027B6
:1037000000240025002640F2E730ADF81400032025
:10371000ADF810000020ADF81600ADF8120004A9B5
:103720008748FDF7B1F96020ADF800000120ADF841
:103730000200ADF806700020ADF808006946804828
:10374000FDF7DFF908217E48FDF72AFEADF80640B7
:1037500069467B48FDF717FA08217948FDF729FEED
:10376000ADF8065069467648FDF75AFA08217448C4
:10377000FDF72CFEADF8066069467148FDF79BFA2F
:1037800008216F48FDF72BFE01216D48FDF7D8FD9C
:1037900001216B48FDF7D4FC07B0F0BD10B5FFF771
:1037A0006BFFFFF78FFFFFF7A8FF10BD00B589B0D3
:1037B00001210846FDF73DF801210420FDF72CF812
:1037C00002A8FCF7F8FD0320ADF8080004208DF8EE
:1037D0000B0002A95848FCF763FD1C208DF804007B
:1037E00000208DF8050003208DF8060001208DF8DB
:1037F000070001A8FCF78BFC4FF08040FDF770F844
:1038000006A8FDF76DFC0020ADF818004FF6FF701C
:10381000ADF81C000020ADF81E00ADF81A0006A996
:103820004FF08040FDF730F900231A4603214FF096
:103830008040FDF738FD03A8FDF765FC0620ADF8D4
:10384000140003A94FF08040FDF7B1FB0121880768
:10385000FDF73CFF012211469007FDF78CFC01218A
:103860008807FDF76DFC09B000BD00B589B00121E6
:103870000420FCF7DEFF01210820FCF7CDFF02A8A1
:10388000FCF799FDC020ADF8080004208DF80B006E
:1038900002A92A48FCF704FD1E208DF80400002030
:1038A0008DF8050002208DF8060001208DF8070034
:1038B00001A8FCF72CFC2348FDF712F806A8FDF739
:1038C0000FFC0020ADF818004FF6FF70ADF81C009B
:1038D0000020ADF81E00ADF81A0006A91948FDF742
:1038E000D3F800231A4603211648FDF7DCFC03A891
:1038F000FDF709FC0620ADF8140003A91148FDF7F7
:1039000056FB01210F48FDF7E1FE012211460D484B
:10391000FDF731FC01210B48FDF712FC09B000BD99
:1039200010B501218807FDF7D1FE10BD10B50121AA
:103930000448FDF7CBFE10BD00080140000C01401B
:10394000000400400008004008B501210420FCF7F5
:1039500063FF01210820FCF75FFF48208DF803007A
:103960004FF40140ADF8000069463048FCF798FC80
:103970002820ADF8000069462D48FCF791FC08BDF1
:1039800010B5002408212A48FCF71DFD10B144F0B1
:10399000040418E020212648FCF715FD10B144F07E
:1039A000010410E04FF400412048FCF70CFD10B179
:1039B00044F0100407E04FF480711C48FCF703FD4D
:1039C00008B144F04004204610BD10B50024202169
:1039D0001748FCF7F8FC012801D1601CC4B208218B
:1039E0001348FCF7F0FC012801D1601CC4B24FF46D
:1039F00000410E48FCF7E7FC012801D1601CC4B26D
:103A00004FF480710948FCF7DEFC012801D1601CED
:103A1000C4B2042C02D101200649087010BD05482B
:103A2000007808B9012070470020FCE70008014039
:103A3000000C01400403002000200DE0244931F86F
:103A40001010002906DD224931F81010491E204AC5
:103A500022F81010411CC8B20528EFDB704770B582
:103A6000FEF7ECFD1B4800684FF47A72B0FBF2F1F0
:103A7000B1F1807F01D301201DE021F07F40401E85
:103A80004FF0E022506150170F22002807DA130789
:103A90001D0E114B00F00F04241F1D5503E01307EA
:103AA0001C0E0E4B1C5400BF00204FF0E022906112
:103AB00007201061002008B100BFFEE74FF0E020B2
:103AC000006940F001004FF0E021086170BD000086
:103AD0009C0800201400002018ED00E000E400E045
:103AE00030B58BB000200790089009900A900390A1
:103AF000049005900690009001900290002500240B
:103B00000FE0504951F8240001F09BFF07A941F84C
:103B1000240007A850F8240003A941F82400601CE1
:103B2000C4B2042CEDDB002410E003A810F824003C
:103B30000DF8140003A830F82400C0F30720012179
:103B400001EB44010DF80100601CC4B2042CECDB55
:103B50000821684600F040FA05462846E91705EBBB
:103B600011610912A5EB0121C9B28DF80810E917FE
:103B700005EB1161090A8DF809100A216846FFF763
:103B80003DFA0BB030BD30B58BB0002400252D4977
:103B9000086801F056FF00B2ADF8240029494868D2
:103BA00001F04FFF00B2ADF826002649886801F009
:103BB00048FF00B2ADF82800AA222146641C01A8E3
:103BC000425455222146641C425401222146641C61
:103BD000425406222146641C425400BF13E009A847
:103BE00030F81500C0F307222046611CCCB201A9B1
:103BF0000A5409A810F815202046611CCCB201A96E
:103C00000A54681CC5B2032DE9DB214601A800F067
:103C1000D5F92146621CD4B201AA5054214601A80C
:103C2000FFF7ECF90BB030BD10B507480068054947
:103C30000860064800684860054800688860FFF72B
:103C4000A2FF10BDA8080020F0030020E803002018
:103C5000E003002010B56C48008800B110BD4FF49F
:103C60007A706949088069480088401C6749088063
:103C7000FFF7FEF8664908806648007808B100F052
:103C80004FFAFEF765FD00BFE8E70021624A1160C8
:103C90000121624A1160C0EB001202EB420101EB0C
:103CA000D17252105E4B1A6000215E4A116070475B
:103CB000FEF786FD01F0B2FA00F046FCFFF7CFFEFA
:103CC000FFF7ADFE10B101205749086001F00CFB71
:103CD00099E0FFF7BFFF4C48408848B914204A4993
:103CE000488000F097F9FFF79FFF504800F02AFA4C
:103CF000454880880028EBD1142043498880FFF78D
:103D00000BFC01F001FB4548006888B14848016898
:103D1000434800681E3081420ADC414800681E3872
:103D200043490968884203DC00203C4908606AE096
:103D30004048006840B9404800681E2863DC4FF4E2
:103D4000B470FFF7A2FF5EE03A480068012831D165
:103D50003A48006880B10020384908603648006859
:103D60001E2805DB002033490860354908604AE019
:103D70005A20FFF78AFF46E02A48006840F66D3176
:103D8000884206DB01202D4908600020FFF77DFFF7
:103D900039E0294800681E2803DB2A481E490860CC
:103DA00031E06FF05900FFF770FF4FF0FF3021490D
:103DB000086028E02148006888B100201F49086099
:103DC0001D4800681E2805DB00201A4908601C49B0
:103DD000086018E06FF05900FFF757FF13E0114833
:103DE000006840F66D31884206DB01201349086007
:103DF0000020FFF74AFF06E00F4800681E2802DB9C
:103E000010480549086064E79C0800200E0800205F
:103E1000100800201C030020800300200C03002059
:103E20008C03002078030020280300201C080020B9
:103E30007003002008030020FC020020180300206B
:103E40001403002000004842704700BFFEE700BF97
:103E5000FEE700BFFEE700BFFEE770477047704710
:103E6000704710B5FFF7E8FD32480078401C314933
:103E7000087031480078401C2F49087000F063FF3B
:103E80002C480078052805DB00202A49087000F03E
:103E900046FD2EE027480078012804D1FEF753FDA7
:103EA00000F00FFE25E023480078022804D100F03E
:103EB0008DFE01F0E2F81CE01E480078032810D1C6
:103EC0001E480078401C1D490870084600780528E7
:103ED0000FDB00F0A4FE0020184908701649087096
:103EE00007E014480078042803D100F004FC00F037
:103EF00081FC10BD10B540F225511148FDF7BEFD03
:103F0000B8B110480078802802DB00200D49087005
:103F10000B48FDF733FDC1B20A4802780078401C17
:103F2000084B18700848815440F225510448FDF7A9
:103F3000CFFD10BD2003002022030020210300201C
:103F400000480040F20200201C080020014605E065
:103F5000002001E0421CD0B20A28FBDB0A1EA1F1BE
:103F60000101F5D1704710B5044603E04FF47A70B3
:103F7000FFF7ECFF201EA4F10104F7D110BD70473C
:103F800030B502460023002000BF04E012F8014BC8
:103F900060405C1CE3B28B42F8DB30BDF0B50546F7
:103FA0000E461446002731462846FFF7E9FF07462C
:103FB000A74201D10120F0BD0020FCE730B5024648
:103FC0000020002305E012F8015B2C18E0B25C1C15
:103FD000E3B28B42F7DB30BD30B502460B464FF6FD
:103FE000FF70002112E0555C684000240AE000F0F8
:103FF000010525B14AF2010585EA600000E04010A4
:10400000651CECB2082CF2DB4D1CE9B29942EADBEC
:1040100030BD00002DE9F0478CB0FA49FA4800683D
:1040200001F098FA824601F071FD04460D46F5490B
:10403000F648006801F08EFA824601F067FD0646F8
:104040000F46F049F248006801F084FA824601F018
:104050005DFD804642460B46EEA104A8CDE900670F
:10406000CDE9024502F09EF904A8FFF702F80CB072
:10407000BDE8F0872DE9F0478CB08246BAF1000F19
:104080001BD1E949886801F041FD04460D46E64927
:10409000486801F03BFD06460F46E349086801F019
:1040A00035FD804642460B46E0A104A8CDE90067F5
:1040B000CDE9024502F076F91DE0BAF1010F1AD1FF
:1040C000DF49886801F022FD04460D46DC49486856
:1040D00001F01CFD06460F46D949086801F016FD9F
:1040E000804642460B46D7A104A8CDE90067CDE93A
:1040F000024502F057F904A8FEF7BBFF0CB0BDE87B
:10410000F08700B589B0D448D44BD54AD5A10090EA
:1041100001A802F047F901A8FEF7ABFF09B000BD06
:1041200000B589B0D348008800EB80004200D24837
:104130000388D2A101A802F035F901A8FEF799FF82
:1041400009B000BD2DE9FC5F06463446E0E1207869
:10415000232877D1CCA1601C01F0DAF9009003F09C
:1041600003F8074601F0B9FCC5B2002D6ADD642DE5
:1041700068DA0A2D14DA6119081DC4A101F0C8F922
:10418000009002F0F1FF074601F0A7FC00F0FF09E4
:104190004A462946E01CFFF701FF8246E41C13E073
:1041A0006119481DB9A101F0B3F9009002F0DCFFDC
:1041B000074601F092FC00F0FF094A462946201DFF
:1041C000FFF7ECFE8246241DBAF1000F3AD0B0484A
:1041D0000078012865D1AFA1204601F07FF920B118
:1041E0000021084600F086FE5BE0ABA1204601F00E
:1041F00075F940B3A4A1204601F08AF9A2A10020DC
:1042000001F086F9009002F0AFFF074601F0C2FC12
:104210008346A2A1002001F07BF9009002F0A4FFE8
:10422000074601F0B7FC01909D49019801F0EAF9B9
:1042300007469B49584601F0E5F98046394600F0AB
:1042400059FE2EE063E1FFE796A1204601F046F912
:1042500038B38DA1204601F05BF98BA1002001F05D
:1042600057F9009002F080FF074601F093FC834667
:104270008AA1002001F04CF9009002F075FF07467A
:1042800001F088FC01904FF08041584601F0ECF9B4
:1042900007468549019801F0E7F98046394600F064
:1042A00029FE82A1204601F019F918B101207849B0
:1042B00008702CE17EA1204601F010F918B103200E
:1042C0007349087023E17BA1204601F007F938B15A
:1042D00004206F4908707449002000F00BFE16E1BD
:1042E00075A1204601F0FAF818B10220684908705B
:1042F0000DE172A1204601F0F1F870B362A12046F1
:1043000001F006F960A1002001F002F9009002F02E
:104310002BFF074601F03EFC434908605AA10020EC
:1043200001F0F6F8009002F01FFF074601F032FCA2
:104330003D49486059A1002001F0EAF8009002F0E0
:1043400013FF074601F026FC37498860002000F083
:104350008CFF0020FFF78EFED9E0FFE758A1204632
:1043600001F0BCF870B348A1204601F0D1F846A195
:10437000002001F0CDF8009002F0F6FE074601F0B3
:1043800009FC2F49086040A1002001F0C1F800900D
:1043900002F0EAFE074601F0FDFB294948603FA113
:1043A000002001F0B5F8009002F0DEFE074601F0B3
:1043B000F1FB23498860012000F057FF0120FFF73F
:1043C00059FEA4E03FA1204601F088F818B1002072
:1043D000FFF750FE9BE03CA1204601F07FF818B1AA
:1043E0000120FFF747FE92E038A1204601F076F861
:1043F00030B1002000F054FF0020FFF73BFE86E0C4
:1044000066E0000000003443E0030020E8030020E1
:10441000F0030020562C252E30662C252E30662CDD
:10442000252E30660D0A00009003002041502C25F7
:104430002E32662C252E32662C252E32660D0A0071
:104440009C03002053502C252E32662C252E3266DC
:104450002C252E32660D0A00B4790008AF790008C9
:10446000AA790008492C25732C25732C25730D0A75
:1044700000000000100800200E080020522C2564C7
:104480002C25640D0A0000002C0000003B000000F9
:104490001208002043530000434A00002A00000095
:1044A00000002041434D00000000A040534E4B004F
:1044B0005355460053554100534954005341500051
:1044C00053535000474150004753500052410000A1
:1044D00017A1204601F002F830B1012000F0E0FE03
:1044E0000120FFF7C7FD12E012A1204600F0F6FF01
:1044F00028B1012010490870FFF703FE07E00FA163
:10450000204600F0EBFF10B100200B490870641C3E
:10451000A01B0B4909788842FFF619AE0020084914
:1045200008708021074800F0CEFFBDE8FC9F000026
:1045300052560000524200001C030020525300005B
:10454000F20200201C0800200020FE490880FE49DD
:104550000880FE490860FE490860FE490860FE497F
:104560000860FE490860FE490860FE490860FE498F
:104570000860FE490860FE490860FE490860FE497F
:104580000860FE490860FE490860FE490860FE496F
:104590000860FE490860FE490860FE490860FE495F
:1045A0000870FE490870FE490870FE490860FE491F
:1045B0000860FE490860FE490860704770B504460F
:1045C0000D460021FB48006801F000FB34D11E2C91
:1045D0000DDD1E2D0BDDF849E348006801F000FBFE
:1045E00005D2F649E048006801F0F0FA11D314F161
:1045F0001E0F1DDA15F11E0F1ADAEF49DA480068AE
:1046000001F0EEFA14D2ED49D748006801F0DEFA65
:104610000ED2EB480088401CE94908800846008813
:1046200032280CDD002008800120E649086006E001
:104630000020E349088002E00020E149088070BDC5
:1046400070B5E048006800B970BDDF49C648006831
:1046500001F0C6FA48D2DD49C348006801F0B6FA55
:1046600042D2DB480088401CD949088008460088AF
:1046700032283EDB00200880D6480168BA4800682E
:1046800000F0BAFF064601F041FA0446D24AD34B85
:1046900001F050FA20D2CF480168B348006800F01A
:1046A000ABFF064601F032FA0446CB4ACC4B01F090
:1046B00059FA11D2CB480088401CCA4908800846E4
:1046C000008804280BDB00200880C1490880A54928
:1046D0000860BC49086002E00020C2490880A24886
:1046E0000068BC49086004E00020B9490880BD4961
:1046F000088000BFA8E710B59248B0F900109248B2
:10470000B0F90000FFF75AFFFFF79AFFAD480068C5
:1047100030B1B548007840F00200B349087005E0B8
:10472000B148007820F00200AF490870A3498E48D4
:10473000006801F055FA05D39F498B48006801F0E5
:1047400045FA06D2A848007840F00400A64908704F
:1047500005E0A548007820F00400A349087010BDCA
:1047600070B504460D46002C09DA08219F48FBF776
:1047700044FE10219D48FBF742FE644207E01021F1
:104780009A48FBF73AFE08219848FBF738FE002DBF
:1047900009DA01219648FBF730FE02219448FBF725
:1047A0002EFE6D4207E002219148FBF726FE012113
:1047B0008F48FBF724FEB5F57A7F01DB40F2E73541
:1047C000B4F57A7F01DB40F2E7348748007840B1E6
:1047D00000218848FCF74CFF00218648FCF74AFF7F
:1047E00007E0A9B28348FCF743FFA1B28148FCF778
:1047F00041FF70BD70B5604801686048006800F016
:10480000FBFE054661480168284600F0F5FE0446B7
:1048100079480168204600F0EFFE5A490860564882
:1048200001685648006800F0E7FE054657480168F1
:10483000284600F08FFE04466F480168204600F0CD
:1048400089FE4F4908604F48006801F0FAF80028D7
:1048500007DD00214B48006800F07CFE49490860F4
:104860000CE04848006801F0ECF8002806DA002166
:104870004448006800F0C0FE4249086040480068B3
:1048800001F0DFF8002807DD00213D48006800F056
:1048900061FE3B4908600CE03948006801F0D1F83E
:1048A000002806DA00213648006800F0A5FE3449E9
:1048B00008603448006801F0C4F8B0F57A7F02DB84
:1048C0004E48304908602F48006801F0BAF810F5EA
:1048D0007A7F02DC4A482B4908602948006801F0C9
:1048E000B0F8B0F57A7F02DB4448254908602448D7
:1048F000006801F0A6F810F57A7F02DC40482049F4
:1049000008601F48006801F09CF804461D480068D4
:1049100001F097F805462146FFF722FF70BD10B55C
:104920004FF08040FCF7C3FE00B2074908803548CD
:10493000FCF7BDFE404200B20249088000204FF063
:10494000804161E04A03002048030020500300201A
:104950004C0300205803002054030020840300204F
:104960007C03002088030020E0030020E8030020EF
:10497000F0030020DC0300202C030020380300207B
:10498000400300203C030020CC030020D003002083
:10499000D4030020D803002020030020210300209E
:1049A000220300205C030020600300206403002039
:1049B00068030020800300200000F0C10000F041E7
:1049C00000040020FC0300200000A0C00000A04064
:1049D0000A040020040400209A9999999999E93FC2
:1049E0009999E9BF08040020250300200008014030
:1049F000000C0140000400404403002000C0794442
:104A000000C079C4000800408884FE490880FE4840
:104A10000068FE49B1F900100844FB490860FC48F1
:104A20000068FC49B1F900100844F9490860F648EB
:104A300000680968401AF8490860F3480068F449BA
:104A400009680844F5490860F5480068EF49B1F97C
:104A500000100844F2490860F2480068ED49B1F9D5
:104A600000100844EF490860ED4800680968401AE2
:104A7000ED490860ED480068E449B1F900100844C8
:104A8000EA490860EA480068E249B1F900100844C0
:104A9000E7490860E54800680968401AE549086088
:104AA000E5480068D949B1F90010401AE2490860A8
:104AB000E2480068D749B1F90010401ADF490860A0
:104AC00010BD2DE9F04F87B0DD48B0F9000000F0CF
:104AD0009AFF06460022DB4B00F01DFFCDE90201E4
:104AE000D948B0F9000000F08EFF06460022D54BF1
:104AF00000F011FF8046DDE9022302F067FA044668
:104B00000022D24B00F095FED14AD24BCDE90401F0
:104B100000F001FF824601F03DF8CF490860CF4820
:104B2000006800F067FF0446CB480168204600F0AB
:104B300066FDC9490860CA48B0F9000000F063FF8B
:104B400006464FF06632C74B00F0E5FE044600F023
:104B5000A5FF00B2C24908800846B0F9000000F085
:104B600049FFC1490860BC48006800F0CFFF044617
:104B7000BE4ABF4B00F05DFECDE90201BA480068B5
:104B800000F0C4FF8246B94ABA4B00F052FE064616
:104B90000F46B948006800F0B9FF804632463B46F0
:104BA00000F0A0FD0446B54AB54B00F042FECDE949
:104BB0000001DDE9022300F095FDCDE9040100F0DC
:104BC000E9FFAD49086007B0BDE8F08F2DE9F0417D
:104BD000AC498868AC4900F047FD0646A248016828
:104BE000002000F009FD0746314600F00BFD0446A9
:104BF000A1480168002000F0FFFC0746A1480168B9
:104C0000384600F0FFFC0646A04900F0FBFC0546D4
:104C1000214600F09FFC9E490860BDE8F0812DE927
:104C2000FE4F82490968824A1268881800F0EBFE3C
:104C300006460022974B00F0FCFD044600F0AAFF58
:104C40009549086000207A490860784908609248D0
:104C5000006800F05BFF06464FF033328F4B00F0E8
:104C6000E8FD04460D468E48006800F04FFF0646FA
:104C70004FF066328B4B00F0DCFD804622462B461F
:104C800000F030FD824600F085FF83490860084649
:104C90000068834908608448006800907E48016885
:104CA000009800F0A9FC009080480168009800F08E
:104CB000A9FC02907D49486800F028FF8246002246
:104CC0007B4B00F028FE06460F46009800F01EFFC2
:104CD000804632463B4600F0ACFD044600F05AFFE9
:104CE000019074480199006800F034FC7149086033
:104CF000714801686F48006800F02CFC6D4908603D
:104D00000846006800F09DFE00B2B0F52F7F02DD7E
:104D10006A48684908606748006800F092FE00B27F
:104D200010F5617F02DA66486249086065480068EC
:104D3000654908605F480168029800F00BFC614912
:104D40000860BDE8FE8F2DE9F0415F4801685D48CD
:104D5000006800F051FC06465C480078401C00F0FA
:104D600049FE0746314600F04DFC0546584900F023
:104D70007BFC044654480168204600F0EBFB554993
:104D80000860BDE8F0812DE9FC5F81468846144645
:104D90001D460C9E2146404600F018FF17D22946BA
:104DA000304600F029FC41460190204600F024FCEA
:104DB0000090019900F058FC82464146484600F0B8
:104DC0001BFC8346514600F04FFC074616E029467F
:104DD000304600F011FC83462146404600F00CFCB2
:104DE0005946009000F040FC82464146484600F09B
:104DF00006FC5146019000F037FC07463146384624
:104E00006AE00000240800405C0300204803002002
:104E1000600300204A030020700300207803002074
:104E20006403002068030020740300205403002062
:104E3000580300206C030020F4030020F803002036
:104E4000300000200000D0402E000020008066408E
:104E50001F85EB51B81E0940F003002028030020F5
:104E60002A00002066663040E80300207B14AE472D
:104E7000E17A943FE17A743FE00300205C8FC2F551
:104E8000285CEF3F90030020000020410000A0407C
:104E9000380300200000E03F7C0300203333D33F81
:104EA000840300206666E63F800300209C03002008
:104EB0000000244088030020CC03002000002F4481
:104EC000000061C4340300203003002022030020CE
:104ED0000000C8412C03002000F082FE01D23746BA
:104EE00005E02946384600F071FE00D22F463846CC
:104EF000BDE8FC9F38B505460C460021284600F069
:104F00006FFE0AD273480023734A19460090284660
:104F1000FFF739FF714908600BE06E480023704AC3
:104F2000194600902846FFF72EFF80F000406B499D
:104F300008600021204600F053FE0AD26948002391
:104F4000654A194600902046FFF71DFF6649086034
:104F50000BE064480023624A194600902046FFF7A0
:104F600012FF80F000406049086038BD10B504466B
:104F7000FCB95E480068002808DB5C4800680C2823
:104F800004DC5B490020FFF7B5FF34E057480068B8
:104F9000122809DD554800681E2805DC4FF08141C4
:104FA0000020FFF7A7FF26E000210846FFF7A2FF39
:104FB00021E0012C1FD14D48006800280EDB4B4832
:104FC000006814280ADC00214A48FFF793FF40F2EA
:104FD000EE20494908604042484908604648006858
:104FE000002808DA45480068002804DD4FF08141B8
:104FF0000020FFF77FFF10BD2DE9F04188B00026AB
:105000000025FEF7BDFC044604F0040008B1344E50
:105010001AE004F0020008B1394E15E004F0010076
:1050200008B1334E10E004F0400008B12A4E0BE006
:1050300004F0200008B1334E06E004F0100010B177
:105040004FF0814600E000262F4D29463046FFF7FD
:1050500051FF284600F0F5FC0746304600F0F1FC11
:1050600080463B46424629A1684601F09BF96846C6
:10507000FDF7D2FF08B0BDE8F08170B52949096895
:10508000294A1268881A00F0B5FC0646274841688C
:10509000304600F0B7FA044625490968484200F056
:1050A000A9FC064621480168304600F0ABFA0546E7
:1050B000214600F04FFA1F49086070BD00201E49CC
:1050C00008601E49086070470021074A11601549B1
:1050D000086070470000C84300002041D003002052
:1050E000000020C100008C4280030020FC02002050
:1050F000000080C00000A040F4030020F80300205E
:105100000000C0C00000C04000004040537465650E
:10511000723A25642C2053706565643A25640D0A43
:10512000000000008C03002070030020B403002066
:105130006C030020440300205C0300206003002077
:105140002DE9F04106460D4617460024FCF721FFE5
:105150003520FDF7B9F900BF05E05F48205C5F49E5
:105160000855601CC4B2802CF7DB002406E015F85B
:10517000010B3119594A5054601CC4B2BC42F6DBD1
:105180005548FCF74BFF002407E0544A1159524A96
:10519000A018FDF713F8201DC4B2802CF5DB3520D4
:1051A000FDF792F9FCF701FFBDE8F08110B5034669
:1051B000002006E0484C1C44245C01F8014B441CD0
:1051C000E0B29042F6DB10BD08B5012269463220FC
:1051D000FFF7ECFF9DF80000012805D10C224049A3
:1051E0003320FFF7E3FF04E00C223D490220FFF7E4
:1051F000DDFF012269464820FFF7D8FF9DF8000037
:10520000012805D10C2237494920FFF7CFFF04E0E0
:105210000C2234491220FFF7C9FF08BD08B502224D
:1052200069460020FFF7C2FF9DF80000A52806D1BF
:105230009DF801005A2802D1FFF7C6FF14E0A5200F
:105240008DF800005A208DF80100022269460020E6
:10525000FFF776FF0C2222490220FFF771FF0C2294
:1052600020491220FFF76CFF08BD38B50446012025
:10527000009054B9012269463220FFF761FF0C22E9
:1052800017493320FFF75CFF09E0012269464820F7
:10529000FFF756FF0C2213494920FFF751FF38BD95
:1052A00038B504460020009054B9012269463220E6
:1052B000FFF746FF0C220A490220FFF777FF09E0BB
:1052C000012269464820FFF73BFF0C2205491220C6
:1052D000FFF76CFF38BD000000F00008B8080020A0
:1052E000900300209C03002008B543480823802237
:1052F000002100900846FDF763FC4FF47A70FEF73A
:1053000032FEFDF7CBFB08BD00B589B0202101A816
:1053100000F0D9F839480078401C38490870084630
:105320000078062801DB002008703448007820B996
:1053300033A200210846FDF7F8FB30480078012829
:1053400015D1FEF78AF938B1334834A21521036824
:1053500001A801F00DF805E037A338A2152101A836
:1053600001F006F801AA01210020FDF7DEFB234829
:10537000007802280CD13848B0F9003037A2152146
:1053800001A800F0F5FF01AA02210020FDF7CDFBE6
:105390001A48007803280CD13648B0F9003036A2FC
:1053A000152101A800F0E4FF01AA03210020FDF768
:1053B000BCFB1248007804280BD1354835A21521D2
:1053C000036801A800F0D4FF01AA04210020FDF722
:1053D000ACFB0A48007805280BD1324832A21521CF
:1053E000036801A800F0C4FF01AA05210020FDF711
:1053F0009CFB09B000BD00000C0400200C0800203C
:105400004D6F64653A20436F6D706C656D656E74A9
:105410006172792020000000FC020020446973744E
:10542000616E63653A2020256428636D2920202061
:105430002020202000000000787800004469737468
:10544000616E63653A2020257328636D2920202032
:10545000202020200000000048030020456E636FDC
:105460004C6566743A2020256420202020202020CE
:10547000202000004A030020456E636F5269676870
:10548000743A2025642020202020202020200000A5
:105490005C0300204C656674204D6F746F723A2077
:1054A00025640000600300205269676874204D6F16
:1054B000746F723A20256400D2B201E000F8012B2B
:1054C000491EFBD270470022F6E710B513460A4684
:1054D00004461946FFF7F0FF204610BD30B50546DB
:1054E0002A460B4612F8010B13F8014B08B1A042F3
:1054F000F8D01CB1002802D06D1CF1E7284630BD61
:10550000421C10F8011B0029FBD1801A70470000D3
:1055100070B50F4D00B92868002412E00A4602E079
:105520009E4203D0521C1378002BF9D1DAB22243E9
:1055300005D02BB124B1002100F8011B04E0044682
:10554000401C0678002EE9D12860204670BD00007E
:1055500014080020F0B480EA0102D40F4200B2EB3C
:10556000410F02D20246084611464A0042D0C30DFE
:10557000DDB2C1F3C752AD1A202D35DAC1F31601E1
:1055800041F4000204B15242C5F1200602FA06F1CC
:105590002A411044B3EBD05F23D0C4B1012DA0EB5E
:1055A000C35009DCF0BC4FF0004202EAC352DBB248
:1055B00000F5000000F0EDBB400000F1807000EB52
:1055C000C350A0F1807040EAD170490009E0490859
:1055D00041EAC071A0EBC35000F50000400800EBA9
:1055E000C350F0BC00F0CCBB6142012202EB410190
:1055F000001BF6E7F0BC704781F00041AAE780F09D
:105600000040A7E780EA010210B502F00043400025
:1056100022D04A001FD0010E01EB1261C0F35600E8
:10562000C2F3560240F4000042F40002A0FB022044
:1056300000047F39140400D0401C50EA124001D409
:105640004000491EC2B20C0604EBD010401C4008BA
:10565000802A02D003E0002010BD20F001000029C4
:1056600000DA0020184310BD30B480EA010202F0D5
:10567000004530F0004221F0004013D090B1C30D3E
:10568000D40DC2F31601C0F31600E41A41F4000170
:1056900040F400027D34914201D3641C00E04900D3
:1056A000002C02DA30BC002070474FF400000023C9
:1056B000914201D3891A034340084FEA4101F7D1CF
:1056C00051B1914202D14FF0004105E002D24FF0BA
:1056D000010101E06FF0010103EBC450284430BC2C
:1056E00000F04EBB2DE9FE4F804681EA0300C00F5B
:1056F0000C46009021F0004123F00045B8EB020079
:10570000A94105D24046214690461C460B4602461A
:1057100023F00040104347D0270DC7F30A00C3F31E
:105720000A510290401A019040286BDAC3F313002B
:1057300040F4801B0098924620B10023D2EB030A6C
:1057400063EB0B0B01985946C0F14002504600F044
:1057500098FA06460D4650465946019A00F0B0FAAE
:1057600010EB08006141002487EA115284EAE773D4
:105770001A4340D0009A62B3019A012A4FEA0752B5
:1057800015DC001B61EB02014FF0004202EA0752F8
:10579000CDE90042001C41F5801132462B4600F055
:1057A00035FB03B0BDE8F08F40462146F9E7001B0A
:1057B00061EB0201001C41F5801300185B412018C9
:1057C000A2F5001747EB030140EAD570B6196D4109
:1057D00011E06D084FEA360645EAC0754FEA0752F8
:1057E000001B61EB0201001C41F5801149084FEAE2
:1057F00030000019514132462B4603B0BDE8F04F4E
:1058000000F0F5BA0098012240000023D0EB02021C
:1058100063EBE073009821464FEAE074B8EB0000B8
:1058200061EB0401E9E783F000435BE781F00041AD
:1058300058E72DE9FE4F81EA030404F0004421F00B
:10584000004100944FF0000B23F0004350EA0104A4
:105850005ED052EA03045BD0C3F30A54C1F30A5585
:105860002C44A4F2F3340194A0FB0254C1F31301BD
:1058700041F48011C3F3130343F4801301FB02448A
:1058800000FB034E840A970A44EA815447EA83578F
:10589000A4FB076802958D0A05FB07854FEA932C48
:1058A00004FB0C542705029D4FEA065847EA1637B9
:1058B000B5EB08056EEB070C870E920E47EA8117D1
:1058C00042EA8312A7FB0201B6EB0B0164EB000472
:1058D0002B0D43EA0C335E1844EB1C50DA4651465C
:1058E000E7FB0201C5F313044FEA0B3343EA1453F9
:1058F0004FEA0432019C43EA0603A4F10C0402942B
:10590000009CCDE900B400F081FA03B0BDE8F08F4F
:1059100000200146F9E72DE9F04D81EA030404F087
:10592000004B21F0004514464FF0000A23F00041DF
:1059300050EA050220D054EA01021DD0C5F30A57EF
:105940000246C5F31303C1F31300C1F30A5640F432
:10595000801543F48013A7EB0608101BD64608F207
:10596000FD3873EB050002D308F1010801E092183D
:105970005B41B8F1000F03DA00200146BDE8F08D6D
:1059800000204FF48011064684460EE0171B73EB8F
:10599000050705D3121B63EB050306434CEA010C14
:1059A00049084FEA300092185B4150EA0107EDD1F7
:1059B00052EA030012D082EA040083EA0501084398
:1059C00005D0101BAB4106D20122002306E00022C5
:1059D0004FF0004302E06FF0010253101AEB060093
:1059E0004CEB085110EB0A0041EB0B01BDE8F04D08
:1059F00000F0FDB9C10F80EAE0700844CA079623A1
:105A0000002100F0C6B90EB5C10F80EAE07008446D
:105A1000CA07002140F233438DE80E000A460B46C8
:105A200000F0F4F903B000BD0EB540F2334102912D
:105A30000021CDE900110A460B4600F0E7F903B05A
:105A400000BD00F0004220F00040C10DC0F3160080
:105A500040F400007F2901DA00207047962903DC1A
:105A6000C1F19601C84001E096398840002AF4D07F
:105A70004042704720F00040C10DC0F3160040F4D2
:105A800000007F2901DA00207047962903DCC1F16C
:105A90009601C840704796398840704770B5C1F389
:105AA0000A5201F000450024C1F3130140F2FF3314
:105AB00041F480119A4201DA002070BD40F2334374
:105AC0009A42A2F2334203DC524200F0E9F800E0CD
:105AD00090402C43F1D0404270BDC1F30A5210B542
