:020000040800F2
:10000000400D0020F1260008253D0008273D00088E
:100010002B3D00082F3D0008333D00080000000084
:10002000000000000000000000000000373D000854
:10003000393D0008000000003B3D00083F3D00083E
:100040000B2700080B2700080B2700080B270008C8
:100050000B2700080B2700080B2700080B270008B8
:100060000B2700080B2700080B2700080B270008A8
:100070000B2700080B2700080B2700080B27000898
:100080000B2700080B2700080B2700080B27000888
:100090000B2700080B2700080B2700080B27000878
:1000A0000B2700083D3D00080B27000879350008A4
:1000B000213900080B2700082D3900080B270008FC
:1000C0000B2700080B2700080B2700080B27000848
:1000D0000B2700080B2700080B270008D13D00085C
:1000E0000B2700080B2700080B270008DFF810D0AB
:1000F00006F0AAF800480047873C0008AFF30080EC
:10010000400D002031490143314A1160704770B5FC
:10011000002100230F22C47804B32D4C246804F47A
:10012000E064C4F5E064210AC1F10403CA404478E4
:1001300004FA03F18478144021430901254C067820
:10014000A155047804F01F050124AC4005786D1119
:10015000AD0005F1E025C5F8004109E0047804F0A0
:100160001F050124AC401C4D0678761145F8264049
:1001700070BD1A4A0A400243154B1B1F1A60704794
:1001800039B1134A121D12680243114B1B1D1A602C
:1001900006E00F4A121D126882430D4B1B1D1A60A8
:1001A0007047042808D14FF0E021096941F00401AB
:1001B0004FF0E022116107E04FF0E021096921F0E2
:1001C00004014FF0E0221161704700000000FA05C1
:1001D0000CED00E000E400E080E100E080FFFF1FA4
:1001E00010B50446CC48844208D10121042000F017
:1001F0002DFB0021042000F029FB46E0C748844283
:1002000008D10121082000F021FB0021082000F086
:100210001DFB3AE0C248844208D10121102000F0C1
:1002200015FB0021102000F011FB2EE0BD48844298
:1002300008D10121202000F009FB0021202000F03E
:1002400005FB22E0B848844208D10121402000F09B
:10025000FDFA0021402000F0F9FA16E0B34884428C
:1002600008D10121802000F0F1FA0021802000F067
:10027000EDFA0AE0AE48844207D10121801500F072
:10028000E5FA0021A01500F0E1FA10BD10B501213A
:10029000084600F0DBFA0021012000F0D7FA10BD7B
:1002A0002DE9F0410246002500260020002300240D
:1002B000002791F803C00CF00F0591F803C00CF073
:1002C000100CBCF1000F03D091F802C04CEA0505F8
:1002D00091F800C0BCF1000F31D0146800202BE071
:1002E0004FF0010C0CFA00F3B1F800C00CEA030661
:1002F0009E4220D183004FF00F0C0CFA03F7BC4351
:1003000005FA03FC4CEA040491F803C0BCF1280F81
:1003100006D14FF0010C0CFA00FCC2F814C00AE040
:1003200091F803C0BCF1480F05D14FF0010C0CFA55
:1003300000FCC2F810C0401C0828D1D31460B1F8EA
:1003400000C0BCF1FF0F34DD546800202EE000F146
:10035000080C4FF0010808FA0CF3B1F800C00CEAE1
:1003600003069E4221D183004FF00F0C0CFA03F7D5
:10037000BC4305FA03FC4CEA040491F803C0BCF149
:10038000280F05D100F1080C08FA0CF8C2F8148007
:1003900091F803C0BCF1480F07D100F1080C4FF0F1
:1003A000010808FA0CF8C2F81080401C0828CED3C7
:1003B0005460BDE8F0814FF6FF7101800221817029
:1003C0000421C17070470246002093680B400BB1B6
:1003D000012000E0002070470146886880B2704725
:1003E00002460020D3680B400BB1012000E0002042
:1003F00070470146C86880B270470161704741612B
:1004000070470AB1016100E041617047C160704707
:100410004FF480320A43826181618261826982691C
:10042000704702460020434B18684FF6807318400F
:1004300040EA021008433F4B186070473E49C861CC
:100440007047F0B50A46002300240021002500F083
:100450000046B6F1004F02D1364EF16901E0354E4B
:100460007168C0F3034583B200F44016B6F5401F2F
:1004700008D121F070612F4E766826F070662D4FFE
:100480007E6012E000F48016B6F5801F06D10326C8
:1004900006FA05F4A14341F0706106E0460D36010D
:1004A00003FA06F6B14341F0706122B1460D360100
:1004B00003FA06F6314300F00046B6F1004F02D1D0
:1004C0001C4EF16101E01B4E7160F0BD30B50022A1
:1004D0008B071C0F0F2303FA04F2164B08338C1002
:1004E00053F824309343134C08348D1044F82530CE
:1004F00023468C1053F824308C07240F00FA04F4A0
:1005000023430C4C08348D1044F8253030BD0A4983
:10051000DC3108607047000000080140000C014019
:10052000001001400014014000180140001C01406F
:10053000002001400000014000002042DF48006828
:1005400040F00100DD49086008464068DC49084089
:10055000DA49486008460068DA490840D749086027
:100560000846006820F4802008600846406820F4AF
:10057000FE0048604FF41F0088607047CF4909684B
:1005800021F48031CD4A11601146096821F480219F
:100590001160B0F5803F03D0B0F5802F0ED106E09A
:1005A000C649096841F48031C44A116007E0C34973
:1005B000096841F4A021C14A116000E000BF00BFFA
:1005C000704710B501460022002300204A11012A7D
:1005D00002D1BA4C236806E0022A02D1B74C236A42
:1005E00001E0B64C636A01F01F02012494401C40F4
:1005F0000CB1012000E0002010BD38B500200090B3
:100600000024002500BF3120FFF7DBFF05460098DE
:10061000401C00900098B0F5A06F01D0002DF2D0E2
:100620003120FFF7CEFF08B1012400E0002420466E
:1006300038BD01460020A14A106820F0F80040EAC9
:10064000C10010607047A049086070470246002052
:100650009A4B586820F47C1042EA01031843974BE8
:100660005860704798490866704701460020934AD1
:10067000506820F003000843506070478F4840687E
:1006800000F00C007047014600208C4A506820F0B2
:10069000F00008435060704701460020874A5068C8
:1006A00020F4E06008435060704701460020834A10
:1006B000506820F4605040EAC1005060704729B192
:1006C0007E4A527A02437D4B5A7204E07B4A527A48
:1006D00082437A4B5A7270477B49D8310860704721
:1006E00001460020754A506820F44040084350609D
:1006F00070470021714A20321170704A82F8201030
:10070000012802D004280AD104E001216B4A2032DA
:10071000117005E00521694A2032117000E000BF28
:1007200000BF70476949086070476449096A01431E
:10073000624A11627047654944390860704730B5B4
:1007400000210022002400235C4D6D6805F00C019F
:1007500021B1042905D0082923D105E05C4D0560AD
:1007600022E05B4D05601FE0544D6D6805F470128A
:10077000524D6D6805F48034022505EB92421CB998
:10078000544D554305600BE04C4D6D6805F4003544
:100790001DB1504D5543056002E04D4D5543056078
:1007A00002E04B4D056000BF00BF444D6D6805F091
:1007B000F0010909484D6B5C0568DD4045603F4D1F
:1007C0006D6805F4E061090A434D6B5C4568DD40E6
:1007D00085603A4D6D6805F46051C90A3E4D6B5C09
:1007E0004568DD40C560354D6D6805F44041890BB5
:1007F0003A4D6B5CC568B5FBF3F5056130BD29B1B9
:100800002E4A526902432D4B5A6104E02B4A526929
:1008100082432A4B5A61704729B1284A92690243A0
:10082000264B9A6104E0254A92698243234B9A61E0
:10083000704729B1214AD2690243204BDA6104E0B2
:100840001E4AD26982431D4BDA61704729B11B4AA7
:10085000D2680243194BDA6004E0184AD268824336
:10086000164BDA60704729B1144A12690243134BE0
:100870001A6104E0114A12698243104B1A617047F1
:1008800012494039086070470F49C86470470B49E6
:10089000C87170470948406A40F080700749486253
:1008A000704701460020054A92680A400AB10120BB
:1008B00000E0002070470149887270470010024034
:1008C0000000FFF8FFFFF6FE0000424280044242B3
:1008D00000127A0000093D000000002010000020F6
:1008E00010B50446FE48844208D10121C014FFF728
:1008F000ADFF0021E014FFF7A9FFC4E0B4F1804F81
:1009000008D101210846FFF7AEFF00210120FFF7C3
:10091000AAFFB8E0F348844208D101210220FFF782
:10092000A2FF00210220FFF79EFFACE0EE488442C8
:1009300008D101210420FFF796FF00210420FFF7D2
:1009400092FFA0E0E948844208D101210820FFF786
:100950008AFF00210820FFF786FF94E0E4488442E4
:1009600008D101211020FFF77EFF00211020FFF7A2
:100970007AFF88E0DF48844208D101212020FFF778
:1009800072FF00212020FFF76EFF7CE0DA488442EE
:1009900008D101214014FFF759FF00216014FFF72F
:1009A00055FF70E0D548844209D10121C804FFF702
:1009B0004DFF00214FF40020FFF748FF63E0D048CF
:1009C000844209D101210805FFF740FF00214FF4BF
:1009D0008010FFF73BFF56E0CA48844209D101214D
:1009E0004805FFF733FF00214FF40010FFF72EFFFB
:1009F00049E0C548844208D101214020FFF733FF78
:100A000000214020FFF72FFF3DE0C048844208D17D
:100A100001218020FFF727FF00218020FFF723FF1F
:100A200031E0BB48844208D101218015FFF71BFF4C
:100A30000021A015FFF717FF25E0B648844209D131
:100A400001210804FFF702FF00214FF48030FFF777
:100A5000FDFE18E0B048844209D101214804FFF7A7
:100A6000F5FE00214FF40030FFF7F0FE0BE0AB483D
:100A7000844208D101218804FFF7E8FE00214FF4E9
:100A80008020FFF7E3FE10BD00220288944B9842BD
:100A90000ED0994B98420BD0B0F1804F08D0914BBB
:100AA000984205D0904B984202D0904B984204D186
:100AB0004FF68F731A404B881A438D4B984207D0DC
:100AC0008C4B984204D04FF6FF431A40CB881A4310
:100AD00002808B8883850B880385814B98420BD0DD
:100AE000854B984208D08B4B984205D08A4B984250
:100AF00002D08A4B984201D10B7A0386012383826C
:100B0000704770B5002400220023058C4FF6FE7656
:100B100035400584028C8388048B4FF68F752C40FA
:100B2000B51E2C400D882C43751E2A400D892A4382
:100B30004D882A436A4DA8420BD06F4DA84208D079
:100B4000744DA84205D0744DA84202D0734DA842FE
:100B500013D14FF6F7752A404D892A434FF6FB759E
:100B60002A408D882A434FF6FF652B404FF6FF55EC
:100B70002B408D892B43CD892B4383800483CD88E3
:100B80008586028470BD70B5002400220023058C88
:100B90004FF6EF7635400584028C8388048B48F647
:100BA000FF752C404FF6FF452C400D884FF6FF7621
:100BB00006EA05252C434FF6DF752A400D8906EA23
:100BC00005152A434D8806EA05152A43444DA842D7
:100BD00002D0494DA8421DD14FF67F752A404D895C
:100BE0004FF6FF7606EA05152A434FF6BF752A40F1
:100BF0008D8806EA05152A434FF6FF352B404FF244
:100C0000FF752B408D8906EA85052B43CD8906EAC1
:100C100085052B4383800483CD880587028470BDBE
:100C200070B5002400220023058C4FF6FF66354086
:100C30000584028C8388848B4FF68F752C404FF689
:100C4000FC752C400D882C434FF6FF552A400D892A
:100C50004FF6FF7606EA05252A434D8806EA052564
:100C60002A431F4DA84202D0234DA8421DD14FF266
:100C7000FF752A404D894FF6FF7606EA05252A437F
:100C80004FF6FF352A408D8806EA05252A434EF6A1
:100C9000FF752B404DF6FF752B408D8906EA051533
:100CA0002B43CD8906EA05152B4383808483CD88A9
:100CB0008587028470BD70B5002200230024058C56
:100CC0004EF6FF7635400584038C8488828B48F687
:100CD000FF752A404FF6FF452A400D8820E00000AE
:100CE000002C01400004004000080040000C0040BF
:100CF000001000400014004000340140004C01404E
:100D0000005001400054014000180040001C004009
:100D100000200040004001400044014000480140E4
:100D20004FF6FF7606EA05252A434DF6FF752B4060
:100D30000D8906EA05352B434D8806EA05352B4318
:100D4000FA4DA84202D0FA4DA84208D14BF6FF75E1
:100D50002C408D894FF6FF7606EA85152C4384805A
:100D60008283CD88A0F84050038470BD828B4FF2FF
:100D7000FF331A408283828B4FF6FF7303EA01230D
:100D80001A4382837047F0B50C46154600220021B5
:100D90000026078C4EF6FF7C07EA0C070784828B3F
:100DA000018C4FF6FF7707EA043640F6FF473A40DA
:100DB0004FF6FF7707EA05273A434FF6FF7707EA32
:100DC00003373A43D94FB8420ED0D94FB8420BD06F
:100DD000B0F1804F08D0D74FB84205D0D64FB842B7
:100DE00002D0D64FB84206D14DF6FF77394046F4CF
:100DF0008057394305E047F6FF57394044F48057A0
:100E0000394382830184F0BD828B4FF6F3731A401D
:100E10008283828B0A4382837047F0B50C46154665
:100E2000002200210026078C4FF6FF6C07EA0C0712
:100E30000784828B018C4FF6FF7707EA04264FF672
:100E40000C773A404FF6FF7707EA03172F433A43F0
:100E5000B64FB8420ED0B64FB8420BD0B0F1804F6B
:100E600008D0B44FB84205D0B34FB84202D0B34F08
:100E7000B84206D14FF6FF57394046F480773943E0
:100E800005E04FF2FF57394044F4807739438283BD
:100E90000184F0BD028B4FF2FF331A400283028BB4
:100EA0004FF6FF7303EA01231A4302837047F0B53C
:100EB0000C461546002200210026078C4FF6EF7CD9
:100EC00007EA0C070784028B018C4FF6FF7707EACD
:100ED000041640F6FF473A404FF6FF7707EA03371C
:100EE0003A434FF6FF7707EA05273A438F4FB84258
:100EF0000ED08F4FB8420BD0B0F1804F08D08D4F3D
:100F0000B84205D08C4FB84202D08C4FB84206D1BF
:100F10004FF6DF77394046F01007394305E04FF6CA
:100F20005F77394044F01007394302830184F0BDF4
:100F3000028B4FF6F3731A400283028B0A4302833B
:100F40007047F0B50C46154600220021068C4FF67E
:100F5000FE773E400684028B018C4FF60C763240C1
:100F60007E1C06EA03162E433243704EB0420ED06A
:100F70006F4EB0420BD0B0F1804F08D06D4EB042F2
:100F800005D06D4EB04202D06C4EB04206D14FF645
:100F9000FD76314044F00106314305E04FF6F57629
:100FA000314044F00106314302830184F0BD70B545
:100FB00005460C465D4885420ED05D4885420BD003
:100FC000B5F1804F08D05B48854205D05A4885422C
:100FD00002D05A48854200D100E000BF208850B9B5
:100FE0002389A28861882846FFF7ABFFE18828465D
:100FF000FFF79EFF25E0208804280AD12389A288D4
:1010000061882846FFF753FFE1882846FFF742FF33
:1010100017E0208808280AD12389A28861882846F9
:10102000FFF7FBFEE1882846FFF7EEFE09E0238983
:10103000A28861882846FFF7A6FEE1882846FFF7C8
:1010400095FE70BD2DE9F04105460C4600260127AE
:10105000608808B9022600E00026A088012801D196
:10106000022700E001272088A0B92389A28861888F
:101070002846FFF766FFE1882846FFF759FF2389D6
:101080003A4631462846FFF712FFE1882846FFF727
:1010900001FF13E02389A28861882846FFF707FF34
:1010A000E1882846FFF7F6FE23893A46314628466E
:1010B000FFF747FFE1882846FFF73AFFBDE8F081D8
:1010C0000A884B881A438B881A43CB881A430B89AA
:1010D0001A434B891A438B891A43A0F8442070475E
:1010E0004FF6FF71818000210180C1804180017233
:1010F00070470021018041808180C1800181418150
:101100008181C1817047002101804180012181805E
:101110000021C180018170470021018041808180D0
:10112000C18001814181818170470000002C014014
:10113000003401400004004000080040000C004062
:1011400021B1028842F00102028004E002884FF6D9
:10115000FE731A400280704731B1B0F8442042F467
:101160000042A0F8442005E0B0F84420C2F30E028B
:10117000A0F8442070471AB183890B43838102E0B1
:1011800083898B43838170478182704741EA0203E0
:10119000A0F8483070471AB183890B43838102E07D
:1011A00083898B438381704701894FF6F872114020
:1011B000018170470A46002101894FF68F7319405B
:1011C00011430181704730B504460D46294620463B
:1011D000FFF7F0FF208940F00700208130BD2DE9A6
:1011E000F04104460D4616461F46602D06D13B468B
:1011F000012231462046FFF75AFE05E03B46012218
:1012000031462046FFF79DFE29462046FFF7D2FFD4
:10121000208940F007002081BDE8F08130B50C4600
:1012200000210189C9B24FF6FF7505EA0325154370
:1012300025432943018130BD2DE9F04105460E4685
:1012400017469846002443463A4631462846FFF75B
:10125000E5FF2C894FF6F870044044F007044FF680
:101260008F70044044F070042C81BDE8F081F0B52B
:1012700004460D4616461F463B4632462946204642
:10128000FFF7CCFF208940F480402081F0BD01852C
:10129000828270470A46002101884FF68F731940F9
:1012A000114301807047F0B50C4615461E460021DB
:1012B000002200230189028B038C4FF6F877394016
:1012C00021434FF6FC473A4040F201173A434FF6AC
:1012D000DD773B404FF6FF7707EA06172F433B4386
:1012E000018102830384F0BD0A460021018B4FF681
:1012F0008F7319401143018370470A460021018B07
:1013000048F6FF7319404FF6FF7303EA02231943AF
:10131000018370470A460021818B4FF68F73194075
:101320001143818370470A460021818B48F6FF7381
:1013300019404FF6FF7303EA022319438183704774
:1013400021B1028842F08002028004E002884FF658
:101350007F731A400280704721B1828842F00402F4
:10136000828004E082884FF6FB731A4082807047C7
:1013700021B1828842F00802828004E082884FF620
:10138000F7731A408280704721B1828842F00102CF
:10139000828004E082884FF6FE731A408280704794
:1013A0000A460021018B4FF6F77319401143018360
:1013B00070470A460021018B4FF2FF7319404FF628
:1013C000FF7303EA02231943018370470A46002191
:1013D000818B4FF6F77319401143818370470A469A
:1013E0000021818B4FF2FF7319404FF6FF7303EA20
:1013F00002231943818370470A460021018B4FF66F
:10140000FB7319401143018370470A460021018B89
:101410004FF6FF3319404FF6FF7303EA02231943D7
:10142000018370470A460021818B4FF6FB731940F8
:101430001143818370470A460021818B4FF6FF33A9
:1014400019404FF6FF7303EA022319438183704763
:101450000A460021018B4FF67F7319401143018327
:1014600070470A460021018BC1F30E014FF6FF734E
:1014700003EA02231943018370470A460021818B46
:101480004FF67F7319401143818370470A4600214C
:10149000818BC1F30E014FF6FF7303EA0223194358
:1014A000818370470A460021018C4FF6FD73194075
:1014B0001143018470470A460021018C4FF6F773EF
:1014C00019401143018470470A460021018C4FF6F0
:1014D000DF7319404FF6FF7303EA021319430184C7
:1014E00070470A460021018C4FF67F7319404FF672
:1014F000FF7303EA02131943018470470A4600216F
:10150000018C4FF6FF5319404FF6FF7303EA022395
:101510001943018470470A460021018C4FF2FF7382
:1015200019404FF6FF7303EA022319430184704701
:101530000A460021018C4DF6FF7319404FF6FF73E8
:1015400003EA023319430184704730B500230124B4
:101550008C40A3B2048C9C430484048C02FA01F5F1
:10156000ADB22C43048430BD30B5002304248C403C
:10157000A3B2048C9C430484048C02FA01F5ADB23E
:101580002C43048430BD70B5034600200024184667
:10159000183001258D40ACB21D8CA5431D8409B1C6
:1015A000082909D100EB6100056825F07005056088
:1015B0000568154305600EE00D1FC5F34E05284470
:1015C000056825F4E045056005684FF6FF7606EAF4
:1015D00002263543056070BD21B1028842F0020247
:1015E000028004E002884FF6FD731A4002807047C3
:1015F00021B1028842F00402028004E002884FF622
:10160000FB731A400280704721B1828842F0800249
:10161000828004E082884FF67F731A408280704790
:1016200002884FF6F7731A40028002880A4302804C
:10163000704782884FF68F731A40828082880A43EF
:101640008280704702894FF6F8731A40028102893E
:101650000A430281704702894FF67F731A40028164
:1016600002890A43028170478184704781857047EF
:10167000818670470187704781877047A0F84010C6
:10168000704702884FF6FF431A40028002880A43DF
:10169000028070470146888E70470146088F704768
:1016A0000146888F70470146B1F8400070470146F7
:1016B000888C70470146088D704702460020138AC7
:1016C0000B400BB1012000E000207047CA430282AA
:1016D000704730B50246002000230024158A05EA31
:1016E0000103958905EA010413B10CB1012000E062
:1016F000002030BDCA4302827047000010B5044686
:10170000FB48844209D101218803FFF79FF800219B
:101710004FF48040FFF79AF832E0F648844209D14E
:1017200001214804FFF79FF800214FF40030FFF734
:101730009AF825E0F048844209D101218804FFF796
:1017400092F800214FF48020FFF78DF818E0EB4865
:10175000844209D10121C804FFF785F800214FF424
:101760000020FFF780F80BE0E548844208D1012112
:101770000805FFF778F800214FF48010FFF773F8A1
:1017800010BD2DE9F04786B005460E460024A2465E
:1017900000BFA1460027B08900B100BF2F462C8AA8
:1017A0004CF6FF700440F08804432C82AC894EF65E
:1017B000F3100440B0883189084371890843044319
:1017C000AC81AC8A4FF6FF400440B0890443AC8240
:1017D00001A8FEF7B4FFC648874202D1DDF810A089
:1017E00001E0DDF80CA0A88900F4004040B10AEB4C
:1017F000CA0000EB0A1031684900B0FBF1F807E0BD
:101800000AEBCA0000EB0A1031688900B0FBF1F85E
:101810006420B8FBF0F004012009642101FB108969
:10182000A88900F4004040B1322000EBC900B0FBB1
:10183000F1F000F00700044308E0322000EB09104B
:101840006421B0FBF1F000F00F0004432C8106B0DE
:10185000BDE8F0874FF41651016000218180C180FE
:1018600001810C21418100218181704710B5024620
:101870000020108A4FF2FF0318400B884C88234346
:101880008C882343CC8823431843108210BD002149
:10189000018041808180C180704721B1828942F4FA
:1018A0000052828104E082894DF6FF731A408281E2
:1018B0007047F0B50346002400260025002040F6BE
:1018C0006A17B94200D100BF1846C1F3421401F0B3
:1018D0001F06012707FA06F5012C01D10C3004E0A0
:1018E000022C01D1103000E014301AB107682F43E8
:1018F000076002E00768AF430760F0BD1AB1838A52
:101900000B43838202E0838A8B4383827047028A7F
:101910004FF6F0731A400282028A0A43028270472D
:1019200082894FF2FF731A40828182890A43828141
:10193000704721B1828942F00202828104E08289EB
:101940004FF6FD731A4082817047028A4FF6DF73AB
:101950001A400282028A0A430282704721B1028A37
:1019600042F48042028204E0028A4BF6FF731A407E
:1019700002827047C1F3080282807047014688885E
:10198000C0F308007047818941F0010181817047EF
:10199000028BD2B20283028B42EA01220283704799
:1019A000028B02F47F420283028B0A430283704758
:1019B00021B1828A42F02002828204E0828A4FF6BC
:1019C000DF731A408282704721B1828A42F010028E
:1019D000828204E0828A4FF6EF731A408282704757
:1019E00021B1828A42F00802828204E0828A4FF6A4
:1019F000F7731A408282704721B1828942F4004213
:101A0000828103E08289C2F30E028281704721B194
:101A1000828A42F40062828204E0828A4FF2FF737B
:101A20001A4082827047828A4FF6FB731A40828284
:101A3000828A0A438282704721B1828A42F002027E
:101A4000828204E0828A4FF6FD731A4082827047D8
:101A500002460020B1F5007F00D100BF13880B4083
:101A60000BB1012000E00020704701F40072B2F5D4
:101A7000007F00D100BFCA430280704770B50246A4
:101A8000002400230025002040F66A16B14200D150
:101A900000BFC1F3421501F01F03012606FA03F34C
:101AA000012D02D19689334006E0022D02D1168A1B
:101AB000334001E0968A33400C12012606FA04F402
:101AC0001688344013B10CB1012000E0002070BD35
:101AD00010B50022002340F66A14A14200D100BFD5
:101AE0000A1201249440A3B2DC43048010BD00001C
:101AF000003801400044004000480040004C0040D5
:101B00000050004010B50446FA48844208D1012133
:101B10004015FEF79BFE00216015FEF797FE17E0CB
:101B2000F548844208D101210015FEF78FFE0021FF
:101B30002015FEF78BFE0BE0F048844208D101210E
:101B4000C803FEF783FE00214FF40040FEF77EFE3F
:101B500010BD30B50246002000235068E84C2040FC
:101B60000D790C6844EA0524204350609068E54CE8
:101B70002040D1E902542C434D7944EA45042043E6
:101B80009060D06A20F470000C7C641EE4B22343A1
:101B900040EA0350D06230BD002101600171417103
:101BA0008160C16001210174704721B1826842F0F7
:101BB0000102826003E0826822F0010282607047C5
:101BC00021B1826842F48072826003E0826822F46C
:101BD00080728260704710B50023CBB21AB144689E
:101BE0001C43446002E044689C43446010BD81682B
:101BF00041F0080181607047014600208A6802F0C8
:101C000008020AB1012000E000207047816841F01D
:101C1000040181607047014600208A6802F00402D6
:101C20000AB1012000E00020704721B1826842F42F
:101C3000A002826003E0826822F4A0028260704702
:101C4000014600208A6802F480020AB1012000E007
:101C50000020704710B50A4600210023416821F496
:101C60006041531E41EA4331416010BD21B14268D9
:101C700042F40062426003E0426822F40062426083
:101C80007047F0B504460D4600200021092D11DDF6
:101C9000E068A5F10A0606EB4607072606FA07F1F3
:101CA0008843A5F10A0606EB460603FA06F1084347
:101CB000E0600CE0206905EB4507072606FA07F10E
:101CC000884305EB450603FA06F108432061072A1D
:101CD0000FDA606B561E06EB86071F2606FA07F121
:101CE0008843561E06EB860605FA06F10843606334
:101CF00022E00D2A0FDA206BD61F06EB86071F267F
:101D000006FA07F18843D61F06EB860605FA06F1A8
:101D10000843206310E0E06AA2F10D0606EB860797
:101D20001F2606FA07F18843A2F10D0606EB860688
:101D300005FA06F10843E062F0BD21B1826842F481
:101D40008012826003E0826822F480128260704711
:101D50000146C86C80B2704766484C3000687047D6
:101D600021B1426842F48062426003E0426822F49A
:101D700080624260704721B1426842F48052426002
:101D800003E0426822F48052426070470A46002114
:101D9000816821F4E04111438160704721B182687C
:101DA00042F40042826003E0826822F400428260D2
:101DB000704721B1826842F40212826003E08268B7
:101DC00022F4021282607047014600208A6802F401
:101DD00000120AB1012000E000207047F0B504466F
:101DE0001546002000220026092911DDE068A1F136
:101DF0000A0707EB470C072707FA0CF29043A1F1FB
:101E00000A0707EB470703FA07F21043E0600CE00C
:101E1000206901EB410C072707FA0CF2904301EB14
:101E2000410703FA07F210432061A06BC0F301568B
:101E3000EF1C06F1010CA7EB0C0707EB870C1F2723
:101E400007FA0CF29043EF1C06F1010CA7EB0C070C
:101E500007EB870701FA07F21043A063F0BD10B546
:101E60000A4600210023816B21F44011531E41EAF0
:101E70000351816310BD08B5002300930090009BBF
:101E80000B440093009B1A6008BD08B50246002071
:101E90000090009201F12800009B184400900098E7
:101EA000006880B208BD0A4600214168164B1940FF
:101EB0001143416070474162826270470A460021C7
:101EC000416821F01F0111434160704740B1094949
:101ED0000831096841F40001064A0832116007E040
:101EE00004490831096821F40001024A08321160EE
:101EF000704700000024014000280140003C0140E0
:101F0000FFFEF0FFFDF7F1FFFFFD3FFF024600205F
:101F100013680B400BB1012000E000207047CA435A
:101F20000260704770B502460020002300240B12A7
:101F30005568CEB205EA060415681D4015B10CB10E
:101F4000012000E0002070BD00220A12D34303608C
:101F50007047000001460020FE4A106800F038007B
:101F6000084310607047FB49096821F00801F94AED
:101F7000116011460968014311607047F54909680D
:101F800021F01001F34A1160114609680143116004
:101F90007047F148EF494860F04848607047EE48A4
:101FA000EC494860ED4848607047EA48006940F0F5
:101FB0008000E84908617047E648006940F0800009
:101FC000E449086170470420E249C96801F0010151
:101FD00009B101200EE0DF49C96801F0040109B12F
:101FE000022007E0DB49C96801F0100109B10320B4
:101FF00000E00420704700B502460423FFF7E3FF2A
:10200000034603E0FFF7DFFF0346521E012B01D119
:10201000002AF7D102B90523184600BD30B50446A1
:1020200004254FF43020FFF7E6FF0546042D17D1B5
:10203000C848006940F00200C6490861084644618A
:10204000006940F0400008614FF43020FFF7D3FFF3
:102050000546C048006941F6FD710840BD49086168
:10206000284630BD10B504244FF43020FFF7C3FFDD
:102070000446042C16D1B748006940F00400B54965
:1020800008610846006940F0400008614FF43020C4
:10209000FFF7B1FF0446AF48006941F6FB71084005
:1020A000AC490861204610BD00B502460423FFF785
:1020B0008AFF034603E0FFF786FF0346521E012B0B
:1020C00001D1002AF7D102B90523184600BD10B589
:1020D00004244FF43020FFF7E7FF0446042C16D108
:1020E0009C48006940F004009A490861084600696C
:1020F00040F0400008614FF43020FFF7D5FF044660
:102100009448006941F6FB710840924908612046F5
:1021100010BD00208F49C96901F0020109B10120F9
:1021200000E00020704730B5A5250424FFF7F1FF3B
:1021300000B100254FF43020FFF75DFF0446042C6A
:102140003AD1854883498860844888600846006998
:1021500040F0200008610846006940F04000086136
:102160004FF43020FFF747FF0446042C1BD1794879
:10217000006941F6DF710840764908610846006948
:1021800040F01000086176480580E002FFF733FF59
:102190000446052C10D06F48006941F6EF710840E5
:1021A0006C49086108E0052C06D06A48006941F6D0
:1021B000EF71084067490861204630BD78B5064692
:1021C0000C46042500200090E802FFF714FF0546A6
:1021D000042D24D15F48006940F001005D49086189
:1021E0003480E802FFF707FF0546042D10D1B01C2C
:1021F0000090200C00990880E802FFF7FCFE0546DD
:102200005448006941F6FE7108405249086106E0F1
:102210005048006941F6FE7108404E490861284661
:1022200078BD70B504460D460426F002FFF7E3FEC4
:102230000646042E11D14748006940F00100454987
:1022400008612580F002FFF7D6FE06464148006986
:1022500041F6FE7108403F490861304670BD70B5D7
:1022600005460E460424E002FFF7C5FE0446042C92
:1022700017D139483749886038488860084600696E
:1022800040F0100008612E80E002FFF7B4FE044623
:10229000052C06D02F48006941F6EF7108402D4902
:1022A0000861204670BD2DE9F04304464FF6FF76E5
:1022B0003746B046B1460425E443E6B2C4F30727E7
:1022C000C4F307484FEA1469E802FFF794FE054695
:1022D000042D49D120481F4988602048886008465D
:1022E000006940F010000861FF2E06D01C4808303D
:1022F0000680E802FFF77FFE0546042D08D1FF2F78
:1023000006D017480A300780E802FFF774FE05463A
:10231000042D0AD1B8F1FF0F07D011480C30A0F8F6
:102320000080E802FFF767FE0546042D0AD1B9F1E7
:10233000FF0F07D00A480E30A0F80090E802FFF720
:102340005AFE0546052D0FD00248006941F6EF718F
:10235000084007E00020024023016745AB89EFCD2C
:1023600000F8FF1F664908612846BDE8F08330B5D4
:10237000054604244FF43020FFF73DFE0446042CAC
:1023800041D160485E4988605F48886008460069BE
:1023900040F0200008610846006940F040000861F4
:1023A0004FF43020FFF727FE0446042C22D1544876
:1023B000006941F6DF71084051490861084600692B
:1023C00040F0100008611DB100205049088002E073
:1023D000A5204E4908804FF43020FFF70CFE04463C
:1023E000052C10D04648006941F6EF710840444979
:1023F000086108E0052C06D04148006941F6DF710C
:1024000008403F490861204630BDF0B505460E46FC
:10241000174604243B483A4988603B488860E002FC
:10242000FFF7E9FD0446042C19D13548006940F056
:1024300010003349086147F0F8003043284333491E
:10244000891C0880E002FFF7D6FD0446052C06D063
:102450002B48006941F6EF71084029490861204680
:10246000F0BD2748C069800870472548006A70475A
:1024700000202349096801F0200109B1012000E092
:102480000020704729B11E4A126902431C4B1A6191
:1024900004E01B4A12698243194B1A6170470146D6
:1024A0000020012908D1164AD26902F001020AB1BE
:1024B000012008E0002006E0114AD2680A400AB173
:1024C000012000E0002070470D49C86070470420DB
:1024D0000B49C96801F0010109B101200EE008496A
:1024E000C96801F0040109B1022007E00449C96884
:1024F00001F0100109B1032000E004207047000042
:102500000020024023016745AB89EFCD00F8FF1F93
:102510000CB50020019000906C48006840F48030B9
:102520006A49086000BF6948006800F40030009004
:102530000198401C0190009818B90198B0F5A06F5F
:10254000F1D16248006800F4003010B10120009021
:1025500001E0002000900098012843D15C48006809
:1025600040F010005A4908600846006820F0030057
:1025700008600846006840F0020008605348406860
:10258000524948600846406848600846406840F440
:10259000806048600846406820F47C104860084627
:1025A000406840F4E81048600846006840F08070D9
:1025B000086000BF4548006800F000700028F9D0AE
:1025C0004248406820F0030040494860084640689F
:1025D00040F00200486000BF3C48406800F00C003A
:1025E0000828F9D10CBD10B5FFF792FF10BD10B54A
:1025F0003648006840F001003449086008464068E9
:10260000344908403149486008460068324908406A
:102610002E4908600846006820F4802008600846BB
:10262000406820F4FE0048604FF41F008860FFF708
:10263000DAFF4FF000602949086010BD10B5002195
:1026400000200022214B5B6803F00C0121B104291A
:1026500006D0082928D107E0214B224C236027E02F
:102660001F4B204C236023E0184B5B6803F4701071
:10267000164B5B6803F48032022303EB904022B9CF
:10268000194B4343174C23600DE0104B5B6803F478
:10269000003323B1144B4343124C236003E0104B2F
:1026A0004343104C236003E00D4B0E4C236000BFEE
:1026B00000BF064B5B68C3F303130C4CE15C094B92
:1026C0001B68CB40074C236010BD00000010024087
:1026D000002002400000FFF8FFFFF6FE08ED00E0DA
:1026E00000127A001400002000093D0018000020AC
:1026F0000648804706480047FEE7FEE7FEE7FEE79C
:10270000FEE7FEE7FEE7FEE7FEE7FEE7EF2500084F
:10271000ED00000810B501210846FEF77DF8012103
:102720004548FDF78EFE10BD08B501210820FEF7D3
:1027300073F84FF48050ADF8000010208DF80300BE
:1027400003208DF8020069463C48FDF7A9FD08BD4D
:1027500010B53B48007838B90120394908700103A9
:102760003648FDF74AFE07E00020354908704FF46F
:1027700080513248FDF743FE10BD324A002105E08A
:1027800012F8013B00F8013B4B1CD9B20C29F7DBD6
:10279000704710B588B06846FFF7EFFF0C21684618
:1027A00001F05CFB0446224627A1684603F0B2FF15
:1027B000684600F05EFC642001F043FB08B010BDE9
:1027C00010B5FFF7A7FF00F009FB00F073FB002036
:1027D00000F0A9FB00F042FE00F0E0FF00F0E6FF91
:1027E00001F043F800F06AFD01F0AEF800F060FA85
:1027F000142001F026FB00F03FF8FFF795FF00F0F2
:1028000014FF01F0DFF84FF4FA7001F01AFB14A086
:1028100000F02FFC142001F014FB14A000F029FCA0
:10282000012000F080FB142001F00BFBFFF7B1FF4B
:102830000EA000F01EFC10BD00023000000C014094
:1028400028000020E8F7FF1F41542B4E414D454D15
:1028500069616F774C6162732D253034580D0A0021
:1028600041542B42415544380D0A000041542B522B
:10287000455345540D0A00001CB53EA103C9CDE9DE
:1028800000016B4601226B21682000F0BEFD0DF1B6
:10289000010301221921682000F0B7FD0DF10203A8
:1028A00001221A21682000F0B0FD0DF1030301227E
:1028B0001B21682000F0A9FD01AB01221C2168202A
:1028C00000F0A3FD1CBD38B504466B46022221462C
:1028D000682000F0ADFD9DF801009DF8001000EBB0
:1028E000012000B238BD70B50446002524B93B2054
:1028F000FFF7E9FF05460CE0012C04D13D20FFF76E
:10290000E2FF054605E0022C03D13F20FFF7DBFF85
:102910000546284670BD70B50446002524B94320FD
:10292000FFF7D1FF05460CE0012C04D14520FFF74D
:10293000CAFF054605E0022C03D14720FFF7C3FF7D
:102940000546284670BD10B50020FFF7E4FF0B498F
:1029500008800220FFF7DFFF094908800120FFF708
:10296000C2FF084908800220FFF7BDFF0649088022
:1029700010BD000000070418010000002A0000201C
:102980002C0000202E0000203000002008B501217E
:102990000820FDF741FF01211020FDF73DFF4FF416
:1029A0006040ADF8000010208DF8030003208DF882
:1029B00002006946FE48FDF773FC4FF40050ADF885
:1029C00000006946FB48FDF76BFC08BD70B5044686
:1029D0000E462EB14FF40051F648FDF70EFD04E00F
:1029E0004FF40051F348FDF70AFD00251BE04FF4BA
:1029F0000041EF48FDF703FD04F0800028B14FF4DB
:102A00008041EB48FDF7F9FC04E04FF48041E848D1
:102A1000FDF7F5FC4FF40041E548FDF7EEFC6006DC
:102A2000040E681CC5B2082DE1DB4FF40051E148EB
:102A3000FDF7E3FC70BD70B504460D4605F1B0012D
:102A4000C8B20021FFF7C2FF102141EA1410002193
:102A5000FFF7BCFF04F00F0141F001000021FFF778
:102A6000B5FF70BD10B500218D20FFF7AFFF00212D
:102A70001420FFF7ABFF0021AF20FFF7A7FF10BD29
:102A800010B500218D20FFF7A1FF00211020FFF7D6
:102A90009DFF0021AE20FFF799FF10BD70B5002407
:102AA00019E004F1B001C8B20021FFF78FFF002147
:102AB0000846FFF78BFF00211020FFF787FF002556
:102AC00005E001210020FFF781FF681CC5B2802DC1
:102AD000F7DB601CC4B2082CE3DB70BD2DE9F041CC
:102AE00006460C4617464FF000080025A7F12000C7
:102AF00000F0FF087F2E02DD0026A01CC4B2601C7F
:102B0000C1B23046FFF797FF00250AE008EB480105
:102B1000A94A02EB4101485D0121FFF757FF681CFC
:102B2000C5B2062DF2DBBDE8F0812DE9F041044687
:102B30000F46154600260DE0AA5D39462046FFF7F0
:102B4000CDFFA01DC4B2782C02DD0024B81CC7B292
:102B5000701CC6B2A85D0028EED1BDE8F0812DE959
:102B6000F04180460E461546002731464046FFF7A5
:102B700062FF00240AE0914A02EB8511085D012101
:102B8000FFF724FF781CC7B2601CC4B2102CF2DB24
:102B9000701CC1B24046FFF74EFF00240CE06900F4
:102BA000491C864A02EB4111085D0121FFF70EFF27
:102BB000781CC7B2601CC4B2102CF0DBBDE8F081F9
:102BC0002DE9F05F06460F4690461C46DDF828A02A
:102BD0004FF0000BE11704EB5171C910A4EBC101D8
:102BE00031B92046E11704EB5171C1F3C70506E086
:102BF0002046E11704EB5171C910491CCDB23D4686
:102C000015E029463046FFF716FFB1460BE059465E
:102C10000BF1010B1AF801000121FFF7D7FE09F1B2
:102C2000010000F0FF09C145F1DB681CC5B2A542F7
:102C3000E7DBBDE8F09F2DE9F05F06460F469046C2
:102C40001C46DDF828A04FF0000BE11704EB517192
:102C5000C910A4EBC10131B92046E11704EB517151
:102C6000C1F3C70506E02046E11704EB5171C91016
:102C7000491CCDB23D4617E029463046FFF7DBFE42
:102C8000B1460DE059460BF1010B1AF80110C9438A
:102C9000C8B20121FFF79AFE09F1010000F0FF0917
:102CA000C145EFDB681CC5B2A542E5DBBDE8F09F7E
:102CB00010B5FFF76BFE4FF400513D48FDF79FFB49
:102CC000642001F0BEF84FF400513948FDF795FB40
:102CD0000021AE20FFF77AFE00210846FFF776FEBE
:102CE00000211020FFF772FE00214020FFF76EFE4A
:102CF00000218120FFF76AFE0021CF20FFF766FE4A
:102D00000021A120FFF762FE0021C820FFF75EFE30
:102D10000021A620FFF75AFE0021A820FFF756FE4B
:102D200000213F20FFF752FE0021D320FFF74EFE87
:102D300000210846FFF74AFE0021D520FFF746FE96
:102D400000218020FFF742FE0021D920FFF73EFE40
:102D50000021F120FFF73AFE0021DA20FFF736FECE
:102D600000211220FFF732FE0021DB20FFF72EFEAC
:102D700000214020FFF72AFE00212020FFF726FE39
:102D800000210220FFF722FE00218D20FFF71EFE0A
:102D900000211420FFF71AFE0021A420FFF716FEE1
:102DA0000021A620FFF712FE0021AF2008E000005E
:102DB000000C0140001001400275000832000020A4
:102DC000FFF704FE0021AF20FFF700FEFFF766FECD
:102DD00000210846FFF72FFE10BD000000B587B0A8
:102DE00001214FF40170FDF717FD4FF40040FDF78E
:102DF00077FC2020ADF8040000208DF8070001A921
:102E00002848FDF74DFA002002908DF80C000120B3
:102E10008DF80D004FF460200490002005900520EF
:102E20008DF8180002A92048FEF793FE0523012221
:102E300019461D48FEF725FF01211B48FEF7B5FE88
:102E40001948FEF7D4FE00BF1748FEF7D5FE00284C
:102E5000FAD11548FEF7DAFE00BF1348FEF7DBFE95
:102E60000028FAD101211048FEF7DFFE07B000BDAF
:102E70002DE9F0470024A1460B48FEF769FF814683
:102E8000484602F089FF0746084A094B02F089FECE
:102E9000054603F037F80446204602F0A3FF80B24F
:102EA000BDE8F0870008014000240140C7BAB88D92
:102EB00006F0DE3F00B585B0012144F20400FDF7C5
:102EC000ABFC4FF40070ADF8100018208DF8130023
:102ED00003208DF8120004A96E48FDF7E1F94FF4C4
:102EE0008060ADF8100004208DF8130004A9694833
:102EF000FDF7D6F94FF4E13000900020ADF8040062
:102F0000ADF80600ADF80800ADF80C000C20ADF8E7
:102F10000A0069466048FEF734FC01215E48FEF76E
:102F2000BCFC05B000BD10B586B004460121880484
:102F3000FDF77FFC01210820FDF76EFC4FF4806057
:102F4000ADF8140018208DF8170003208DF8160036
:102F500005A95248FDF7A4F94FF40060ADF814003C
:102F600004208DF8170005A94C48FDF799F91CB904
:102F70004FF41650019004E0012C02D14FF4E130DF
:102F800001900020ADF80800ADF80A00ADF80C0083
:102F9000ADF810000C20ADF80E0001A94048FEF776
:102FA000F0FB012240F225513D48FEF782FC012151
:102FB0003B48FEF772FC4FF4A060FDF7A3F8272012
:102FC0008DF8000000208DF8010004208DF802002B
:102FD00001208DF803006846FDF799F806B010BD92
:102FE00010B5044621462C48FEF7C4FC00BF402122
:102FF0002948FEF72DFD0128F9D110BD70B5044612
:103000000D46002605E014F8010BFFF7E9FF701CE0
:1030100086B2AE42F7DB70BD70B50446204602F0C2
:1030200027FC86B2002505E014F8010BFFF7D8FF56
:10303000681C85B2B542F7DB70BD10B50446214669
:103040001748FEF797FC00BF40211548FEF700FD2A
:103050000128F9D110BD70B504460D46002605E0E3
:1030600014F8010BFFF7E9FF701C86B2AE42F7DBE4
:1030700070BD70B50446204602F0FAFB86B200250A
:1030800005E014F8010BFFF7D8FF681C85B2B542C4
:10309000F7DB70BD0008014000380140000C014022
:1030A0000048004008B50720009002E00098401E4C
:1030B000009000980028F9D108BD10B54FF40070B9
:1030C000E549086040100860FFF7ECFFE248083867
:1030D000006808B9012000E0002000F4007008B189
:1030E000002010BD4FF40070DB49091D0860FFF798
:1030F000D9FFD9480838006800F4007008B10020F2
:10310000EFE74FF40070D449091D0860FFF7CAFFCC
:103110000120E6E710B54FF48070CF49091D086023
:10312000FFF7C0FF4FF40070CB49091D0860FFF79F
:10313000B9FF4FF48070C8490860FFF7B3FF4FF440
:103140000070C5490860FFF7ADFF10BD10B54FF422
:103150008070C149091D0860FFF7A4FF4FF400709B
:10316000BD49091D0860FFF79DFF4FF48070BA4903
:103170000860FFF797FF4FF48070B749091D08609A
:10318000FFF790FF10BD10B54FF48070B249091DD4
:103190000860FFF787FF4FF40070AF490860FFF742
:1031A00081FF4FF48070AC490860FFF77BFF4FF45C
:1031B0008070A949091D0860FFF774FF10BD10B5A4
:1031C0004FF48070A449091D0860FFF76BFF4FF4AE
:1031D0000070A1490860FFF765FF4FF480709E49B9
:1031E0000860FFF75FFF9C480838006800F4007033
:1031F00030B14FF480709849091D0860002010BD5F
:103200004FF480709449091D08600120F7E770B5FC
:10321000044608251DE04FF480708F49091D0860A1
:10322000FFF740FF04F0800020B14FF400708A499E
:10323000086004E04FF400708749091D08606006CB
:10324000040EFFF72FFF4FF4807083490860FFF7EB
:1032500029FF281EA5F10101CDB2DCD14FF4807009
:103260007D49091D086070BD70B508250024A801BE
:103270007949086016E06006040E4FF480707649C4
:10328000091D0860FFF70EFF4FF480707249086057
:10329000FFF708FF70480838006800F4007008B1B4
:1032A00044F00104281EA5F10101CDB2E3D14FF491
:1032B00080706949091D0860204670BD08B501216C
:1032C0000820FDF7A9FA4FF44070ADF80000022085
:1032D0008DF8020014208DF8030069465E4810380E
:1032E000FCF7DEFF08BD70B504460D461646FFF735
:1032F000E4FE08B9002070BD002141EA4401C8B2D3
:10330000FFF785FFFFF75BFF18B9FFF703FF00200A
:10331000F1E72846FFF77BFFFFF751FF3046FFF745
:1033200076FFFFF74CFFFFF7F5FE0120E3E72DE9FD
:10333000F04105460E4617469846FFF7BEFE10B907
:103340000020BDE8F081002141EA4501C8B2FFF745
:103350005EFFFFF734FF18B9FFF7DCFE0020F0E74F
:103360003046FFF754FFFFF72AFF00240BE018F860
:103370000400FFF74CFFFFF722FF18B9FFF7CAFE62
:103380000020DEE7641CBC42F1DBFFF7C3FE012036
:10339000D7E72DE9F04105460F4614461E46FFF7D4
:1033A0008CFE10B90020BDE8F081002141EA450102
:1033B000C8B2FFF72CFFFFF702FF18B9FFF7AAFE0C
:1033C0000020F0E73846FFF722FFFFF7F8FEFFF78F
:1033D00074FE012101EB4501C8B2FFF718FFFFF7AA
:1033E000EEFE0CE0FFF740FF3070012C02D1FFF73A
:1033F000CAFE01E0FFF7AAFE761C601EC4B2002CD4
:10340000F0D1FFF787FE0120CDE72DE9F04104461A
:103410000D4616461F463B46324629462046FFF7D4
:1034200086FF10B10020BDE8F0814FF0FF30FAE7D1
:103430002DE9F04104460D4616461F463B463246EE
:1034400029462046FFF7A5FF10B10020BDE8F08116
:103450004FF0FF30FAE70000100C014000B589B0D2
:103460000121C802FDF7D8F901210420FDF7D4F9A4
:103470004FF40060ADF8140048208DF8170005A93E
:103480007748FCF70DFF0420ADF8140010208DF8EC
:10349000170002208DF8160005A97148FCF700FFFF
:1034A0004FF6FF70ADF80C004720ADF80800002083
:1034B000ADF80E00ADF80A0002A96A48FDF7E4FA7B
:1034C0000C20ADF818000020ADF81A000120ADF86E
:1034D0001C000020ADF81E00ADF8200006A96148D0
:1034E000FDF765FD1B208DF8040002208DF8050016
:1034F00000208DF8060001208DF8070001A8FCF7D8
:1035000006FE012211215748FDF735FE01215548DD
:10351000FDF716FE09B000BD10B504215048FCF7B8
:103520006CFF142000F080FC04214D48FCF767FF7D
:103530004D48007800F08000E8B14B48007800F07A
:103540003F004A49086008460088000408600846B1
:10355000006847490968084444490860084600680B
:10356000AA21484342F2107190FBF1F03F490860F4
:1035700000203D49086010BD10B53B48007800F0C0
:10358000800000284CD101213648FEF7A2F8D0B1C6
:103590003548007800F04000A8B13348007800F0CA
:1035A0003F003F280AD13048006840F080002E4993
:1035B00008604FF6FF702E49086004E02A48006852
:1035C000401C2949086010212648FEF782F838B3CC
:1035D0002548007800F0400078B12348006840F0AA
:1035E0008000214908601F48FEF75DF82049086007
:1035F00000211C48FDF79CFF12E000201A490860DA
:103600001B49086000211748FEF72EF8164800688D
:1036100040F040001449086002211248FDF788FF7D
:1036200011211048FEF766F810BD10B54FF47A70FE
:1036300000F007FC4FF400610948FCF7C4FE58B9DC
:10364000322000F0FEFB4FF400610548FCF7BBFEA2
:1036500010B901200749086010BD0648006870478E
:1036600000080140002C0140F4020020FC02002070
:10367000F80200200003002008B501210420FDF716
:10368000CBF801210820FDF7C7F81820ADF800009D
:1036900010208DF8030003208DF802006946A6482B
:1036A000FCF7FEFD0320ADF800006946A348FCF7D7
:1036B000F7FD1821A048FCF7A0FE03219F48FCF766
:1036C0009CFE08BD08B501210220FDF7B2F80121DA
:1036D0000420FDF7A1F801210820FDF79DF8C02086
:1036E000ADF8000018208DF8030003208DF80200CB
:1036F00069469148FCF7D4FD08BDF0B587B00027B6
:1037000000240025002640F2E730ADF81400032025
:10371000ADF810000020ADF81600ADF8120004A9B5
:103720008748FDF7B1F96020ADF800000120ADF841
:103730000200ADF806700020ADF808006946804828
:10374000FDF7DFF908217E48FDF72AFEADF80640B7
:1037500069467B48FDF717FA08217948FDF729FEED
:10376000ADF8065069467648FDF75AFA08217448C4
:10377000FDF72CFEADF8066069467148FDF79BFA2F
:1037800008216F48FDF72BFE01216D48FDF7D8FD9C
:1037900001216B48FDF7D4FC07B0F0BD10B5FFF771
:1037A0006BFFFFF78FFFFFF7A8FF10BD00B589B0D3
:1037B00001210846FDF73DF801210420FDF72CF812
:1037C00002A8FCF7F8FD0320ADF8080004208DF8EE
:1037D0000B0002A95848FCF763FD1C208DF804007B
:1037E00000208DF8050003208DF8060001208DF8DB
:1037F000070001A8FCF78BFC4FF08040FDF770F844
:1038000006A8FDF76DFC0020ADF818004FF6FF701C
:10381000ADF81C000020ADF81E00ADF81A0006A996
:103820004FF08040FDF730F900231A4603214FF096
:103830008040FDF738FD03A8FDF765FC0620ADF8D4
:10384000140003A94FF08040FDF7B1FB0121880768
:10385000FDF73CFF012211469007FDF78CFC01218A
:103860008807FDF76DFC09B000BD00B589B00121E6
:103870000420FCF7DEFF01210820FCF7CDFF02A8A1
:10388000FCF799FDC020ADF8080004208DF80B006E
:1038900002A92A48FCF704FD1E208DF80400002030
:1038A0008DF8050002208DF8060001208DF8070034
:1038B00001A8FCF72CFC2348FDF712F806A8FDF739
:1038C0000FFC0020ADF818004FF6FF70ADF81C009B
:1038D0000020ADF81E00ADF81A0006A91948FDF742
:1038E000D3F800231A4603211648FDF7DCFC03A891
:1038F000FDF709FC0620ADF8140003A91148FDF7F7
:1039000056FB01210F48FDF7E1FE012211460D484B
:10391000FDF731FC01210B48FDF712FC09B000BD99
:1039200010B501218807FDF7D1FE10BD10B50121AA
:103930000448FDF7CBFE10BD00080140000C01401B
:10394000000400400008004008B501210420FCF7F5
:1039500063FF01210820FCF75FFF48208DF803007A
:103960004FF40140ADF8000069462F48FCF798FC81
:103970002820ADF8000069462C48FCF791FC08BDF2
:1039800010B5002408212948FCF71DFD08B144F0BA
:10399000040420212548FCF716FD08B144F0010479
:1039A0004FF400412048FCF70EFD08B144F010042C
:1039B0004FF480711C48FCF706FD08B144F0400448
:1039C000204610BD10B5002420211848FCF7FBFC50
:1039D000012801D1601CC4B208211448FCF7F3FC93
:1039E000012801D1601CC4B24FF400410E48FCF71D
:1039F000EAFC012801D1601CC4B24FF480710A486E
:103A0000FCF7E1FC012801D1601CC4B2042C02D1F6
:103A100001200749087010BD0548007808B9012049
:103A200070470020FCE7000000080140000C014046
:103A30000403002000200DE0244931F81010002973
:103A400006DD224931F81010491E204A22F81010D4
:103A5000411CC8B20528EFDB704770B5FEF7EEFDDC
:103A60001B4800684FF47A72B0FBF2F1B1F1807F2D
:103A700001D301201DE021F07F40401E4FF0E022E5
:103A8000506150170F22002807DA13071D0E114B43
:103A900000F00F04241F1D5503E013071C0E0E4BEE
:103AA0001C5400BF00204FF0E022906107201061FD
:103AB000002008B100BFFEE74FF0E020006940F0B1
:103AC00001004FF0E021086170BD0000A408002053
:103AD0001400002018ED00E000E400E030B58BB0E9
:103AE00000200790089009900A9003900490059098
:103AF0000690009001900290002500240FE05049AC
:103B000051F8240002F055F907A941F8240007A84C
:103B100050F8240003A941F82400601CC4B2042C0E
:103B2000EDDB002410E003A810F824000DF81400C9
:103B300003A830F82400C0F30720012101EB440161
:103B40000DF80100601CC4B2042CECDB08216846AF
:103B500000F0B0F905462846E91705EB1161091296
:103B6000A5EB0121C9B28DF80810E91705EB116129
:103B7000090A8DF809100A216846FFF73FFA0BB0D1
:103B800030BD30B58BB0002400252D49086802F007
:103B900010F900B2ADF824002949486802F009F98B
:103BA00000B2ADF826002649886802F002F900B29A
:103BB000ADF82800AA222146641C01A842545522CF
:103BC0002146641C425401222146641C42540622B0
:103BD0002146641C425400BF13E009A830F81500C8
:103BE000C0F307222046611CCCB201A90A5409A8DF
:103BF00010F815202046611CCCB201A90A54681C9B
:103C0000C5B2032DE9DB214601A800F045F92146A4
:103C1000621CD4B201AA5054214601A8FFF7EEF964
:103C20000BB030BD10B5074800680549086006486C
:103C300000684860054800688860FFF7A2FF10BD73
:103C4000B0080020B4030020AC030020A40300202F
:103C500010B52D48008800B110BD4FF47A702A4984
:103C600008802A480088401C28490880FFF700F98E
:103C7000274908802748007808B100F0BFF9FEF70F
:103C800067FD00BFE8E7FEF79BFD01F035FA00F0A5
:103C9000C9FBFFF7E2FEFFF7BFFE10B101201E498E
:103CA000086001F08FFA01F06EF92BE0FFF7D0FF0A
:103CB0001548408848B914201349488000F018F985
:103CC000FFF7B0FF154800F0ABF90F48808820B926
:103CD00014200D49888001F085FA0B48C08888B906
:103CE0000F48006838B902200749C88001F045F93B
:103CF00001F002FD06E002200349C880FFF70CFC3A
:103D000001F065FBD2E70000A4080020D2070020E4
:103D1000D407002005030020100300202408002001
:103D200000080020704700BFFEE700BFFEE700BFAD
:103D3000FEE700BFFEE7704770477047704710B559
:103D4000FFF778FE32480078401C3149087031484E
:103D50000078401C2F49087000F05CFF2C48007868
:103D6000052805DB00202A49087000F048FD2EE0F8
:103D700027480078012804D1FEF7E5FD00F008FE91
:103D800025E023480078022804D100F086FE01F0E7
:103D9000D3F81CE01E480078032810D11E48007894
:103DA000401C1D4908700846007805280FDB00F00C
:103DB0009DFE0020184908701649087007E0144855
:103DC0000078042803D100F006FC00F083FC10BD4D
:103DD00010B540F225511148FDF750FEB8B110481A
:103DE0000078802802DB00200D4908700B48FDF7A1
:103DF000C5FDC1B20A4802780078401C084B187013
:103E00000848815440F225510448FDF761FE10BD79
:103E1000080300200A030020090300200048004096
:103E2000F202002024080020014605E0002001E005
:103E3000421CD0B20A28FBDB0A1EA1F10101F5D118
:103E4000704710B5044603E04FF47A70FFF7ECFFBB
:103E5000201EA4F10104F7D110BD704730B5024611
:103E60000023002000BF04E012F8014B60405C1CFE
:103E7000E3B28B42F8DB30BDF0B505460E46144682
:103E8000002731462846FFF7E9FF0746A74201D140
:103E90000120F0BD0020FCE730B5024600200023E1
:103EA00005E012F8015B2C18E0B25C1CE3B28B4217
:103EB000F7DB30BD30B502460B464FF6FF700021F0
:103EC00012E0555C684000240AE000F0010525B1CD
:103ED0004AF2010585EA600000E04010651CECB282
:103EE000082CF2DB4D1CE9B29942EADB30BD000040
:103EF0002DE9F0478CB0FA49FA48006801F0E2FC7D
:103F0000824601F0BBFF04460D46F549F6480068BD
:103F100001F0D8FC824601F0B1FF06460F46F04999
:103F2000F248006801F0CEFC824601F0A7FF80460F
:103F300042460B46EEA104A8CDE90067CDE9024553
:103F400002F0E8FB04A8FFF794F80CB0BDE8F08796
:103F50002DE9F0478CB08246BAF1000F1BD1E94938
:103F6000886801F08BFF04460D46E649486801F079
:103F700085FF06460F46E349086801F07FFF80464B
:103F800042460B46E0A104A8CDE90067CDE9024511
:103F900002F0C0FB1DE0BAF1010F1AD1DF498868B9
:103FA00001F06CFF04460D46DC49486801F066FFED
:103FB00006460F46D949086801F060FF8046424630
:103FC0000B46D7A104A8CDE90067CDE9024502F070
:103FD000A1FB04A8FFF74DF80CB0BDE8F08700B5D1
:103FE00089B0D448D44BD54AD5A1009001A802F09D
:103FF00091FB01A8FFF73DF809B000BD00B589B0FD
:10400000D348008800EB80004200D2480388D2A148
:1040100001A802F07FFB01A8FFF72BF809B000BD53
:104020002DE9FC5F06463446E0E12078232877D16D
:10403000CCA1601C01F024FC009003F04DFA07466F
:1040400001F003FFC5B2002D6ADD642D68DA0A2D88
:1040500014DA6119081DC4A101F012FC009003F0EC
:104060003BFA074601F0F1FE00F0FF094A462946F7
:10407000E01CFFF701FF8246E41C13E06119481DB4
:10408000B9A101F0FDFB009003F026FA074601F00C
:10409000DCFE00F0FF094A462946201DFFF7ECFE32
:1040A0008246241DBAF1000F3AD0B04800780128AA
:1040B00065D1AFA1204601F0C9FB20B1002108461F
:1040C00000F077FE5BE0ABA1204601F0BFFB40B300
:1040D000A4A1204601F0D4FBA2A1002001F0D0FB56
:1040E000009003F0F9F9074601F00CFF8346A2A106
:1040F000002001F0C5FB009003F0EEF9074601F047
:1041000001FF01909D49019801F034FC07469B494D
:10411000584601F02FFC8046394600F04AFE2EE05A
:1041200063E1FFE796A1204601F090FB38B38DA133
:10413000204601F0A5FB8BA1002001F0A1FB00901F
:1041400003F0CAF9074601F0DDFE83468AA100208C
:1041500001F096FB009003F0BFF9074601F0D2FE94
:1041600001904FF08041584601F036FC07468549E2
:10417000019801F031FC8046394600F01AFE82A118
:10418000204601F063FB18B10120784908702CE14A
:104190007EA1204601F05AFB18B103207349087034
:1041A00023E17BA1204601F051FB38B104206F4987
:1041B00008707449002000F0FCFD16E175A120464E
:1041C00001F044FB18B10220684908700DE172A1AA
:1041D000204601F03BFB70B362A1204601F050FB8A
:1041E00060A1002001F04CFB009003F075F9074638
:1041F00001F088FE434908605AA1002001F040FB0D
:10420000009003F069F9074601F07CFE3D494860E3
:1042100059A1002001F034FB009003F05DF907463E
:1042200001F070FE37498860002000F08CFF00200C
:10423000FFF78EFED9E0FFE758A1204601F006FB0C
:1042400070B348A1204601F01BFB46A1002001F0FD
:1042500017FB009003F040F9074601F053FE2F4989
:10426000086040A1002001F00BFB009003F034F93E
:10427000074601F047FE294948603FA1002001F0B0
:10428000FFFA009003F028F9074601F03BFE2349AE
:104290008860012000F057FF0120FFF759FEA4E0DD
:1042A0003FA1204601F0D2FA18B10020FFF750FEDE
:1042B0009BE03CA1204601F0C9FA18B10120FFF7AC
:1042C00047FE92E038A1204601F0C0FA30B100204C
:1042D00000F054FF0020FFF73BFE86E066E00000A0
:1042E00000003443A4030020AC030020B4030020EA
:1042F000562C252E30662C252E30662C252E306629
:104300000D0A00006C03002041502C252E32662C33
:10431000252E32662C252E32660D0A0078030020E9
:1043200053502C252E32662C252E32662C252E320B
:10433000660D0A00247D00081F7D00081A7D000814
:10434000492C25732C25732C25730D0A00000000C1
:10435000D4070020D2070020522C25642C25640DA0
:104360000A0000002C0000003B000000D6070020DF
:1043700043530000434A00002A000000000020418F
:10438000434D00000000A040534E4B0053554600E3
:10439000535541005349540053415000535350006A
:1043A00047415000475350005241000017A120469A
:1043B00001F04CFA30B1012000F0E0FE0120FFF7DF
:1043C000C7FD12E012A1204601F040FA28B10120F9
:1043D00010490870FFF703FE07E00FA1204601F027
:1043E00035FA10B100200B490870641CA01B0B4962
:1043F00009788842FFF619AE00200849087080212C
:10440000074801F018FABDE8FC9F00005256000072
:10441000524200000503002052530000F202002027
:10442000240800200020FE490880FE490880FE493B
:104430000860FE490860FE490860FE490860FE49C0
:104440000860FE490860FE490860FE490860FE49B0
:104450000860FE490860FE490860FE490860FE49A0
:104460000860FE490860FE490860FE490860FE4990
:104470000860FE490860FE490860FE490870FE4970
:104480000870FE490870FE490860FE490860FE4950
:104490000860FE490860FE490860704770B5044630
:1044A0000D460021FB48006801F048FD34D11E2C68
:1044B0000DDD1E2D0BDDF849E248006801F048FDD6
:1044C00005D2F649DF48006801F038FD11D314F138
:1044D0001E0F1DDA15F11E0F1ADAEF49D9480068D0
:1044E00001F036FD14D2ED49D648006801F026FDF2
:1044F0000ED2EB480088401CE94908800846008835
:1045000032280CDD002008800120E649086006E022
:104510000020E349088002E00020E149088070BDE6
:1045200070B5E048006800B970BDDF49C548006853
:1045300001F00EFD48D2DD49C248006801F0FEFCE2
:1045400042D2DB480088401CD949088008460088D0
:1045500032283EDB00200880D6480168B948006850
:1045600001F002FA064601F089FC0446D24AD34B18
:1045700001F098FC20D2CF480168B248006801F0F1
:10458000F3F9064601F07AFC0446CB4ACC4B01F025
:10459000A1FC11D2CB480088401CCA4908800846BB
:1045A000008804280BDB00200880C1490880A4494A
:1045B0000860BC49086002E00020C2490880A148A8
:1045C0000068BC49086004E00020B9490880BD4982
:1045D000088000BFA8E710B59148B0F900109148D5
:1045E000B0F90000FFF75AFFFFF79AFFAD480068E7
:1045F00030B1B548007840F00200B349087005E0DA
:10460000B148007820F00200AF490870A3498D48F6
:10461000006801F09DFC05D39F498A48006801F0BD
:104620008DFC06D2A848007840F00400A649087026
:1046300005E0A548007820F00400A349087010BDEB
:1046400070B504460D46002C09DA08219F48FBF797
:10465000D4FE10219D48FBF7D2FE644207E01021F2
:104660009A48FBF7CAFE08219848FBF7C8FE002DC0
:1046700009DA01219648FBF7C0FE02219448FBF7B6
:10468000BEFE6D4207E002219148FBF7B6FE012114
:104690008F48FBF7B4FEB5F57A7F01DB40F2E735D2
:1046A000B4F57A7F01DB40F2E7348748007840B107
:1046B00000218848FCF7DCFF00218648FCF7DAFF80
:1046C00007E0A9B28348FCF7D3FFA1B28148FCF709
:1046D000D1FF70BD70B55F4801685F48006801F0A8
:1046E00043F9054660480168284601F03DF9044653
:1046F00079480168204601F037F959490860554862
:1047000001685548006801F02FF9054656480168D0
:10471000284601F0D7F804466F480168204601F0AA
:10472000D1F84E4908604E48006801F042FB00286D
:1047300007DD00214A48006801F0C4F848490860D4
:104740000CE04748006801F034FB002806DA00213D
:104750004348006801F008F9414908603F48006893
:1047600001F027FB002807DD00213C48006801F02C
:10477000A9F83A4908600CE03848006801F019FBD4
:10478000002806DA00213548006801F0EDF83349C9
:1047900008603348006801F00CFBB0F57A7F02DB5B
:1047A0004E482F4908602E48006801F002FB10F5C2
:1047B0007A7F02DC4A482A4908602848006801F0EC
:1047C000F8FAB0F57A7F02DB4448244908602348B0
:1047D000006801F0EEFA10F57A7F02DC40481F49CC
:1047E00008601E48006801F0E4FA04461C480068AE
:1047F00001F0DFFA05462146FFF722FF70BD10B534
:104800004FF08040FCF753FF00B20649088035485E
:10481000FCF74DFF404200B201490880002063E0F0
:10482000320300203003002038030020340300202E
:10483000400300203C0300206003002058030020B8
:1048400064030020A4030020AC030020B403002074
:10485000A0030020140300202003002028030020D0
:1048600024030020900300209403002098030020DC
:104870009C03002008030020090300200A030020F5
:10488000440300204803002050030020540300206C
:10489000680300205C0300200000F0C10000F0412C
:1048A000C4030020C00300200000A0C00000A040FE
:1048B000CE030020C80300209A9999999999E93F5D
:1048C0009999E9BFCC0300200D03002000080140A6
:1048D000000C0140000400402C03002000C079447B
:1048E00000C079C4000800404FF080418884FA4934
:1048F0000880FA480068FA49B1F900100844F749FD
:104900000860F8480068F849B1F900100844F54912
:104910000860F348B0F90000F349B1F90010401AFB
:10492000F24909680844F1490860ED48B0F900000F
:10493000ED49B1F900100844ED4909680844EC4913
:104940000860EC480068E649B1F900100844E949FC
:104950000860E9480068E449B1F900100844E649F4
:104960000860E44800680968401AE4490860E448BF
:104970000068DB49B1F90010401AE1490860E148DC
:104980000068D949B1F90010401ADE49086010BD2D
:104990002DE9F04F87B0DC48B0F9000001F0EBF9E9
:1049A00006460022D94B01F06EF9CDE90201D84844
:1049B000B0F9000001F0DFF906460022D34B01F008
:1049C00062F98046DDE9022302F0B8FC04460022C9
:1049D000D04B01F0E6F8D04AD04BCDE9040101F00C
:1049E00052F9824601F08EFACD490860CD48006840
:1049F00001F0B8F90446CA480168204600F0B7FF44
:104A0000C7490860C848B0F9000001F0B4F906468B
:104A10004FF06632C54B01F036F9044601F0F6F965
:104A200000B2C14908800846B0F9000001F09AF9C7
:104A3000BF490860BA48006801F020FA0446BD4A40
:104A4000BD4B01F0AEF8CDE90201B948006801F0B4
:104A500015FA8246B74AB94B01F0A3F806460F464D
:104A6000B748006801F00AFA804632463B4600F03B
:104A7000F1FF0446B34AB44B01F093F8CDE90001CD
:104A8000DDE9022300F0E6FFCDE9040101F03AFA86
:104A9000AB49086007B0BDE8F08F2DE9F041AB49A4
:104AA0008868AB4900F098FF0646A14801680020DD
:104AB00000F05AFF0746314600F05CFF0446A0486C
:104AC0000168002000F050FF0746A0480168384602
:104AD00000F050FF06469F4900F04CFF0546214676
:104AE00000F0F0FE9C490860BDE8F0812DE9FE4F22
:104AF00080490968804A1268881801F03CF9064626
:104B00000022964B01F04DF8044601F0FBF9944960
:104B1000086000207849086076490860904800687D
:104B200001F0ACF906464FF033328E4B01F039F804
:104B300004460D468C48006801F0A0F906464FF087
:104B400066328A4B01F02DF8804622462B4600F053
:104B500081FF824601F0D6F9814908600846006865
:104B6000814908608248006800907D48016800988B
:104B700000F0FAFE00907F480168009800F0FAFE0D
:104B800002907C49486801F079F9824600227A4B0C
:104B900001F079F806460F46009801F06FF980465B
:104BA00032463B4600F0FDFF044601F0ABF90190B0
:104BB00072480199006800F085FE704908607048ED
:104BC00001686E48006800F07DFE6C490860084688
:104BD000006801F0EEF800B2B0F52F7F02DD694801
:104BE000664908606548006801F0E3F800B210F516
:104BF000617F02DA6448614908606448006864497A
:104C000008605E480168029800F05CFE5F49086039
:104C1000BDE8FE8F2DE9F0415D4801685B48006802
:104C200000F0A2FE06465B480078401C01F09AF8AE
:104C30000746314600F09EFE0546574900F0CCFE7F
:104C4000044653480168204600F03CFE5349086082
:104C5000BDE8F0812DE9FC5F8146884614461D467B
:104C60000C9E2146404601F069F917D2294630468C
:104C700000F07AFE41460190204600F075FE00905B
:104C8000019900F0A9FE82464146484600F06CFEBC
:104C90008346514600F0A0FE074616E029463046FE
:104CA00000F062FE83462146404600F05DFE594614
:104CB000009000F091FE82464146484600F057FEC3
:104CC0005146019000F088FE07463146384601F013
:104CD0003FF965D2374669E02408004044030020CC
:104CE000300300204803002032030020500300203E
:104CF000540300203C030020400300204C0300200C
:104D0000B8030020BC030020300000200000D04089
:104D10002E000020008066401F85EB51B81E094020
:104D2000B4030020100300202A00002066663040F3
:104D3000AC0300207B14AE47E17A943FE17A743FE4
:104D4000A40300205C8FC2F5285CEF3F6C030020B9
:104D5000000020410000A040200300200000E03FB0
:104D6000580300203333D33F600300206666E63FDC
:104D70005C0300207803002000002440640300202E
:104D80009003002000002F44000061C41C03002099
:104D9000180300200A0300200000C841140300206B
:104DA0002946384601F0CAF800D22F463846BDE8F9
:104DB000FC9F38B505460C460021284601F0C8F88E
:104DC0000AD27B4800237B4A194600902846FFF709
:104DD00041FF794908600BE075480023774A19467E
:104DE00000902846FFF736FF80F0004072490860C7
:104DF0000021204601F0ACF80AD2714800236D4A28
:104E0000194600902046FFF725FF6E4908600BE029
:104E10006B480023694A194600902046FFF71AFFA5
:104E200080F000406749086038BD10B50446FCB901
:104E300065480068002808DB634800680C2804DC2B
:104E400062490020FFF7B5FF34E05F480068122890
:104E500009DD5D4800681E2805DC4FF08141002017
:104E6000FFF7A7FF26E000210846FFF7A2FF21E099
:104E7000012C1FD15448006800280EDB52480068FE
:104E800014280ADC00215248FFF793FF40F2EE207D
:104E9000504908604042504908604E480068002868
:104EA00008DA4D480068002804DD4FF081410020F9
:104EB000FFF77FFF10BD2DE9F04188B000260025E7
:104EC000FEF75EFD044604F0040008B13B4E1AE014
:104ED00004F0020008B1414E15E004F0010008B1F1
:104EE0003A4E10E004F0400008B1324E0BE004F0FE
:104EF000200008B13A4E06E004F0100010B14FF067
:104F0000814600E00026374D29463046FFF751FF25
:104F1000284600F04EFF0746304600F04AFF804624
:104F20003B46424630A1684601F0F4FB6846FEF776
:104F300073F808B0BDE8F08170B531490968314AAD
:104F40001268881A00F00EFF06462F484168304666
:104F500000F010FD04462D490968484200F002FFA8
:104F6000064629480168304600F004FD0546214602
:104F700000F0A8FC2649086070BD002022490860A6
:104F800048608860704712481F4908604FF07C50A5
:104F90004860002088601B4908607047642803DB74
:104FA0001C49084A116002E01B49064A116070471B
:104FB0000000C8430000204194030020000020C1ED
:104FC00000008C425C030020FC020020000080C036
:104FD0000000A040B8030020BC0300200000C0C0B7
:104FE0000000C0400000404053746565723A25647B
:104FF0002C2053706565643A25640D0A000000009A
:105000006803002050030020840300204C0300208C
:105010002C0300200000AA42000070422DE9F0415C
:1050200006460D4617460024FCF7B3FF3520FDF772
:105030004BFA00BF05E05F48205C5F490855601CE3
:10504000C4B2802CF7DB002406E015F8010B3119FF
:10505000594A5054601CC4B2BC42F6DB5548FCF7B8
:10506000DDFF002407E0544A1159524AA018FDF709
:10507000A5F8201DC4B2802CF5DB3520FDF724FAFD
:10508000FCF793FFBDE8F08110B50346002006E071
:10509000484C1C44245C01F8014B441CE0B2904293
:1050A000F6DB10BD08B5012269463220FFF7ECFFA0
:1050B0009DF80000012805D10C2240493320FFF75C
:1050C000E3FF04E00C223D490220FFF7DDFF01224F
:1050D00069464820FFF7D8FF9DF80000012805D158
:1050E0000C2237494920FFF7CFFF04E00C22344956
:1050F0001220FFF7C9FF08BD08B50222694600204B
:10510000FFF7C2FF9DF80000A52806D19DF8010019
:105110005A2802D1FFF7C6FF14E0A5208DF8000041
:105120005A208DF80100022269460020FFF776FF21
:105130000C2222490220FFF771FF0C222049122085
:10514000FFF76CFF08BD38B504460120009054B944
:10515000012269463220FFF761FF0C2217493320F4
:10516000FFF75CFF09E0012269464820FFF756FF80
:105170000C2213494920FFF751FF38BD38B50446CA
:105180000020009054B9012269463220FFF746FF03
:105190000C220A490220FFF777FF09E00122694645
:1051A0004820FFF73BFF0C2205491220FFF76CFF58
:1051B00038BD000000F00008C00800206C0300208B
:1051C0007803002008B5434808238022002100907E
:1051D0000846FDF7F5FC4FF47A70FEF732FEFDF756
:1051E0005DFC08BD00B589B0202101A800F023FBBB
:1051F00039480078401C384908700846007806286D
:1052000001DB002008703448007820B933A2002167
:105210000846FDF78AFC30480078012815D1FEF7D2
:105220001CFA38B1334834A21521036801A801F0F3
:1052300057FA05E037A338A2152101A801F050FA6A
:1052400001AA01210020FDF770FC23480078022804
:105250000CD13848B0F9003037A2152101A801F06F
:105260003FFA01AA02210020FDF75FFC1A480078EE
:1052700003280CD13648B0F9003036A2152101A818
:1052800001F02EFA01AA03210020FDF74EFC12487E
:10529000007804280BD1354835A21521036801A8F0
:1052A00001F01EFA01AA04210020FDF73EFC0A4885
:1052B000007805280BD1324832A21521036801A8D5
:1052C00001F00EFA01AA05210020FDF72EFC09B01D
:1052D00000BD0000D0030020D00700204D6F6465A2
:1052E0003A20436F6D706C656D656E7461727920E4
:1052F00020000000FC02002044697374616E636545
:105300003A2020256428636D292020202020202099
:10531000000000007878000044697374616E636572
:105320003A2020257328636D29202020202020206A
:105330000000000030030020456E636F4C6566740A
:105340003A2020256420202020202020202000003A
:1053500032030020456E636F52696768743A2025F6
:105360006420202020202020202000004403002052
:105370004C656674204D6F746F723A20256400008E
:10538000480300205269676874204D6F746F723A49
:10539000202564000021B54A11600121B44A116042
:1053A000C0EB001202EB420101EBD1725210B14B83
:1053B0001A6019460968B04A1268914203DAAF4987
:1053C000AF4A116002E0AF49AD4A1160704710B5B5
:1053D00000F074F9A6480068A8B1A7480168A5487C
:1053E0000068643081420DDCA24800686438A2493C
:1053F00009688842F7DC00209D490860A0490860E0
:10540000A149086031E1A148006878BBA048006864
:1054100000281BDD9E4800689E490968884215DC0B
:105420009D48006848B901209B4908605A20FFF751
:10543000B1FF01209549086017E16FF05900FFF7AF
:10544000A9FF4FF0FF30914908600EE193480068D2
:1054500040B99348006828B99248006810B992484A
:10546000006820B1002081490860FEE004E088481F
:105470000068FFF793FDF8E084480068012877D1C1
:105480008A48006800284CD089480068A8B10020EC
:10549000874908607E4800681E2807DD012085498D
:1054A00008606FF02C00FFF775FFDEE05A20FFF771
:1054B00071FF00207D490860D7E07E480068C0B1D8
:1054C00000207C490860724800681E280ADD002020
:1054D000FFF760FF00206D4908606F49086073495D
:1054E0000860C2E05A20FFF755FF00206F490860AE
:1054F000BBE06748006800280CDD65480068654926
:105500000968884206DA0020684908605A20FFF7D7
:1055100041FFAAE00120664908602D20FFF73AFF0D
:10552000A3E0654800684002072190FBF1F04000CD
:1055300055490968884206DC01205C490860002062
:10554000FFF728FF91E05248006800280BDD504823
:1055500000680A2807DA0020FFF71CFF00204B49EB
:10556000086082E004E04A480068FFF717FD7CE02D
:105570004E480068B0B34E480068B0B100204C49B6
:10558000086043480068142807DD01204949086085
:105590006FF02C00FFF7FEFE67E06FF05900FFF799
:1055A000F9FE0020414908605FE042480068D0B140
:1055B0000020404908603648006814280ADD0020B1
:1055C000FFF7E8FE00203149086033490860374999
:1055D00008604AE06FF05900FFF7DCFE0020334915
:1055E000086042E018E02A48006800280DDD2848DD
:1055F000006828490968884207DA00202B490860BA
:105600006FF05900FFF7C6FE2FE00120284908601F
:105610002D20FFF7BFFE28E0274800684002072141
:1056200090FBF1F0400018490968884206DC01202F
:105630001E4908600020FFF7ADFE16E01448006820
:1056400000280EDD1248006812490968884208DA0D
:105650000020FFF79FFE00200C4908600E490860FB
:1056600003E00B480068FFF799FC10BD5C030020C5
:10567000DC0700206803002050030020000048C21F
:10568000940300200000484254030020D807002063
:10569000FC020020F8070020E40700200808002092
:1056A0000C0800201008002014080020EC0700203F
:1056B000F4070020F0070020FC07002010B5FEF7DB
:1056C0005FF9494908700846007800F00100474931
:1056D000086045480078C0F38000454908604248AA
:1056E0000078C0F30010434908603F480078C0F3D9
:1056F00080104149086010BD10B5FFF7DFFF3F483B
:105700000068002802DA00203C4908603B48006835
:105710000F2805DB01203A490860FFF734FC10BD73
:1057200034480068A0B13448006888B12F48006848
:1057300070B12F48006858B13248334908600020E2
:10574000324908602D480068401C2C49086048E038
:105750002648006858B12E482C4908602D482A492F
:10576000086026480068401E2449086039E0214846
:10577000006858B128482549086026482249086031
:105780001E480068401E1D4908602AE0184800684D
:1057900060B14FF082401C49086020481B490860F6
:1057A00016480068401E154908601AE01248006853
:1057B00060B14FF0824014490860194813490860ED
:1057C0000E480068401E0D4908600AE000200F499D
:1057D000086014480C49086008480068401E0749E2
:1057E000086000BF9BE700000408002008080020B4
:1057F0000C080020100800201408002018080020C1
:1058000000080020000080BF5C03002094030020FB
:105810000000F042000050410000F0C20000C84308
:105820000000C8C300009041D2B201E000F8012B93
:10583000491EFBD270470022F6E710B513460A4610
:1058400004461946FFF7F0FF204610BD30B5054667
:105850002A460B4612F8010B13F8014B08B1A0427F
:10586000F8D01CB1002802D06D1CF1E7284630BDED
:10587000421C10F8011B0029FBD1801A7047000060
:1058800070B50F4D00B92868002412E00A4602E006
:105890009E4203D0521C1378002BF9D1DAB2224376
:1058A00005D02BB124B1002100F8011B04E004460F
:1058B000401C0678002EE9D12860204670BD00000B
:1058C0001C080020F0B480EA0102D40F4200B2EBC1
:1058D000410F02D20246084611464A0042D0C30D8B
:1058E000DDB2C1F3C752AD1A202D35DAC1F316016E
:1058F00041F4000204B15242C5F1200602FA06F159
:105900002A411044B3EBD05F23D0C4B1012DA0EBEA
:10591000C35009DCF0BC4FF0004202EAC352DBB2D4
:1059200000F5000000F0EDBB400000F1807000EBDE
:10593000C350A0F1807040EAD170490009E04908E5
:1059400041EAC071A0EBC35000F50000400800EB35
:10595000C350F0BC00F0CCBB6142012202EB41011C
:10596000001BF6E7F0BC704781F00041AAE780F029
:105970000040A7E780EA010210B502F000434000B2
:1059800022D04A001FD0010E01EB1261C0F3560075
:10599000C2F3560240F4000042F40002A0FB0220D1
:1059A00000047F39140400D0401C50EA124001D496
:1059B0004000491EC2B20C0604EBD010401C400847
:1059C000802A02D003E0002010BD20F00100002951
:1059D00000DA0020184310BD30B480EA010202F062
:1059E000004530F0004221F0004013D090B1C30DCB
:1059F000D40DC2F31601C0F31600E41A41F40001FD
:105A000040F400027D34914201D3641C00E049005F
:105A1000002C02DA30BC002070474FF40000002355
:105A2000914201D3891A034340084FEA4101F7D15B
:105A300051B1914202D14FF0004105E002D24FF046
:105A4000010101E06FF0010103EBC450284430BCB8
:105A500000F04EBB2DE9FE4F804681EA0300C00FE7
:105A60000C46009021F0004123F00045B8EB020005
:105A7000A94105D24046214690461C460B460246A7
:105A800023F00040104347D0270DC7F30A00C3F3AB
:105A90000A510290401A019040286BDAC3F31300B8
:105AA00040F4801B0098924620B10023D2EB030AF9
:105AB00063EB0B0B01985946C0F14002504600F0D1
:105AC00098FA06460D4650465946019A00F0B0FA3B
:105AD00010EB08006141002487EA115284EAE77361
